{
  "_format": "hh-sol-artifact-1",
  "contractName": "Donation",
  "sourceName": "contracts/Donation.sol",
  "abi": [
    {
      "inputs": [
        {
          "internalType": "address",
          "name": "companyaddress_",
          "type": "address"
        }
      ],
      "stateMutability": "nonpayable",
      "type": "constructor"
    },
    {
      "inputs": [
        {
          "internalType": "uint256",
          "name": "_id",
          "type": "uint256"
        }
      ],
      "name": "addDonation",
      "outputs": [],
      "stateMutability": "payable",
      "type": "function"
    },
    {
      "inputs": [],
      "name": "amountRaised",
      "outputs": [
        {
          "internalType": "uint256",
          "name": "",
          "type": "uint256"
        }
      ],
      "stateMutability": "view",
      "type": "function"
    },
    {
      "inputs": [
        {
          "internalType": "uint256",
          "name": "_id",
          "type": "uint256"
        }
      ],
      "name": "approveDonation",
      "outputs": [],
      "stateMutability": "nonpayable",
      "type": "function"
    },
    {
      "inputs": [
        {
          "internalType": "uint256",
          "name": "_amountInUsd",
          "type": "uint256"
        }
      ],
      "name": "convertEthUsd",
      "outputs": [
        {
          "internalType": "uint256",
          "name": "",
          "type": "uint256"
        }
      ],
      "stateMutability": "view",
      "type": "function"
    },
    {
      "inputs": [
        {
          "components": [
            {
              "internalType": "uint256",
              "name": "id",
              "type": "uint256"
            },
            {
              "internalType": "address payable",
              "name": "owner",
              "type": "address"
            },
            {
              "components": [
                {
                  "internalType": "uint256",
                  "name": "id",
                  "type": "uint256"
                },
                {
                  "internalType": "address",
                  "name": "_address",
                  "type": "address"
                },
                {
                  "internalType": "string",
                  "name": "userType",
                  "type": "string"
                },
                {
                  "internalType": "string",
                  "name": "country",
                  "type": "string"
                },
                {
                  "internalType": "string",
                  "name": "city",
                  "type": "string"
                },
                {
                  "internalType": "string",
                  "name": "email",
                  "type": "string"
                },
                {
                  "internalType": "string",
                  "name": "residenceAddress",
                  "type": "string"
                },
                {
                  "internalType": "bool",
                  "name": "isRegistered",
                  "type": "bool"
                },
                {
                  "internalType": "string",
                  "name": "website",
                  "type": "string"
                },
                {
                  "internalType": "string",
                  "name": "facebookUrl",
                  "type": "string"
                },
                {
                  "internalType": "string",
                  "name": "twitterUrl",
                  "type": "string"
                },
                {
                  "internalType": "string",
                  "name": "instagramUrl",
                  "type": "string"
                },
                {
                  "internalType": "string",
                  "name": "youtubeUrl",
                  "type": "string"
                },
                {
                  "internalType": "string",
                  "name": "hash",
                  "type": "string"
                }
              ],
              "internalType": "struct Donation.User",
              "name": "user",
              "type": "tuple"
            },
            {
              "internalType": "uint256",
              "name": "donersCount",
              "type": "uint256"
            },
            {
              "internalType": "uint256",
              "name": "donationsRaised",
              "type": "uint256"
            },
            {
              "internalType": "uint256",
              "name": "startDate",
              "type": "uint256"
            },
            {
              "internalType": "uint256",
              "name": "endDate",
              "type": "uint256"
            },
            {
              "internalType": "uint256",
              "name": "targetedAmount",
              "type": "uint256"
            },
            {
              "internalType": "string",
              "name": "category",
              "type": "string"
            },
            {
              "internalType": "string",
              "name": "title",
              "type": "string"
            },
            {
              "internalType": "string",
              "name": "hash",
              "type": "string"
            },
            {
              "internalType": "string",
              "name": "purpose",
              "type": "string"
            },
            {
              "internalType": "string",
              "name": "description",
              "type": "string"
            },
            {
              "components": [
                {
                  "internalType": "bool",
                  "name": "completed",
                  "type": "bool"
                },
                {
                  "internalType": "bool",
                  "name": "isPinned",
                  "type": "bool"
                },
                {
                  "internalType": "uint256",
                  "name": "pinnedDuration",
                  "type": "uint256"
                },
                {
                  "internalType": "uint256",
                  "name": "pinnedEndDate",
                  "type": "uint256"
                },
                {
                  "internalType": "bool",
                  "name": "isVisible",
                  "type": "bool"
                },
                {
                  "internalType": "bool",
                  "name": "isApproved",
                  "type": "bool"
                },
                {
                  "internalType": "uint256",
                  "name": "approvedDate",
                  "type": "uint256"
                },
                {
                  "internalType": "bool",
                  "name": "isRejected",
                  "type": "bool"
                }
              ],
              "internalType": "struct Donation.DonationStatus",
              "name": "donationstatus",
              "type": "tuple"
            }
          ],
          "internalType": "struct Donation.DonationItem",
          "name": "donation_",
          "type": "tuple"
        },
        {
          "internalType": "uint256",
          "name": "id_",
          "type": "uint256"
        }
      ],
      "name": "createDonation",
      "outputs": [],
      "stateMutability": "payable",
      "type": "function"
    },
    {
      "inputs": [
        {
          "internalType": "uint256",
          "name": "_id",
          "type": "uint256"
        }
      ],
      "name": "disablePinnedDonation",
      "outputs": [],
      "stateMutability": "nonpayable",
      "type": "function"
    },
    {
      "inputs": [],
      "name": "donationCount",
      "outputs": [
        {
          "internalType": "uint256",
          "name": "",
          "type": "uint256"
        }
      ],
      "stateMutability": "view",
      "type": "function"
    },
    {
      "inputs": [
        {
          "internalType": "uint256",
          "name": "",
          "type": "uint256"
        },
        {
          "internalType": "uint256",
          "name": "",
          "type": "uint256"
        }
      ],
      "name": "doners",
      "outputs": [
        {
          "internalType": "uint256",
          "name": "id",
          "type": "uint256"
        },
        {
          "internalType": "uint256",
          "name": "amount",
          "type": "uint256"
        },
        {
          "internalType": "uint256",
          "name": "date",
          "type": "uint256"
        },
        {
          "internalType": "address",
          "name": "doner",
          "type": "address"
        }
      ],
      "stateMutability": "view",
      "type": "function"
    },
    {
      "inputs": [],
      "name": "donersCount",
      "outputs": [
        {
          "internalType": "uint256",
          "name": "",
          "type": "uint256"
        }
      ],
      "stateMutability": "view",
      "type": "function"
    },
    {
      "inputs": [],
      "name": "fetchAllDonationItems",
      "outputs": [
        {
          "components": [
            {
              "internalType": "uint256",
              "name": "id",
              "type": "uint256"
            },
            {
              "internalType": "address payable",
              "name": "owner",
              "type": "address"
            },
            {
              "components": [
                {
                  "internalType": "uint256",
                  "name": "id",
                  "type": "uint256"
                },
                {
                  "internalType": "address",
                  "name": "_address",
                  "type": "address"
                },
                {
                  "internalType": "string",
                  "name": "userType",
                  "type": "string"
                },
                {
                  "internalType": "string",
                  "name": "country",
                  "type": "string"
                },
                {
                  "internalType": "string",
                  "name": "city",
                  "type": "string"
                },
                {
                  "internalType": "string",
                  "name": "email",
                  "type": "string"
                },
                {
                  "internalType": "string",
                  "name": "residenceAddress",
                  "type": "string"
                },
                {
                  "internalType": "bool",
                  "name": "isRegistered",
                  "type": "bool"
                },
                {
                  "internalType": "string",
                  "name": "website",
                  "type": "string"
                },
                {
                  "internalType": "string",
                  "name": "facebookUrl",
                  "type": "string"
                },
                {
                  "internalType": "string",
                  "name": "twitterUrl",
                  "type": "string"
                },
                {
                  "internalType": "string",
                  "name": "instagramUrl",
                  "type": "string"
                },
                {
                  "internalType": "string",
                  "name": "youtubeUrl",
                  "type": "string"
                },
                {
                  "internalType": "string",
                  "name": "hash",
                  "type": "string"
                }
              ],
              "internalType": "struct Donation.User",
              "name": "user",
              "type": "tuple"
            },
            {
              "internalType": "uint256",
              "name": "donersCount",
              "type": "uint256"
            },
            {
              "internalType": "uint256",
              "name": "donationsRaised",
              "type": "uint256"
            },
            {
              "internalType": "uint256",
              "name": "startDate",
              "type": "uint256"
            },
            {
              "internalType": "uint256",
              "name": "endDate",
              "type": "uint256"
            },
            {
              "internalType": "uint256",
              "name": "targetedAmount",
              "type": "uint256"
            },
            {
              "internalType": "string",
              "name": "category",
              "type": "string"
            },
            {
              "internalType": "string",
              "name": "title",
              "type": "string"
            },
            {
              "internalType": "string",
              "name": "hash",
              "type": "string"
            },
            {
              "internalType": "string",
              "name": "purpose",
              "type": "string"
            },
            {
              "internalType": "string",
              "name": "description",
              "type": "string"
            },
            {
              "components": [
                {
                  "internalType": "bool",
                  "name": "completed",
                  "type": "bool"
                },
                {
                  "internalType": "bool",
                  "name": "isPinned",
                  "type": "bool"
                },
                {
                  "internalType": "uint256",
                  "name": "pinnedDuration",
                  "type": "uint256"
                },
                {
                  "internalType": "uint256",
                  "name": "pinnedEndDate",
                  "type": "uint256"
                },
                {
                  "internalType": "bool",
                  "name": "isVisible",
                  "type": "bool"
                },
                {
                  "internalType": "bool",
                  "name": "isApproved",
                  "type": "bool"
                },
                {
                  "internalType": "uint256",
                  "name": "approvedDate",
                  "type": "uint256"
                },
                {
                  "internalType": "bool",
                  "name": "isRejected",
                  "type": "bool"
                }
              ],
              "internalType": "struct Donation.DonationStatus",
              "name": "donationstatus",
              "type": "tuple"
            }
          ],
          "internalType": "struct Donation.DonationItem[]",
          "name": "",
          "type": "tuple[]"
        }
      ],
      "stateMutability": "view",
      "type": "function"
    },
    {
      "inputs": [],
      "name": "getAllDoners",
      "outputs": [
        {
          "internalType": "uint256",
          "name": "",
          "type": "uint256"
        }
      ],
      "stateMutability": "view",
      "type": "function"
    },
    {
      "inputs": [],
      "name": "getAllUsers",
      "outputs": [
        {
          "internalType": "uint256",
          "name": "",
          "type": "uint256"
        }
      ],
      "stateMutability": "view",
      "type": "function"
    },
    {
      "inputs": [],
      "name": "getAmountRaised",
      "outputs": [
        {
          "internalType": "uint256",
          "name": "",
          "type": "uint256"
        }
      ],
      "stateMutability": "view",
      "type": "function"
    },
    {
      "inputs": [
        {
          "internalType": "uint256",
          "name": "_id",
          "type": "uint256"
        }
      ],
      "name": "getDonation",
      "outputs": [
        {
          "components": [
            {
              "internalType": "uint256",
              "name": "id",
              "type": "uint256"
            },
            {
              "internalType": "address payable",
              "name": "owner",
              "type": "address"
            },
            {
              "components": [
                {
                  "internalType": "uint256",
                  "name": "id",
                  "type": "uint256"
                },
                {
                  "internalType": "address",
                  "name": "_address",
                  "type": "address"
                },
                {
                  "internalType": "string",
                  "name": "userType",
                  "type": "string"
                },
                {
                  "internalType": "string",
                  "name": "country",
                  "type": "string"
                },
                {
                  "internalType": "string",
                  "name": "city",
                  "type": "string"
                },
                {
                  "internalType": "string",
                  "name": "email",
                  "type": "string"
                },
                {
                  "internalType": "string",
                  "name": "residenceAddress",
                  "type": "string"
                },
                {
                  "internalType": "bool",
                  "name": "isRegistered",
                  "type": "bool"
                },
                {
                  "internalType": "string",
                  "name": "website",
                  "type": "string"
                },
                {
                  "internalType": "string",
                  "name": "facebookUrl",
                  "type": "string"
                },
                {
                  "internalType": "string",
                  "name": "twitterUrl",
                  "type": "string"
                },
                {
                  "internalType": "string",
                  "name": "instagramUrl",
                  "type": "string"
                },
                {
                  "internalType": "string",
                  "name": "youtubeUrl",
                  "type": "string"
                },
                {
                  "internalType": "string",
                  "name": "hash",
                  "type": "string"
                }
              ],
              "internalType": "struct Donation.User",
              "name": "user",
              "type": "tuple"
            },
            {
              "internalType": "uint256",
              "name": "donersCount",
              "type": "uint256"
            },
            {
              "internalType": "uint256",
              "name": "donationsRaised",
              "type": "uint256"
            },
            {
              "internalType": "uint256",
              "name": "startDate",
              "type": "uint256"
            },
            {
              "internalType": "uint256",
              "name": "endDate",
              "type": "uint256"
            },
            {
              "internalType": "uint256",
              "name": "targetedAmount",
              "type": "uint256"
            },
            {
              "internalType": "string",
              "name": "category",
              "type": "string"
            },
            {
              "internalType": "string",
              "name": "title",
              "type": "string"
            },
            {
              "internalType": "string",
              "name": "hash",
              "type": "string"
            },
            {
              "internalType": "string",
              "name": "purpose",
              "type": "string"
            },
            {
              "internalType": "string",
              "name": "description",
              "type": "string"
            },
            {
              "components": [
                {
                  "internalType": "bool",
                  "name": "completed",
                  "type": "bool"
                },
                {
                  "internalType": "bool",
                  "name": "isPinned",
                  "type": "bool"
                },
                {
                  "internalType": "uint256",
                  "name": "pinnedDuration",
                  "type": "uint256"
                },
                {
                  "internalType": "uint256",
                  "name": "pinnedEndDate",
                  "type": "uint256"
                },
                {
                  "internalType": "bool",
                  "name": "isVisible",
                  "type": "bool"
                },
                {
                  "internalType": "bool",
                  "name": "isApproved",
                  "type": "bool"
                },
                {
                  "internalType": "uint256",
                  "name": "approvedDate",
                  "type": "uint256"
                },
                {
                  "internalType": "bool",
                  "name": "isRejected",
                  "type": "bool"
                }
              ],
              "internalType": "struct Donation.DonationStatus",
              "name": "donationstatus",
              "type": "tuple"
            }
          ],
          "internalType": "struct Donation.DonationItem",
          "name": "",
          "type": "tuple"
        }
      ],
      "stateMutability": "view",
      "type": "function"
    },
    {
      "inputs": [
        {
          "internalType": "uint256",
          "name": "_id",
          "type": "uint256"
        }
      ],
      "name": "getDonersOfDonation",
      "outputs": [
        {
          "components": [
            {
              "internalType": "uint256",
              "name": "id",
              "type": "uint256"
            },
            {
              "internalType": "uint256",
              "name": "amount",
              "type": "uint256"
            },
            {
              "internalType": "uint256",
              "name": "date",
              "type": "uint256"
            },
            {
              "internalType": "address",
              "name": "doner",
              "type": "address"
            }
          ],
          "internalType": "struct Donation.Doners[]",
          "name": "",
          "type": "tuple[]"
        }
      ],
      "stateMutability": "view",
      "type": "function"
    },
    {
      "inputs": [],
      "name": "getEthUsd",
      "outputs": [
        {
          "internalType": "uint256",
          "name": "",
          "type": "uint256"
        }
      ],
      "stateMutability": "view",
      "type": "function"
    },
    {
      "inputs": [],
      "name": "getLatestPrice",
      "outputs": [
        {
          "internalType": "int256",
          "name": "",
          "type": "int256"
        }
      ],
      "stateMutability": "view",
      "type": "function"
    },
    {
      "inputs": [],
      "name": "getMyDonations",
      "outputs": [
        {
          "components": [
            {
              "internalType": "uint256",
              "name": "id",
              "type": "uint256"
            },
            {
              "internalType": "address payable",
              "name": "owner",
              "type": "address"
            },
            {
              "components": [
                {
                  "internalType": "uint256",
                  "name": "id",
                  "type": "uint256"
                },
                {
                  "internalType": "address",
                  "name": "_address",
                  "type": "address"
                },
                {
                  "internalType": "string",
                  "name": "userType",
                  "type": "string"
                },
                {
                  "internalType": "string",
                  "name": "country",
                  "type": "string"
                },
                {
                  "internalType": "string",
                  "name": "city",
                  "type": "string"
                },
                {
                  "internalType": "string",
                  "name": "email",
                  "type": "string"
                },
                {
                  "internalType": "string",
                  "name": "residenceAddress",
                  "type": "string"
                },
                {
                  "internalType": "bool",
                  "name": "isRegistered",
                  "type": "bool"
                },
                {
                  "internalType": "string",
                  "name": "website",
                  "type": "string"
                },
                {
                  "internalType": "string",
                  "name": "facebookUrl",
                  "type": "string"
                },
                {
                  "internalType": "string",
                  "name": "twitterUrl",
                  "type": "string"
                },
                {
                  "internalType": "string",
                  "name": "instagramUrl",
                  "type": "string"
                },
                {
                  "internalType": "string",
                  "name": "youtubeUrl",
                  "type": "string"
                },
                {
                  "internalType": "string",
                  "name": "hash",
                  "type": "string"
                }
              ],
              "internalType": "struct Donation.User",
              "name": "user",
              "type": "tuple"
            },
            {
              "internalType": "uint256",
              "name": "donersCount",
              "type": "uint256"
            },
            {
              "internalType": "uint256",
              "name": "donationsRaised",
              "type": "uint256"
            },
            {
              "internalType": "uint256",
              "name": "startDate",
              "type": "uint256"
            },
            {
              "internalType": "uint256",
              "name": "endDate",
              "type": "uint256"
            },
            {
              "internalType": "uint256",
              "name": "targetedAmount",
              "type": "uint256"
            },
            {
              "internalType": "string",
              "name": "category",
              "type": "string"
            },
            {
              "internalType": "string",
              "name": "title",
              "type": "string"
            },
            {
              "internalType": "string",
              "name": "hash",
              "type": "string"
            },
            {
              "internalType": "string",
              "name": "purpose",
              "type": "string"
            },
            {
              "internalType": "string",
              "name": "description",
              "type": "string"
            },
            {
              "components": [
                {
                  "internalType": "bool",
                  "name": "completed",
                  "type": "bool"
                },
                {
                  "internalType": "bool",
                  "name": "isPinned",
                  "type": "bool"
                },
                {
                  "internalType": "uint256",
                  "name": "pinnedDuration",
                  "type": "uint256"
                },
                {
                  "internalType": "uint256",
                  "name": "pinnedEndDate",
                  "type": "uint256"
                },
                {
                  "internalType": "bool",
                  "name": "isVisible",
                  "type": "bool"
                },
                {
                  "internalType": "bool",
                  "name": "isApproved",
                  "type": "bool"
                },
                {
                  "internalType": "uint256",
                  "name": "approvedDate",
                  "type": "uint256"
                },
                {
                  "internalType": "bool",
                  "name": "isRejected",
                  "type": "bool"
                }
              ],
              "internalType": "struct Donation.DonationStatus",
              "name": "donationstatus",
              "type": "tuple"
            }
          ],
          "internalType": "struct Donation.DonationItem[]",
          "name": "",
          "type": "tuple[]"
        }
      ],
      "stateMutability": "view",
      "type": "function"
    },
    {
      "inputs": [
        {
          "internalType": "uint256",
          "name": "",
          "type": "uint256"
        }
      ],
      "name": "idToDonationItem",
      "outputs": [
        {
          "internalType": "uint256",
          "name": "id",
          "type": "uint256"
        },
        {
          "internalType": "address payable",
          "name": "owner",
          "type": "address"
        },
        {
          "components": [
            {
              "internalType": "uint256",
              "name": "id",
              "type": "uint256"
            },
            {
              "internalType": "address",
              "name": "_address",
              "type": "address"
            },
            {
              "internalType": "string",
              "name": "userType",
              "type": "string"
            },
            {
              "internalType": "string",
              "name": "country",
              "type": "string"
            },
            {
              "internalType": "string",
              "name": "city",
              "type": "string"
            },
            {
              "internalType": "string",
              "name": "email",
              "type": "string"
            },
            {
              "internalType": "string",
              "name": "residenceAddress",
              "type": "string"
            },
            {
              "internalType": "bool",
              "name": "isRegistered",
              "type": "bool"
            },
            {
              "internalType": "string",
              "name": "website",
              "type": "string"
            },
            {
              "internalType": "string",
              "name": "facebookUrl",
              "type": "string"
            },
            {
              "internalType": "string",
              "name": "twitterUrl",
              "type": "string"
            },
            {
              "internalType": "string",
              "name": "instagramUrl",
              "type": "string"
            },
            {
              "internalType": "string",
              "name": "youtubeUrl",
              "type": "string"
            },
            {
              "internalType": "string",
              "name": "hash",
              "type": "string"
            }
          ],
          "internalType": "struct Donation.User",
          "name": "user",
          "type": "tuple"
        },
        {
          "internalType": "uint256",
          "name": "donersCount",
          "type": "uint256"
        },
        {
          "internalType": "uint256",
          "name": "donationsRaised",
          "type": "uint256"
        },
        {
          "internalType": "uint256",
          "name": "startDate",
          "type": "uint256"
        },
        {
          "internalType": "uint256",
          "name": "endDate",
          "type": "uint256"
        },
        {
          "internalType": "uint256",
          "name": "targetedAmount",
          "type": "uint256"
        },
        {
          "internalType": "string",
          "name": "category",
          "type": "string"
        },
        {
          "internalType": "string",
          "name": "title",
          "type": "string"
        },
        {
          "internalType": "string",
          "name": "hash",
          "type": "string"
        },
        {
          "internalType": "string",
          "name": "purpose",
          "type": "string"
        },
        {
          "internalType": "string",
          "name": "description",
          "type": "string"
        },
        {
          "components": [
            {
              "internalType": "bool",
              "name": "completed",
              "type": "bool"
            },
            {
              "internalType": "bool",
              "name": "isPinned",
              "type": "bool"
            },
            {
              "internalType": "uint256",
              "name": "pinnedDuration",
              "type": "uint256"
            },
            {
              "internalType": "uint256",
              "name": "pinnedEndDate",
              "type": "uint256"
            },
            {
              "internalType": "bool",
              "name": "isVisible",
              "type": "bool"
            },
            {
              "internalType": "bool",
              "name": "isApproved",
              "type": "bool"
            },
            {
              "internalType": "uint256",
              "name": "approvedDate",
              "type": "uint256"
            },
            {
              "internalType": "bool",
              "name": "isRejected",
              "type": "bool"
            }
          ],
          "internalType": "struct Donation.DonationStatus",
          "name": "donationstatus",
          "type": "tuple"
        }
      ],
      "stateMutability": "view",
      "type": "function"
    },
    {
      "inputs": [],
      "name": "isUserRegistered",
      "outputs": [
        {
          "components": [
            {
              "internalType": "bool",
              "name": "status",
              "type": "bool"
            },
            {
              "internalType": "string",
              "name": "userType",
              "type": "string"
            },
            {
              "internalType": "uint256",
              "name": "id",
              "type": "uint256"
            }
          ],
          "internalType": "struct Donation.IsRegistered",
          "name": "",
          "type": "tuple"
        }
      ],
      "stateMutability": "view",
      "type": "function"
    },
    {
      "inputs": [
        {
          "internalType": "uint256",
          "name": "_id",
          "type": "uint256"
        },
        {
          "internalType": "uint256",
          "name": "_duration",
          "type": "uint256"
        },
        {
          "internalType": "uint256",
          "name": "_pinnedEndDate",
          "type": "uint256"
        }
      ],
      "name": "pinDonation",
      "outputs": [],
      "stateMutability": "payable",
      "type": "function"
    },
    {
      "inputs": [
        {
          "internalType": "address",
          "name": "",
          "type": "address"
        }
      ],
      "name": "registeredUsers",
      "outputs": [
        {
          "internalType": "bool",
          "name": "status",
          "type": "bool"
        },
        {
          "internalType": "string",
          "name": "userType",
          "type": "string"
        },
        {
          "internalType": "uint256",
          "name": "id",
          "type": "uint256"
        }
      ],
      "stateMutability": "view",
      "type": "function"
    },
    {
      "inputs": [
        {
          "internalType": "uint256",
          "name": "_id",
          "type": "uint256"
        }
      ],
      "name": "rejectDonation",
      "outputs": [],
      "stateMutability": "nonpayable",
      "type": "function"
    },
    {
      "inputs": [
        {
          "internalType": "uint256",
          "name": "",
          "type": "uint256"
        }
      ],
      "name": "users",
      "outputs": [
        {
          "internalType": "uint256",
          "name": "id",
          "type": "uint256"
        },
        {
          "internalType": "address",
          "name": "_address",
          "type": "address"
        },
        {
          "internalType": "string",
          "name": "userType",
          "type": "string"
        },
        {
          "internalType": "string",
          "name": "country",
          "type": "string"
        },
        {
          "internalType": "string",
          "name": "city",
          "type": "string"
        },
        {
          "internalType": "string",
          "name": "email",
          "type": "string"
        },
        {
          "internalType": "string",
          "name": "residenceAddress",
          "type": "string"
        },
        {
          "internalType": "bool",
          "name": "isRegistered",
          "type": "bool"
        },
        {
          "internalType": "string",
          "name": "website",
          "type": "string"
        },
        {
          "internalType": "string",
          "name": "facebookUrl",
          "type": "string"
        },
        {
          "internalType": "string",
          "name": "twitterUrl",
          "type": "string"
        },
        {
          "internalType": "string",
          "name": "instagramUrl",
          "type": "string"
        },
        {
          "internalType": "string",
          "name": "youtubeUrl",
          "type": "string"
        },
        {
          "internalType": "string",
          "name": "hash",
          "type": "string"
        }
      ],
      "stateMutability": "view",
      "type": "function"
    },
    {
      "inputs": [],
      "name": "usersCount",
      "outputs": [
        {
          "internalType": "uint256",
          "name": "",
          "type": "uint256"
        }
      ],
      "stateMutability": "view",
      "type": "function"
    }
  ],
  "bytecode": "0x608060405260006006556000600755600060085560006009553480156200002557600080fd5b50604051620067763803806200677683398101604081905262000048916200008b565b600580546001600160a01b039092166001600160a01b031992831617905560008054909116739326bfa02add2366b30bacb125260af641031331179055620000bb565b6000602082840312156200009d578081fd5b81516001600160a01b0381168114620000b4578182fd5b9392505050565b6166ab80620000cb6000396000f3fe6080604052600436106101665760003560e01c80637b3e5e7b116100d1578063bb27e0ce1161008a578063cac83cb111610064578063cac83cb11461045d578063d8251a141461047d578063e2842d7914610490578063ef07a81f146104a557600080fd5b8063bb27e0ce14610415578063c69f34a31461042a578063c6e251a91461044a57600080fd5b80637b3e5e7b1461037e578063873138f314610394578063883b532b146103b65780638e15f473146103cb57806390e4a130146103e05780639534b3bf146103f557600080fd5b806343ae959c1161012357806343ae959c1461027257806351c7bd4b14610288578063568fefbf146102a85780635fc2a547146103265780636ba13a82146103535780636d1af0181461036957600080fd5b80630e50cee51461016b5780632abfab4d146101a357806332536a53146101c7578063365b98b2146101dc5780633776eac6146102165780633f27607d14610238575b600080fd5b34801561017757600080fd5b5061018b610186366004615c36565b6104d2565b60405161019a93929190616286565b60405180910390f35b3480156101af57600080fd5b506101b960075481565b60405190815260200161019a565b6101da6101d5366004615e1a565b610581565b005b3480156101e857600080fd5b506101fc6101f7366004615de1565b6109c4565b60405161019a9e9d9c9b9a99989796959493929190616432565b34801561022257600080fd5b5061022b611014565b60405161019a91906161b8565b34801561024457600080fd5b50610258610253366004615de1565b611b6a565b60405161019a9e9d9c9b9a9998979695949392919061635f565b34801561027e57600080fd5b506101b960065481565b34801561029457600080fd5b506101da6102a3366004615de1565b61256d565b3480156102b457600080fd5b506102fd6102c3366004615df9565b600260208181526000938452604080852090915291835291208054600182015492820154600390920154909291906001600160a01b031684565b604080519485526020850193909352918301526001600160a01b0316606082015260800161019a565b34801561033257600080fd5b50610346610341366004615de1565b61294b565b60405161019a9190616219565b34801561035f57600080fd5b506101b960085481565b34801561037557600080fd5b506009546101b9565b34801561038a57600080fd5b506101b960095481565b3480156103a057600080fd5b506103a9612ab4565b60405161019a9190616321565b3480156103c257600080fd5b506006546101b9565b3480156103d757600080fd5b506101b9612bfa565b3480156103ec57600080fd5b5061022b612ce0565b34801561040157600080fd5b506101b9610410366004615de1565b61388a565b34801561042157600080fd5b506101b96138b9565b34801561043657600080fd5b506101da610445366004615de1565b61394b565b6101da610458366004615c52565b613a48565b34801561046957600080fd5b506101da610478366004615de1565b614455565b6101da61048b366004615de1565b6144f0565b34801561049c57600080fd5b506008546101b9565b3480156104b157600080fd5b506104c56104c0366004615de1565b614aeb565b60405161019a919061630e565b6004602052600090815260409020805460018201805460ff90921692916104f8906165de565b80601f0160208091040260200160405190810160405280929190818152602001828054610524906165de565b80156105715780601f1061054657610100808354040283529160200191610571565b820191906000526020600020905b81548152906001019060200180831161055457829003601f168201915b5050505050908060020154905083565b60008311801561059357506007548311155b6105b85760405162461bcd60e51b81526004016105af906162df565b60405180910390fd5b6000838152600160205260409020601a810154610100900460ff16156105dd57600080fd5b601d81015460ff6101009091041615156001146105f957600080fd5b601c810154421161060957600080fd5b6005546040516001600160a01b039091169081903480156108fc02916000818181858888f19350505050158015610644573d6000803e3d6000fd5b50601b8201849055601c8201839055601a8201805461ff0019166101001790556000858152600160208190526040909120835481558184015491810180546001600160a01b03199081166001600160a01b03948516179091556002808601805491840191825560038088015490850180549094169516949094179091556004808601805487959392850191906106d9906165de565b6106e4929190615682565b5060038201816003019080546106f9906165de565b610704929190615682565b506004820181600401908054610719906165de565b610724929190615682565b506005820181600501908054610739906165de565b610744929190615682565b506006820181600601908054610759906165de565b610764929190615682565b50600782810154908201805460ff191660ff90921615159190911790556008808301805491830191610795906165de565b6107a0929190615682565b5060098201816009019080546107b5906165de565b6107c0929190615682565b50600a820181600a019080546107d5906165de565b6107e0929190615682565b50600b820181600b019080546107f5906165de565b610800929190615682565b50600c820181600c01908054610815906165de565b610820929190615682565b50600d820181600d01908054610835906165de565b610840929190615682565b50505060108201548160100155601182015481601101556012820154816012015560138201548160130155601482015481601401556015820181601501908054610889906165de565b610894929190615682565b5060168201816016019080546108a9906165de565b6108b4929190615682565b5060178201816017019080546108c9906165de565b6108d4929190615682565b5060188201816018019080546108e9906165de565b6108f4929190615682565b506019820181601901908054610909906165de565b610914929190615682565b50601a8281018054918301805460ff938416151560ff198083168217845593546101009081900486161515810261ff001992831661ffff199485161717909355601b8088015490870155601c8088015490870155601d808801805491880180549288161515838816811782559154869004881615159095029216921691909117179055601e8085015490840155601f93840154939092018054939091161515929091169190911790555050505050565b60036020526000908152604090208054600182015460028301805492936001600160a01b03909216926109f6906165de565b80601f0160208091040260200160405190810160405280929190818152602001828054610a22906165de565b8015610a6f5780601f10610a4457610100808354040283529160200191610a6f565b820191906000526020600020905b815481529060010190602001808311610a5257829003601f168201915b505050505090806003018054610a84906165de565b80601f0160208091040260200160405190810160405280929190818152602001828054610ab0906165de565b8015610afd5780601f10610ad257610100808354040283529160200191610afd565b820191906000526020600020905b815481529060010190602001808311610ae057829003601f168201915b505050505090806004018054610b12906165de565b80601f0160208091040260200160405190810160405280929190818152602001828054610b3e906165de565b8015610b8b5780601f10610b6057610100808354040283529160200191610b8b565b820191906000526020600020905b815481529060010190602001808311610b6e57829003601f168201915b505050505090806005018054610ba0906165de565b80601f0160208091040260200160405190810160405280929190818152602001828054610bcc906165de565b8015610c195780601f10610bee57610100808354040283529160200191610c19565b820191906000526020600020905b815481529060010190602001808311610bfc57829003601f168201915b505050505090806006018054610c2e906165de565b80601f0160208091040260200160405190810160405280929190818152602001828054610c5a906165de565b8015610ca75780601f10610c7c57610100808354040283529160200191610ca7565b820191906000526020600020905b815481529060010190602001808311610c8a57829003601f168201915b5050506007840154600885018054949560ff909216949193509150610ccb906165de565b80601f0160208091040260200160405190810160405280929190818152602001828054610cf7906165de565b8015610d445780601f10610d1957610100808354040283529160200191610d44565b820191906000526020600020905b815481529060010190602001808311610d2757829003601f168201915b505050505090806009018054610d59906165de565b80601f0160208091040260200160405190810160405280929190818152602001828054610d85906165de565b8015610dd25780601f10610da757610100808354040283529160200191610dd2565b820191906000526020600020905b815481529060010190602001808311610db557829003601f168201915b50505050509080600a018054610de7906165de565b80601f0160208091040260200160405190810160405280929190818152602001828054610e13906165de565b8015610e605780601f10610e3557610100808354040283529160200191610e60565b820191906000526020600020905b815481529060010190602001808311610e4357829003601f168201915b50505050509080600b018054610e75906165de565b80601f0160208091040260200160405190810160405280929190818152602001828054610ea1906165de565b8015610eee5780601f10610ec357610100808354040283529160200191610eee565b820191906000526020600020905b815481529060010190602001808311610ed157829003601f168201915b50505050509080600c018054610f03906165de565b80601f0160208091040260200160405190810160405280929190818152602001828054610f2f906165de565b8015610f7c5780601f10610f5157610100808354040283529160200191610f7c565b820191906000526020600020905b815481529060010190602001808311610f5f57829003601f168201915b50505050509080600d018054610f91906165de565b80601f0160208091040260200160405190810160405280929190818152602001828054610fbd906165de565b801561100a5780601f10610fdf5761010080835404028352916020019161100a565b820191906000526020600020905b815481529060010190602001808311610fed57829003601f168201915b505050505090508e565b6007546060906000808267ffffffffffffffff81111561104457634e487b7160e01b600052604160045260246000fd5b60405190808252806020026020018201604052801561107d57816020015b61106a615709565b8152602001906001900390816110625790505b50905060005b83811015611b6257600160006110998383616570565b81526020810191909152604001600020601d015460ff61010090910416151560011415611b505760006110cd826001616570565b60008181526001602081815260409283902083516101c0808201865282548252938201546001600160a01b0390811682850152855194850186526002830180548652600384015490911693850193909352600482018054969750919590948694868201949093909291840191611142906165de565b80601f016020809104026020016040519081016040528092919081815260200182805461116e906165de565b80156111bb5780601f10611190576101008083540402835291602001916111bb565b820191906000526020600020905b81548152906001019060200180831161119e57829003601f168201915b505050505081526020016003820180546111d4906165de565b80601f0160208091040260200160405190810160405280929190818152602001828054611200906165de565b801561124d5780601f106112225761010080835404028352916020019161124d565b820191906000526020600020905b81548152906001019060200180831161123057829003601f168201915b50505050508152602001600482018054611266906165de565b80601f0160208091040260200160405190810160405280929190818152602001828054611292906165de565b80156112df5780601f106112b4576101008083540402835291602001916112df565b820191906000526020600020905b8154815290600101906020018083116112c257829003601f168201915b505050505081526020016005820180546112f8906165de565b80601f0160208091040260200160405190810160405280929190818152602001828054611324906165de565b80156113715780601f1061134657610100808354040283529160200191611371565b820191906000526020600020905b81548152906001019060200180831161135457829003601f168201915b5050505050815260200160068201805461138a906165de565b80601f01602080910402602001604051908101604052809291908181526020018280546113b6906165de565b80156114035780601f106113d857610100808354040283529160200191611403565b820191906000526020600020905b8154815290600101906020018083116113e657829003601f168201915b5050509183525050600782015460ff161515602082015260088201805460409092019161142f906165de565b80601f016020809104026020016040519081016040528092919081815260200182805461145b906165de565b80156114a85780601f1061147d576101008083540402835291602001916114a8565b820191906000526020600020905b81548152906001019060200180831161148b57829003601f168201915b505050505081526020016009820180546114c1906165de565b80601f01602080910402602001604051908101604052809291908181526020018280546114ed906165de565b801561153a5780601f1061150f5761010080835404028352916020019161153a565b820191906000526020600020905b81548152906001019060200180831161151d57829003601f168201915b50505050508152602001600a82018054611553906165de565b80601f016020809104026020016040519081016040528092919081815260200182805461157f906165de565b80156115cc5780601f106115a1576101008083540402835291602001916115cc565b820191906000526020600020905b8154815290600101906020018083116115af57829003601f168201915b50505050508152602001600b820180546115e5906165de565b80601f0160208091040260200160405190810160405280929190818152602001828054611611906165de565b801561165e5780601f106116335761010080835404028352916020019161165e565b820191906000526020600020905b81548152906001019060200180831161164157829003601f168201915b50505050508152602001600c82018054611677906165de565b80601f01602080910402602001604051908101604052809291908181526020018280546116a3906165de565b80156116f05780601f106116c5576101008083540402835291602001916116f0565b820191906000526020600020905b8154815290600101906020018083116116d357829003601f168201915b50505050508152602001600d82018054611709906165de565b80601f0160208091040260200160405190810160405280929190818152602001828054611735906165de565b80156117825780601f1061175757610100808354040283529160200191611782565b820191906000526020600020905b81548152906001019060200180831161176557829003601f168201915b505050505081525050815260200160108201548152602001601182015481526020016012820154815260200160138201548152602001601482015481526020016015820180546117d1906165de565b80601f01602080910402602001604051908101604052809291908181526020018280546117fd906165de565b801561184a5780601f1061181f5761010080835404028352916020019161184a565b820191906000526020600020905b81548152906001019060200180831161182d57829003601f168201915b50505050508152602001601682018054611863906165de565b80601f016020809104026020016040519081016040528092919081815260200182805461188f906165de565b80156118dc5780601f106118b1576101008083540402835291602001916118dc565b820191906000526020600020905b8154815290600101906020018083116118bf57829003601f168201915b505050505081526020016017820180546118f5906165de565b80601f0160208091040260200160405190810160405280929190818152602001828054611921906165de565b801561196e5780601f106119435761010080835404028352916020019161196e565b820191906000526020600020905b81548152906001019060200180831161195157829003601f168201915b50505050508152602001601882018054611987906165de565b80601f01602080910402602001604051908101604052809291908181526020018280546119b3906165de565b8015611a005780601f106119d557610100808354040283529160200191611a00565b820191906000526020600020905b8154815290600101906020018083116119e357829003601f168201915b50505050508152602001601982018054611a19906165de565b80601f0160208091040260200160405190810160405280929190818152602001828054611a45906165de565b8015611a925780601f10611a6757610100808354040283529160200191611a92565b820191906000526020600020905b815481529060010190602001808311611a7557829003601f168201915b5050509183525050604080516101008082018352601a85015460ff808216151584529082900481161515602084810191909152601b87015494840194909452601c8601546060840152601d86015480821615156080850152919091048116151560a0830152601e85015460c0830152601f90940154909316151560e084015201528451859087908110611b3557634e487b7160e01b600052603260045260246000fd5b6020908102919091010152611b4b600186616570565b945050505b80611b5a81616619565b915050611083565b509392505050565b60016020818152600092835260409283902080549281015484516101c081018652600283018054825260038401546001600160a01b0390811695830195909552600484018054969795909316959394919390929184019190611bcb906165de565b80601f0160208091040260200160405190810160405280929190818152602001828054611bf7906165de565b8015611c445780601f10611c1957610100808354040283529160200191611c44565b820191906000526020600020905b815481529060010190602001808311611c2757829003601f168201915b50505050508152602001600382018054611c5d906165de565b80601f0160208091040260200160405190810160405280929190818152602001828054611c89906165de565b8015611cd65780601f10611cab57610100808354040283529160200191611cd6565b820191906000526020600020905b815481529060010190602001808311611cb957829003601f168201915b50505050508152602001600482018054611cef906165de565b80601f0160208091040260200160405190810160405280929190818152602001828054611d1b906165de565b8015611d685780601f10611d3d57610100808354040283529160200191611d68565b820191906000526020600020905b815481529060010190602001808311611d4b57829003601f168201915b50505050508152602001600582018054611d81906165de565b80601f0160208091040260200160405190810160405280929190818152602001828054611dad906165de565b8015611dfa5780601f10611dcf57610100808354040283529160200191611dfa565b820191906000526020600020905b815481529060010190602001808311611ddd57829003601f168201915b50505050508152602001600682018054611e13906165de565b80601f0160208091040260200160405190810160405280929190818152602001828054611e3f906165de565b8015611e8c5780601f10611e6157610100808354040283529160200191611e8c565b820191906000526020600020905b815481529060010190602001808311611e6f57829003601f168201915b5050509183525050600782015460ff1615156020820152600882018054604090920191611eb8906165de565b80601f0160208091040260200160405190810160405280929190818152602001828054611ee4906165de565b8015611f315780601f10611f0657610100808354040283529160200191611f31565b820191906000526020600020905b815481529060010190602001808311611f1457829003601f168201915b50505050508152602001600982018054611f4a906165de565b80601f0160208091040260200160405190810160405280929190818152602001828054611f76906165de565b8015611fc35780601f10611f9857610100808354040283529160200191611fc3565b820191906000526020600020905b815481529060010190602001808311611fa657829003601f168201915b50505050508152602001600a82018054611fdc906165de565b80601f0160208091040260200160405190810160405280929190818152602001828054612008906165de565b80156120555780601f1061202a57610100808354040283529160200191612055565b820191906000526020600020905b81548152906001019060200180831161203857829003601f168201915b50505050508152602001600b8201805461206e906165de565b80601f016020809104026020016040519081016040528092919081815260200182805461209a906165de565b80156120e75780601f106120bc576101008083540402835291602001916120e7565b820191906000526020600020905b8154815290600101906020018083116120ca57829003601f168201915b50505050508152602001600c82018054612100906165de565b80601f016020809104026020016040519081016040528092919081815260200182805461212c906165de565b80156121795780601f1061214e57610100808354040283529160200191612179565b820191906000526020600020905b81548152906001019060200180831161215c57829003601f168201915b50505050508152602001600d82018054612192906165de565b80601f01602080910402602001604051908101604052809291908181526020018280546121be906165de565b801561220b5780601f106121e05761010080835404028352916020019161220b565b820191906000526020600020905b8154815290600101906020018083116121ee57829003601f168201915b50505050508152505090806010015490806011015490806012015490806013015490806014015490806015018054612242906165de565b80601f016020809104026020016040519081016040528092919081815260200182805461226e906165de565b80156122bb5780601f10612290576101008083540402835291602001916122bb565b820191906000526020600020905b81548152906001019060200180831161229e57829003601f168201915b5050505050908060160180546122d0906165de565b80601f01602080910402602001604051908101604052809291908181526020018280546122fc906165de565b80156123495780601f1061231e57610100808354040283529160200191612349565b820191906000526020600020905b81548152906001019060200180831161232c57829003601f168201915b50505050509080601701805461235e906165de565b80601f016020809104026020016040519081016040528092919081815260200182805461238a906165de565b80156123d75780601f106123ac576101008083540402835291602001916123d7565b820191906000526020600020905b8154815290600101906020018083116123ba57829003601f168201915b5050505050908060180180546123ec906165de565b80601f0160208091040260200160405190810160405280929190818152602001828054612418906165de565b80156124655780601f1061243a57610100808354040283529160200191612465565b820191906000526020600020905b81548152906001019060200180831161244857829003601f168201915b50505050509080601901805461247a906165de565b80601f01602080910402602001604051908101604052809291908181526020018280546124a6906165de565b80156124f35780601f106124c8576101008083540402835291602001916124f3565b820191906000526020600020905b8154815290600101906020018083116124d657829003601f168201915b5050604080516101008082018352601a88015460ff8082161515845290829004811615156020840152601b89015493830193909352601c8801546060830152601d88015480841615156080840152048216151560a0820152601e87015460c0820152601f9096015416151560e086015250919291508f9050565b60008111801561257f57506007548111155b61259b5760405162461bcd60e51b81526004016105af906162df565b6000818152600160205260409020601d810154610100900460ff16156125c057600080fd5b601d81015460ff16156125d257600080fd5b601d8101805461ffff19169055601f8101805460ff191660019081179091556000838152602082905260409020825481558183015491810180546001600160a01b03199081166001600160a01b0394851617909155600280850180549184019182556003808701549085018054909416951694909417909155600480850180548695939285019190612663906165de565b61266e929190615682565b506003820181600301908054612683906165de565b61268e929190615682565b5060048201816004019080546126a3906165de565b6126ae929190615682565b5060058201816005019080546126c3906165de565b6126ce929190615682565b5060068201816006019080546126e3906165de565b6126ee929190615682565b50600782810154908201805460ff191660ff9092161515919091179055600880830180549183019161271f906165de565b61272a929190615682565b50600982018160090190805461273f906165de565b61274a929190615682565b50600a820181600a0190805461275f906165de565b61276a929190615682565b50600b820181600b0190805461277f906165de565b61278a929190615682565b50600c820181600c0190805461279f906165de565b6127aa929190615682565b50600d820181600d019080546127bf906165de565b6127ca929190615682565b50505060108201548160100155601182015481601101556012820154816012015560138201548160130155601482015481601401556015820181601501908054612813906165de565b61281e929190615682565b506016820181601601908054612833906165de565b61283e929190615682565b506017820181601701908054612853906165de565b61285e929190615682565b506018820181601801908054612873906165de565b61287e929190615682565b506019820181601901908054612893906165de565b61289e929190615682565b50601a8281018054918301805460ff938416151560ff198083168217845593546101009081900486161515810261ff001992831661ffff199485161717909355601b8088015490870155601c8088015490870155601d808801805491880180549288161515838816811782559154869004881615159095029216921691909117179055601e8085015490840155601f93840154939092018054939091161515929091169190911790555050565b600081815260016020526040812060100154606091808267ffffffffffffffff81111561298857634e487b7160e01b600052604160045260246000fd5b6040519080825280602002602001820160405280156129ed57816020015b6129da604051806080016040528060008152602001600081526020016000815260200160006001600160a01b031681525090565b8152602001906001900390816129a65790505b50905060005b83811015612aab576000612a08826001616570565b6000888152600260208181526040808420858552825292839020835160808101855281548152600182015492810192909252918201549281019290925260038101546001600160a01b03166060830152855192935091859087908110612a7e57634e487b7160e01b600052603260045260246000fd5b6020908102919091010152612a94600186616570565b945050508080612aa390616619565b9150506129f3565b50949350505050565b612ada604051806060016040528060001515815260200160608152602001600081525090565b3360009081526004602052604090205460ff16151560011415612bc15733600090815260046020908152604091829020825160608101909352805460ff16151583526001810180549192840191612b30906165de565b80601f0160208091040260200160405190810160405280929190818152602001828054612b5c906165de565b8015612ba95780601f10612b7e57610100808354040283529160200191612ba9565b820191906000526020600020905b815481529060010190602001808311612b8c57829003601f168201915b50505050508152602001600282015481525050905090565b33600090815260046020908152604091829020825160608101909352805460ff16151583526001810180549192840191612b30906165de565b60008060008060008060008054906101000a90046001600160a01b03166001600160a01b031663feaf968c6040518163ffffffff1660e01b815260040160a06040518083038186803b158015612c4f57600080fd5b505afa158015612c63573d6000803e3d6000fd5b505050506040513d601f19601f82011682018060405250810190612c879190615e45565b9450945094509450945060008211612cd65760405162461bcd60e51b8152602060048201526012602482015271526f756e64206e6f7420636f6d706c65746560701b60448201526064016105af565b5091949350505050565b600754606090600080805b83811015612d45573360016000612d028483616570565b81526020810191909152604001600020600301546001600160a01b03161415612d3357612d30600184616570565b92505b80612d3d81616619565b915050612ceb565b5060008267ffffffffffffffff811115612d6f57634e487b7160e01b600052604160045260246000fd5b604051908082528060200260200182016040528015612da857816020015b612d95615709565b815260200190600190039081612d8d5790505b50905060005b84811015612aab573360016000612dc58483616570565b81526020810191909152604001600020600301546001600160a01b03161415613878576000612df5826001616570565b60008181526001602081815260409283902083516101c0808201865282548252938201546001600160a01b0390811682850152855194850186526002830180548652600384015490911693850193909352600482018054969750919590948694868201949093909291840191612e6a906165de565b80601f0160208091040260200160405190810160405280929190818152602001828054612e96906165de565b8015612ee35780601f10612eb857610100808354040283529160200191612ee3565b820191906000526020600020905b815481529060010190602001808311612ec657829003601f168201915b50505050508152602001600382018054612efc906165de565b80601f0160208091040260200160405190810160405280929190818152602001828054612f28906165de565b8015612f755780601f10612f4a57610100808354040283529160200191612f75565b820191906000526020600020905b815481529060010190602001808311612f5857829003601f168201915b50505050508152602001600482018054612f8e906165de565b80601f0160208091040260200160405190810160405280929190818152602001828054612fba906165de565b80156130075780601f10612fdc57610100808354040283529160200191613007565b820191906000526020600020905b815481529060010190602001808311612fea57829003601f168201915b50505050508152602001600582018054613020906165de565b80601f016020809104026020016040519081016040528092919081815260200182805461304c906165de565b80156130995780601f1061306e57610100808354040283529160200191613099565b820191906000526020600020905b81548152906001019060200180831161307c57829003601f168201915b505050505081526020016006820180546130b2906165de565b80601f01602080910402602001604051908101604052809291908181526020018280546130de906165de565b801561312b5780601f106131005761010080835404028352916020019161312b565b820191906000526020600020905b81548152906001019060200180831161310e57829003601f168201915b5050509183525050600782015460ff1615156020820152600882018054604090920191613157906165de565b80601f0160208091040260200160405190810160405280929190818152602001828054613183906165de565b80156131d05780601f106131a5576101008083540402835291602001916131d0565b820191906000526020600020905b8154815290600101906020018083116131b357829003601f168201915b505050505081526020016009820180546131e9906165de565b80601f0160208091040260200160405190810160405280929190818152602001828054613215906165de565b80156132625780601f1061323757610100808354040283529160200191613262565b820191906000526020600020905b81548152906001019060200180831161324557829003601f168201915b50505050508152602001600a8201805461327b906165de565b80601f01602080910402602001604051908101604052809291908181526020018280546132a7906165de565b80156132f45780601f106132c9576101008083540402835291602001916132f4565b820191906000526020600020905b8154815290600101906020018083116132d757829003601f168201915b50505050508152602001600b8201805461330d906165de565b80601f0160208091040260200160405190810160405280929190818152602001828054613339906165de565b80156133865780601f1061335b57610100808354040283529160200191613386565b820191906000526020600020905b81548152906001019060200180831161336957829003601f168201915b50505050508152602001600c8201805461339f906165de565b80601f01602080910402602001604051908101604052809291908181526020018280546133cb906165de565b80156134185780601f106133ed57610100808354040283529160200191613418565b820191906000526020600020905b8154815290600101906020018083116133fb57829003601f168201915b50505050508152602001600d82018054613431906165de565b80601f016020809104026020016040519081016040528092919081815260200182805461345d906165de565b80156134aa5780601f1061347f576101008083540402835291602001916134aa565b820191906000526020600020905b81548152906001019060200180831161348d57829003601f168201915b505050505081525050815260200160108201548152602001601182015481526020016012820154815260200160138201548152602001601482015481526020016015820180546134f9906165de565b80601f0160208091040260200160405190810160405280929190818152602001828054613525906165de565b80156135725780601f1061354757610100808354040283529160200191613572565b820191906000526020600020905b81548152906001019060200180831161355557829003601f168201915b5050505050815260200160168201805461358b906165de565b80601f01602080910402602001604051908101604052809291908181526020018280546135b7906165de565b80156136045780601f106135d957610100808354040283529160200191613604565b820191906000526020600020905b8154815290600101906020018083116135e757829003601f168201915b5050505050815260200160178201805461361d906165de565b80601f0160208091040260200160405190810160405280929190818152602001828054613649906165de565b80156136965780601f1061366b57610100808354040283529160200191613696565b820191906000526020600020905b81548152906001019060200180831161367957829003601f168201915b505050505081526020016018820180546136af906165de565b80601f01602080910402602001604051908101604052809291908181526020018280546136db906165de565b80156137285780601f106136fd57610100808354040283529160200191613728565b820191906000526020600020905b81548152906001019060200180831161370b57829003601f168201915b50505050508152602001601982018054613741906165de565b80601f016020809104026020016040519081016040528092919081815260200182805461376d906165de565b80156137ba5780601f1061378f576101008083540402835291602001916137ba565b820191906000526020600020905b81548152906001019060200180831161379d57829003601f168201915b5050509183525050604080516101008082018352601a85015460ff808216151584529082900481161515602084810191909152601b87015494840194909452601c8601546060840152601d86015480821615156080850152919091048116151560a0830152601e85015460c0830152601f90940154909316151560e08401520152845185908790811061385d57634e487b7160e01b600052603260045260246000fd5b6020908102919091010152613873600186616570565b945050505b8061388281616619565b915050612dae565b6000806138956138b9565b90506138b2816138ac85662386f26fc10000615556565b90615562565b9392505050565b6000805460408051633fabe5a360e21b8152905183926001600160a01b03169163feaf968c9160048083019260a0929190829003018186803b1580156138fe57600080fd5b505afa158015613912573d6000803e3d6000fd5b505050506040513d601f19601f820116820180604052508101906139369190615e45565b5050509150506139458161556e565b91505090565b60008111801561395d57506007548111155b6139795760405162461bcd60e51b81526004016105af906162df565b6000818152600160205260409020601d810154610100900460ff161561399e57600080fd5b601d81015460ff16156139b057600080fd5b601d8101805461ffff1916610101179055601f8101805460ff1916905542601e8201556000828152600160208190526040909120825481558183015491810180546001600160a01b039384166001600160a01b031991821617909155600280850180549184019182556003808701549085018054919096169316929092179093556004808501805486959285019190612663906165de565b60008261014001515111613a975760405162461bcd60e51b8152602060048201526016602482015275125b5859d94812185cda081a5cc81c995c5d5a5c995960521b60448201526064016105af565b60008261018001515111613aed5760405162461bcd60e51b815260206004820152601760248201527f4465736372697074696f6e20697320726571756972656400000000000000000060448201526064016105af565b60008261010001515111613b3a5760405162461bcd60e51b815260206004820152601460248201527310d85d1959dbdc9e481a5cc81c995c5d5a5c995960621b60448201526064016105af565b60008261012001515111613b845760405162461bcd60e51b8152602060048201526011602482015270151a5d1b19481a5cc81c995c5d5a5c9959607a1b60448201526064016105af565b33613b8e57600080fd5b60078054906000613b9e83616619565b9091555050600754600081815260016020818152604080842094855591840180546001600160a01b0319163390811790915583526004905290205460ff1661404c57600854613bee906001616570565b600881905560028201556003810180546001600160a01b0319163317905560408084015101518051613c2a91600484019160209091019061584b565b506040830151606001518051613c4a91600584019160209091019061584b565b506040830151608001518051613c6a91600684019160209091019061584b565b50604083015160a001518051613c8a91600784019160209091019061584b565b50604083015160c001518051613caa91600884019160209091019061584b565b5060098101805460ff19166001179055604083015161010001518051613cda91600a84019160209091019061584b565b50604083015161012001518051613cfb91600b84019160209091019061584b565b50604083015161014001518051613d1c91600c84019160209091019061584b565b50604083015161016001518051613d3d91600d84019160209091019061584b565b50604083015161018001518051613d5e91600e84019160209091019061584b565b5060408301516101a001518051613d7f91600f84019160209091019061584b565b50600880546000818152600360209081526040808320938455600190930180546001600160a01b0319163317905586830151830151935482529190208251613dd193600290920192919091019061584b565b5060408084015160600151600854600090815260036020818152939091208251613e01949190920192019061584b565b508260400151608001516003600060085481526020019081526020016000206004019080519060200190613e3692919061584b565b50826040015160a001516003600060085481526020019081526020016000206005019080519060200190613e6b92919061584b565b50826040015160c001516003600060085481526020019081526020016000206006019080519060200190613ea092919061584b565b50600880546000908152600360209081526040808320600701805460ff191660011790558681015161010001518454845292208251613ee79491909101929091019061584b565b50826040015161012001516003600060085481526020019081526020016000206009019080519060200190613f1d92919061584b565b5082604001516101400151600360006008548152602001908152602001600020600a019080519060200190613f5392919061584b565b5082604001516101600151600360006008548152602001908152602001600020600b019080519060200190613f8992919061584b565b5082604001516101800151600360006008548152602001908152602001600020600c019080519060200190613fbf92919061584b565b5082604001516101a00151600360006008548152602001908152602001600020600d019080519060200190613ff592919061584b565b5033600090815260046020908152604091829020805460ff19166001908117825586840151909301518051614030949290920192019061584b565b506008543360009081526004602052604090206002015561433e565b614055826155c4565b6141216040518060400160405280600c81526020016b7573657220636f756e74727960a01b81525060036000858152602001908152602001600020600301805461409e906165de565b80601f01602080910402602001604051908101604052809291908181526020018280546140ca906165de565b80156141175780601f106140ec57610100808354040283529160200191614117565b820191906000526020600020905b8154815290600101906020018083116140fa57829003601f168201915b505050505061560c565b6000828152600360208190526040909120805460028085019190915591830180546001600160a01b03191633179055018054600483019190614162906165de565b61416d929190615682565b506000828152600360208190526040909120018054600583019190614191906165de565b61419c929190615682565b50600082815260036020526040902060040180546006830191906141bf906165de565b6141ca929190615682565b50600082815260036020526040902060050180546007830191906141ed906165de565b6141f8929190615682565b506000828152600360205260409020600601805460088301919061421b906165de565b614226929190615682565b5060098101805460ff1916600117905560008281526003602052604090206008018054600a83019190614258906165de565b614263929190615682565b5060008281526003602052604090206009018054600b83019190614286906165de565b614291929190615682565b506000828152600360205260409020600a018054600c830191906142b4906165de565b6142bf929190615682565b506000828152600360205260409020600b018054600d830191906142e2906165de565b6142ed929190615682565b506000828152600360205260409020600c018054600e83019190614310906165de565b61431b929190615682565b5060408301516101a00151805161433c91600f84019160209091019061584b565b505b600060118201819055601082015542601282015560c0830151601382015560e08301516014820155610100830151805161438291601584019160209091019061584b565b50610120830151805161439f91601684019160209091019061584b565b5061014083015180516143bc91601784019160209091019061584b565b5061010083015180516143d991601584019160209091019061584b565b5061016083015180516143f691601884019160209091019061584b565b50610180830151805161441391601984019160209091019061584b565b50601a8101805461ffff19908116909155601d820180549091169055601f8101805460ff191690556000601e8201819055601b8201819055601c909101555050565b60008111801561446757506007548111155b6144835760405162461bcd60e51b81526004016105af906162df565b6000818152600160208190526040909120601a8101805461ff001916905590810180546001600160a01b03198082166001600160a01b03928316179092556003830180549283169290911691909117905560048101805482918291600283019182918190612663906165de565b60008111801561450257506007548111155b61450b57600080fd5b6000818152600160205260409020601481015460118201541061453857601a8101805460ff191660011790555b60018101546001600160a01b03166011600a60006145568383615562565b9050606460006145668284615562565b905060006145743483615562565b90506001600160a01b0387166108fc61458d3484615655565b6040518115909202916000818181858888f193505050501580156145b5573d6000803e3d6000fd5b506005546040516001600160a01b0390911690819083156108fc029084906000818181858888f193505050501580156145f2573d6000803e3d6000fd5b50346009546146019190616570565b6009556011890154614614903490616570565b60118a01556010890154614629906001616570565b60108a01556006805490600061463e83616619565b91905055508860100154600260008b60000154815260200190815260200160002060008b6010015481526020019081526020016000206000018190555034600260008b60000154815260200190815260200160002060008b6010015481526020019081526020016000206001018190555042600260008b60000154815260200190815260200160002060008b6010015481526020019081526020016000206002018190555033600260008b60000154815260200190815260200160002060008b60100154815260200190815260200160002060030160006101000a8154816001600160a01b0302191690836001600160a01b0316021790555088600160008c8152602001908152602001600020600082015481600001556001820160009054906101000a90046001600160a01b03168160010160006101000a8154816001600160a01b0302191690836001600160a01b031602179055506002820181600201600082015481600001556001820160009054906101000a90046001600160a01b03168160010160006101000a8154816001600160a01b0302191690836001600160a01b0316021790555060028201816002019080546147fb906165de565b614806929190615682565b50600382018160030190805461481b906165de565b614826929190615682565b50600482018160040190805461483b906165de565b614846929190615682565b50600582018160050190805461485b906165de565b614866929190615682565b50600682018160060190805461487b906165de565b614886929190615682565b50600782810154908201805460ff191660ff909216151591909117905560088083018054918301916148b7906165de565b6148c2929190615682565b5060098201816009019080546148d7906165de565b6148e2929190615682565b50600a820181600a019080546148f7906165de565b614902929190615682565b50600b820181600b01908054614917906165de565b614922929190615682565b50600c820181600c01908054614937906165de565b614942929190615682565b50600d820181600d01908054614957906165de565b614962929190615682565b505050601082015481601001556011820154816011015560128201548160120155601382015481601301556014820154816014015560158201816015019080546149ab906165de565b6149b6929190615682565b5060168201816016019080546149cb906165de565b6149d6929190615682565b5060178201816017019080546149eb906165de565b6149f6929190615682565b506018820181601801908054614a0b906165de565b614a16929190615682565b506019820181601901908054614a2b906165de565b614a36929190615682565b50601a8281018054918301805460ff938416151560ff198083168217845593546101009081900486161515810261ff001992831661ffff199485161717909355601b8088015490870155601c8088015490870155601d808801805491880180549288161515838816811782559154869004881615159095029216921691909117179055601e8085015490840155601f938401549390920180549390911615159290911691909117905550505050505050505050565b614af3615709565b6000828152600160205260409020548214156155515760008281526001602081815260409283902083516101c0808201865282548252938201546001600160a01b03908116828501528551948501865260028301805486526003840154909116938501939093526004820180549195929486840194909390929084019190614b7a906165de565b80601f0160208091040260200160405190810160405280929190818152602001828054614ba6906165de565b8015614bf35780601f10614bc857610100808354040283529160200191614bf3565b820191906000526020600020905b815481529060010190602001808311614bd657829003601f168201915b50505050508152602001600382018054614c0c906165de565b80601f0160208091040260200160405190810160405280929190818152602001828054614c38906165de565b8015614c855780601f10614c5a57610100808354040283529160200191614c85565b820191906000526020600020905b815481529060010190602001808311614c6857829003601f168201915b50505050508152602001600482018054614c9e906165de565b80601f0160208091040260200160405190810160405280929190818152602001828054614cca906165de565b8015614d175780601f10614cec57610100808354040283529160200191614d17565b820191906000526020600020905b815481529060010190602001808311614cfa57829003601f168201915b50505050508152602001600582018054614d30906165de565b80601f0160208091040260200160405190810160405280929190818152602001828054614d5c906165de565b8015614da95780601f10614d7e57610100808354040283529160200191614da9565b820191906000526020600020905b815481529060010190602001808311614d8c57829003601f168201915b50505050508152602001600682018054614dc2906165de565b80601f0160208091040260200160405190810160405280929190818152602001828054614dee906165de565b8015614e3b5780601f10614e1057610100808354040283529160200191614e3b565b820191906000526020600020905b815481529060010190602001808311614e1e57829003601f168201915b5050509183525050600782015460ff1615156020820152600882018054604090920191614e67906165de565b80601f0160208091040260200160405190810160405280929190818152602001828054614e93906165de565b8015614ee05780601f10614eb557610100808354040283529160200191614ee0565b820191906000526020600020905b815481529060010190602001808311614ec357829003601f168201915b50505050508152602001600982018054614ef9906165de565b80601f0160208091040260200160405190810160405280929190818152602001828054614f25906165de565b8015614f725780601f10614f4757610100808354040283529160200191614f72565b820191906000526020600020905b815481529060010190602001808311614f5557829003601f168201915b50505050508152602001600a82018054614f8b906165de565b80601f0160208091040260200160405190810160405280929190818152602001828054614fb7906165de565b80156150045780601f10614fd957610100808354040283529160200191615004565b820191906000526020600020905b815481529060010190602001808311614fe757829003601f168201915b50505050508152602001600b8201805461501d906165de565b80601f0160208091040260200160405190810160405280929190818152602001828054615049906165de565b80156150965780601f1061506b57610100808354040283529160200191615096565b820191906000526020600020905b81548152906001019060200180831161507957829003601f168201915b50505050508152602001600c820180546150af906165de565b80601f01602080910402602001604051908101604052809291908181526020018280546150db906165de565b80156151285780601f106150fd57610100808354040283529160200191615128565b820191906000526020600020905b81548152906001019060200180831161510b57829003601f168201915b50505050508152602001600d82018054615141906165de565b80601f016020809104026020016040519081016040528092919081815260200182805461516d906165de565b80156151ba5780601f1061518f576101008083540402835291602001916151ba565b820191906000526020600020905b81548152906001019060200180831161519d57829003601f168201915b50505050508152505081526020016010820154815260200160118201548152602001601282015481526020016013820154815260200160148201548152602001601582018054615209906165de565b80601f0160208091040260200160405190810160405280929190818152602001828054615235906165de565b80156152825780601f1061525757610100808354040283529160200191615282565b820191906000526020600020905b81548152906001019060200180831161526557829003601f168201915b5050505050815260200160168201805461529b906165de565b80601f01602080910402602001604051908101604052809291908181526020018280546152c7906165de565b80156153145780601f106152e957610100808354040283529160200191615314565b820191906000526020600020905b8154815290600101906020018083116152f757829003601f168201915b5050505050815260200160178201805461532d906165de565b80601f0160208091040260200160405190810160405280929190818152602001828054615359906165de565b80156153a65780601f1061537b576101008083540402835291602001916153a6565b820191906000526020600020905b81548152906001019060200180831161538957829003601f168201915b505050505081526020016018820180546153bf906165de565b80601f01602080910402602001604051908101604052809291908181526020018280546153eb906165de565b80156154385780601f1061540d57610100808354040283529160200191615438565b820191906000526020600020905b81548152906001019060200180831161541b57829003601f168201915b50505050508152602001601982018054615451906165de565b80601f016020809104026020016040519081016040528092919081815260200182805461547d906165de565b80156154ca5780601f1061549f576101008083540402835291602001916154ca565b820191906000526020600020905b8154815290600101906020018083116154ad57829003601f168201915b5050509183525050604080516101008082018352601a85015460ff808216151584529082900481161515602084810191909152601b87015494840194909452601c8601546060840152601d86015480821615156080850152919091048116151560a0830152601e85015460c0830152601f90940154909316151560e0840152015292915050565b919050565b60006138b282846165a8565b60006138b28284616588565b6000808212156155c05760405162461bcd60e51b815260206004820181905260248201527f53616665436173743a2076616c7565206d75737420626520706f73697469766560448201526064016105af565b5090565b615609816040516024016155da91815260200190565b60408051601f198184030181529190526020810180516001600160e01b031663f5b1bba960e01b179052615661565b50565b61565182826040516024016156229291906162b1565b60408051601f198184030181529190526020810180516001600160e01b0316634b5c427760e01b179052615661565b5050565b60006138b282846165c7565b80516a636f6e736f6c652e6c6f67602083016000808483855afa5050505050565b82805461568e906165de565b90600052602060002090601f0160209004810192826156b057600085556156fd565b82601f106156c157805485556156fd565b828001600101855582156156fd57600052602060002091601f016020900482015b828111156156fd5782548255916001019190600101906156e2565b506155c09291506158bf565b604051806101c001604052806000815260200160006001600160a01b031681526020016157a9604051806101c001604052806000815260200160006001600160a01b0316815260200160608152602001606081526020016060815260200160608152602001606081526020016000151581526020016060815260200160608152602001606081526020016060815260200160608152602001606081525090565b8152602001600081526020016000815260200160008152602001600081526020016000815260200160608152602001606081526020016060815260200160608152602001606081526020016158466040518061010001604052806000151581526020016000151581526020016000815260200160008152602001600015158152602001600015158152602001600081526020016000151581525090565b905290565b828054615857906165de565b90600052602060002090601f01602090048101928261587957600085556156fd565b82601f1061589257805160ff19168380011785556156fd565b828001600101855582156156fd579182015b828111156156fd5782518255916020019190600101906158a4565b5b808211156155c057600081556001016158c0565b803561555181616660565b8035801515811461555157600080fd5b600082601f8301126158ff578081fd5b813567ffffffffffffffff8082111561591a5761591a61664a565b604051601f8301601f19908116603f011681019082821181831017156159425761594261664a565b8160405283815286602085880101111561595a578485fd5b8360208701602083013792830160200193909352509392505050565b6000610100808385031215615989578182fd5b6040519081019067ffffffffffffffff821181831017156159ac576159ac61664a565b816040528092506159bc846158df565b81526159ca602085016158df565b602082015260408401356040820152606084013560608201526159ef608085016158df565b6080820152615a0060a085016158df565b60a082015260c084013560c0820152615a1b60e085016158df565b60e0820152505092915050565b60006101c08284031215615a3a578081fd5b615a42616546565b905081358152615a54602083016158d4565b6020820152604082013567ffffffffffffffff80821115615a7457600080fd5b615a80858386016158ef565b60408401526060840135915080821115615a9957600080fd5b615aa5858386016158ef565b60608401526080840135915080821115615abe57600080fd5b615aca858386016158ef565b608084015260a0840135915080821115615ae357600080fd5b615aef858386016158ef565b60a084015260c0840135915080821115615b0857600080fd5b615b14858386016158ef565b60c0840152615b2560e085016158df565b60e084015261010091508184013581811115615b4057600080fd5b615b4c868287016158ef565b838501525061012091508184013581811115615b6757600080fd5b615b73868287016158ef565b838501525061014091508184013581811115615b8e57600080fd5b615b9a868287016158ef565b838501525061016091508184013581811115615bb557600080fd5b615bc1868287016158ef565b838501525061018091508184013581811115615bdc57600080fd5b615be8868287016158ef565b83850152506101a091508184013581811115615c0357600080fd5b615c0f868287016158ef565b8385015250505092915050565b805169ffffffffffffffffffff8116811461555157600080fd5b600060208284031215615c47578081fd5b81356138b281616660565b60008060408385031215615c64578081fd5b823567ffffffffffffffff80821115615c7b578283fd5b908401906102a08287031215615c8f578283fd5b615c97616546565b82358152615ca7602084016158d4565b6020820152604083013582811115615cbd578485fd5b615cc988828601615a28565b604083015250606083013560608201526080830135608082015260a083013560a082015260c083013560c082015260e083013560e08201526101008084013583811115615d14578586fd5b615d20898287016158ef565b8284015250506101208084013583811115615d39578586fd5b615d45898287016158ef565b8284015250506101408084013583811115615d5e578586fd5b615d6a898287016158ef565b8284015250506101608084013583811115615d83578586fd5b615d8f898287016158ef565b8284015250506101808084013583811115615da8578586fd5b615db4898287016158ef565b8284015250506101a09150615dcb87838501615976565b9181019190915295602094909401359450505050565b600060208284031215615df2578081fd5b5035919050565b60008060408385031215615e0b578182fd5b50508035926020909101359150565b600080600060608486031215615e2e578081fd5b505081359360208301359350604090920135919050565b600080600080600060a08688031215615e5c578081fd5b615e6586615c1c565b9450602086015193506040860151925060608601519150615e8860808701615c1c565b90509295509295909350565b60008151808452815b81811015615eb957602081850181015186830182015201615e9d565b81811115615eca5782602083870101525b50601f01601f19169290920160200192915050565b60006102a0825184526020830151615f0260208601826001600160a01b03169052565b506040830151816040860152615f1a82860182616050565b915050606083015160608501526080830151608085015260a083015160a085015260c083015160c085015260e083015160e08501526101008084015185830382870152615f678382615e94565b925050506101208084015185830382870152615f838382615e94565b925050506101408084015185830382870152615f9f8382615e94565b925050506101608084015185830382870152615fbb8382615e94565b925050506101808084015185830382870152615fd78382615e94565b925050506101a080840151615fee82870182615ff8565b5090949350505050565b805115158252602081015115156020830152604081015160408301526060810151606083015260808101511515608083015260a0810151151560a083015260c081015160c083015260e0810151151560e08301525050565b60006101c082518452602083015161607360208601826001600160a01b03169052565b50604083015181604086015261608b82860182615e94565b915050606083015184820360608601526160a58282615e94565b915050608083015184820360808601526160bf8282615e94565b91505060a083015184820360a08601526160d98282615e94565b91505060c083015184820360c08601526160f38282615e94565b91505060e083015161610960e086018215159052565b5061010080840151858303828701526161228382615e94565b92505050610120808401518583038287015261613e8382615e94565b92505050610140808401518583038287015261615a8382615e94565b9250505061016080840151858303828701526161768382615e94565b9250505061018080840151858303828701526161928382615e94565b925050506101a080840151858303828701526161ae8382615e94565b9695505050505050565b6000602080830181845280855180835260408601915060408160051b8701019250838701855b8281101561620c57603f198886030184526161fa858351615edf565b945092850192908501906001016161de565b5092979650505050505050565b602080825282518282018190526000919060409081850190868401855b8281101561627957815180518552868101518786015285810151868601526060908101516001600160a01b03169085015260809093019290850190600101616236565b5091979650505050505050565b83151581526060602082015260006162a16060830185615e94565b9050826040830152949350505050565b6040815260006162c46040830185615e94565b82810360208401526162d68185615e94565b95945050505050565b602080825260159082015274191bdb985d1a5bdb881a59081b9bdd081d985b1a59605a1b604082015260600190565b6020815260006138b26020830184615edf565b6020815281511515602082015260006020830151606060408401526163496080840182615e94565b9050604084015160608401528091505092915050565b8e81526001600160a01b038e1660208201526102a0604082015260006163896102a083018f616050565b8d60608401528c60808401528b60a08401528a60c08401528960e08401528281036101008401526163ba818a615e94565b90508281036101208401526163cf8189615e94565b90508281036101408401526163e48188615e94565b90508281036101608401526163f98187615e94565b905082810361018084015261640e8186615e94565b91505061641f6101a0830184615ff8565b9f9e505050505050505050505050505050565b8e81526001600160a01b038e1660208201526101c06040820152600061645c6101c083018f615e94565b828103606084015261646e818f615e94565b90508281036080840152616482818e615e94565b905082810360a0840152616496818d615e94565b905082810360c08401526164aa818c615e94565b8a151560e085015290508281036101008401526164c7818a615e94565b90508281036101208401526164dc8189615e94565b90508281036101408401526164f18188615e94565b90508281036101608401526165068187615e94565b905082810361018084015261651b8186615e94565b90508281036101a08401526165308185615e94565b9150509f9e505050505050505050505050505050565b6040516101c0810167ffffffffffffffff8111828210171561656a5761656a61664a565b60405290565b6000821982111561658357616583616634565b500190565b6000826165a357634e487b7160e01b81526012600452602481fd5b500490565b60008160001904831182151516156165c2576165c2616634565b500290565b6000828210156165d9576165d9616634565b500390565b600181811c908216806165f257607f821691505b6020821081141561661357634e487b7160e01b600052602260045260246000fd5b50919050565b600060001982141561662d5761662d616634565b5060010190565b634e487b7160e01b600052601160045260246000fd5b634e487b7160e01b600052604160045260246000fd5b6001600160a01b038116811461560957600080fdfea26469706673582212201333a9273e1dce91d24268bcee9259d1560ab232aae8464f89dfa6c88c336cfc64736f6c63430008040033",
  "linkReferences": {},
  "deployedLinkReferences": {}
}