{
  "_format": "hh-sol-artifact-1",
  "contractName": "Donation",
  "sourceName": "contracts/Donation.sol",
  "abi": [
    {
      "inputs": [
        {
          "internalType": "address",
          "name": "companyaddress_",
          "type": "address"
        }
      ],
      "stateMutability": "nonpayable",
      "type": "constructor"
    },
    {
      "inputs": [
        {
          "internalType": "uint256",
          "name": "_id",
          "type": "uint256"
        }
      ],
      "name": "addDonation",
      "outputs": [],
      "stateMutability": "payable",
      "type": "function"
    },
    {
      "inputs": [],
      "name": "amountRaised",
      "outputs": [
        {
          "internalType": "uint256",
          "name": "",
          "type": "uint256"
        }
      ],
      "stateMutability": "view",
      "type": "function"
    },
    {
      "inputs": [
        {
          "internalType": "uint256",
          "name": "_id",
          "type": "uint256"
        }
      ],
      "name": "approveDonation",
      "outputs": [],
      "stateMutability": "nonpayable",
      "type": "function"
    },
    {
      "inputs": [
        {
          "internalType": "uint256",
          "name": "_amountInUsd",
          "type": "uint256"
        }
      ],
      "name": "convertEthUsd",
      "outputs": [
        {
          "internalType": "uint256",
          "name": "",
          "type": "uint256"
        }
      ],
      "stateMutability": "view",
      "type": "function"
    },
    {
      "inputs": [
        {
          "components": [
            {
              "internalType": "uint256",
              "name": "id",
              "type": "uint256"
            },
            {
              "internalType": "address payable",
              "name": "owner",
              "type": "address"
            },
            {
              "components": [
                {
                  "internalType": "uint256",
                  "name": "id",
                  "type": "uint256"
                },
                {
                  "internalType": "address",
                  "name": "_address",
                  "type": "address"
                },
                {
                  "internalType": "string",
                  "name": "userType",
                  "type": "string"
                },
                {
                  "internalType": "string",
                  "name": "country",
                  "type": "string"
                },
                {
                  "internalType": "string",
                  "name": "city",
                  "type": "string"
                },
                {
                  "internalType": "string",
                  "name": "email",
                  "type": "string"
                },
                {
                  "internalType": "string",
                  "name": "residenceAddress",
                  "type": "string"
                },
                {
                  "internalType": "bool",
                  "name": "isRegistered",
                  "type": "bool"
                },
                {
                  "internalType": "string",
                  "name": "website",
                  "type": "string"
                },
                {
                  "internalType": "string",
                  "name": "facebookUrl",
                  "type": "string"
                },
                {
                  "internalType": "string",
                  "name": "twitterUrl",
                  "type": "string"
                },
                {
                  "internalType": "string",
                  "name": "instagramUrl",
                  "type": "string"
                },
                {
                  "internalType": "string",
                  "name": "youtubeUrl",
                  "type": "string"
                },
                {
                  "internalType": "string",
                  "name": "hash",
                  "type": "string"
                }
              ],
              "internalType": "struct Donation.User",
              "name": "user",
              "type": "tuple"
            },
            {
              "internalType": "uint256",
              "name": "donersCount",
              "type": "uint256"
            },
            {
              "internalType": "uint256",
              "name": "donationsRaised",
              "type": "uint256"
            },
            {
              "internalType": "uint256",
              "name": "startDate",
              "type": "uint256"
            },
            {
              "internalType": "uint256",
              "name": "endDate",
              "type": "uint256"
            },
            {
              "internalType": "uint256",
              "name": "targetedAmount",
              "type": "uint256"
            },
            {
              "internalType": "string",
              "name": "category",
              "type": "string"
            },
            {
              "internalType": "string",
              "name": "title",
              "type": "string"
            },
            {
              "internalType": "string",
              "name": "hash",
              "type": "string"
            },
            {
              "internalType": "string",
              "name": "purpose",
              "type": "string"
            },
            {
              "internalType": "string",
              "name": "description",
              "type": "string"
            },
            {
              "components": [
                {
                  "internalType": "bool",
                  "name": "completed",
                  "type": "bool"
                },
                {
                  "internalType": "bool",
                  "name": "isPinned",
                  "type": "bool"
                },
                {
                  "internalType": "uint256",
                  "name": "pinnedDuration",
                  "type": "uint256"
                },
                {
                  "internalType": "uint256",
                  "name": "pinnedEndDate",
                  "type": "uint256"
                },
                {
                  "internalType": "bool",
                  "name": "isVisible",
                  "type": "bool"
                },
                {
                  "internalType": "bool",
                  "name": "isApproved",
                  "type": "bool"
                },
                {
                  "internalType": "uint256",
                  "name": "approvedDate",
                  "type": "uint256"
                },
                {
                  "internalType": "bool",
                  "name": "isRejected",
                  "type": "bool"
                }
              ],
              "internalType": "struct Donation.DonationStatus",
              "name": "donationstatus",
              "type": "tuple"
            }
          ],
          "internalType": "struct Donation.DonationItem",
          "name": "donation_",
          "type": "tuple"
        },
        {
          "internalType": "uint256",
          "name": "id_",
          "type": "uint256"
        }
      ],
      "name": "createDonation",
      "outputs": [],
      "stateMutability": "payable",
      "type": "function"
    },
    {
      "inputs": [
        {
          "internalType": "uint256",
          "name": "_id",
          "type": "uint256"
        }
      ],
      "name": "disablePinnedDonation",
      "outputs": [],
      "stateMutability": "nonpayable",
      "type": "function"
    },
    {
      "inputs": [],
      "name": "donationCount",
      "outputs": [
        {
          "internalType": "uint256",
          "name": "",
          "type": "uint256"
        }
      ],
      "stateMutability": "view",
      "type": "function"
    },
    {
      "inputs": [
        {
          "internalType": "uint256",
          "name": "",
          "type": "uint256"
        },
        {
          "internalType": "uint256",
          "name": "",
          "type": "uint256"
        }
      ],
      "name": "doners",
      "outputs": [
        {
          "internalType": "uint256",
          "name": "id",
          "type": "uint256"
        },
        {
          "internalType": "uint256",
          "name": "amount",
          "type": "uint256"
        },
        {
          "internalType": "uint256",
          "name": "date",
          "type": "uint256"
        },
        {
          "internalType": "address",
          "name": "doner",
          "type": "address"
        }
      ],
      "stateMutability": "view",
      "type": "function"
    },
    {
      "inputs": [],
      "name": "donersCount",
      "outputs": [
        {
          "internalType": "uint256",
          "name": "",
          "type": "uint256"
        }
      ],
      "stateMutability": "view",
      "type": "function"
    },
    {
      "inputs": [],
      "name": "fetchAllDonationItems",
      "outputs": [
        {
          "components": [
            {
              "internalType": "uint256",
              "name": "id",
              "type": "uint256"
            },
            {
              "internalType": "address payable",
              "name": "owner",
              "type": "address"
            },
            {
              "components": [
                {
                  "internalType": "uint256",
                  "name": "id",
                  "type": "uint256"
                },
                {
                  "internalType": "address",
                  "name": "_address",
                  "type": "address"
                },
                {
                  "internalType": "string",
                  "name": "userType",
                  "type": "string"
                },
                {
                  "internalType": "string",
                  "name": "country",
                  "type": "string"
                },
                {
                  "internalType": "string",
                  "name": "city",
                  "type": "string"
                },
                {
                  "internalType": "string",
                  "name": "email",
                  "type": "string"
                },
                {
                  "internalType": "string",
                  "name": "residenceAddress",
                  "type": "string"
                },
                {
                  "internalType": "bool",
                  "name": "isRegistered",
                  "type": "bool"
                },
                {
                  "internalType": "string",
                  "name": "website",
                  "type": "string"
                },
                {
                  "internalType": "string",
                  "name": "facebookUrl",
                  "type": "string"
                },
                {
                  "internalType": "string",
                  "name": "twitterUrl",
                  "type": "string"
                },
                {
                  "internalType": "string",
                  "name": "instagramUrl",
                  "type": "string"
                },
                {
                  "internalType": "string",
                  "name": "youtubeUrl",
                  "type": "string"
                },
                {
                  "internalType": "string",
                  "name": "hash",
                  "type": "string"
                }
              ],
              "internalType": "struct Donation.User",
              "name": "user",
              "type": "tuple"
            },
            {
              "internalType": "uint256",
              "name": "donersCount",
              "type": "uint256"
            },
            {
              "internalType": "uint256",
              "name": "donationsRaised",
              "type": "uint256"
            },
            {
              "internalType": "uint256",
              "name": "startDate",
              "type": "uint256"
            },
            {
              "internalType": "uint256",
              "name": "endDate",
              "type": "uint256"
            },
            {
              "internalType": "uint256",
              "name": "targetedAmount",
              "type": "uint256"
            },
            {
              "internalType": "string",
              "name": "category",
              "type": "string"
            },
            {
              "internalType": "string",
              "name": "title",
              "type": "string"
            },
            {
              "internalType": "string",
              "name": "hash",
              "type": "string"
            },
            {
              "internalType": "string",
              "name": "purpose",
              "type": "string"
            },
            {
              "internalType": "string",
              "name": "description",
              "type": "string"
            },
            {
              "components": [
                {
                  "internalType": "bool",
                  "name": "completed",
                  "type": "bool"
                },
                {
                  "internalType": "bool",
                  "name": "isPinned",
                  "type": "bool"
                },
                {
                  "internalType": "uint256",
                  "name": "pinnedDuration",
                  "type": "uint256"
                },
                {
                  "internalType": "uint256",
                  "name": "pinnedEndDate",
                  "type": "uint256"
                },
                {
                  "internalType": "bool",
                  "name": "isVisible",
                  "type": "bool"
                },
                {
                  "internalType": "bool",
                  "name": "isApproved",
                  "type": "bool"
                },
                {
                  "internalType": "uint256",
                  "name": "approvedDate",
                  "type": "uint256"
                },
                {
                  "internalType": "bool",
                  "name": "isRejected",
                  "type": "bool"
                }
              ],
              "internalType": "struct Donation.DonationStatus",
              "name": "donationstatus",
              "type": "tuple"
            }
          ],
          "internalType": "struct Donation.DonationItem[]",
          "name": "",
          "type": "tuple[]"
        }
      ],
      "stateMutability": "view",
      "type": "function"
    },
    {
      "inputs": [],
      "name": "fetchAllDonations",
      "outputs": [
        {
          "components": [
            {
              "internalType": "uint256",
              "name": "id",
              "type": "uint256"
            },
            {
              "internalType": "address payable",
              "name": "owner",
              "type": "address"
            },
            {
              "components": [
                {
                  "internalType": "uint256",
                  "name": "id",
                  "type": "uint256"
                },
                {
                  "internalType": "address",
                  "name": "_address",
                  "type": "address"
                },
                {
                  "internalType": "string",
                  "name": "userType",
                  "type": "string"
                },
                {
                  "internalType": "string",
                  "name": "country",
                  "type": "string"
                },
                {
                  "internalType": "string",
                  "name": "city",
                  "type": "string"
                },
                {
                  "internalType": "string",
                  "name": "email",
                  "type": "string"
                },
                {
                  "internalType": "string",
                  "name": "residenceAddress",
                  "type": "string"
                },
                {
                  "internalType": "bool",
                  "name": "isRegistered",
                  "type": "bool"
                },
                {
                  "internalType": "string",
                  "name": "website",
                  "type": "string"
                },
                {
                  "internalType": "string",
                  "name": "facebookUrl",
                  "type": "string"
                },
                {
                  "internalType": "string",
                  "name": "twitterUrl",
                  "type": "string"
                },
                {
                  "internalType": "string",
                  "name": "instagramUrl",
                  "type": "string"
                },
                {
                  "internalType": "string",
                  "name": "youtubeUrl",
                  "type": "string"
                },
                {
                  "internalType": "string",
                  "name": "hash",
                  "type": "string"
                }
              ],
              "internalType": "struct Donation.User",
              "name": "user",
              "type": "tuple"
            },
            {
              "internalType": "uint256",
              "name": "donersCount",
              "type": "uint256"
            },
            {
              "internalType": "uint256",
              "name": "donationsRaised",
              "type": "uint256"
            },
            {
              "internalType": "uint256",
              "name": "startDate",
              "type": "uint256"
            },
            {
              "internalType": "uint256",
              "name": "endDate",
              "type": "uint256"
            },
            {
              "internalType": "uint256",
              "name": "targetedAmount",
              "type": "uint256"
            },
            {
              "internalType": "string",
              "name": "category",
              "type": "string"
            },
            {
              "internalType": "string",
              "name": "title",
              "type": "string"
            },
            {
              "internalType": "string",
              "name": "hash",
              "type": "string"
            },
            {
              "internalType": "string",
              "name": "purpose",
              "type": "string"
            },
            {
              "internalType": "string",
              "name": "description",
              "type": "string"
            },
            {
              "components": [
                {
                  "internalType": "bool",
                  "name": "completed",
                  "type": "bool"
                },
                {
                  "internalType": "bool",
                  "name": "isPinned",
                  "type": "bool"
                },
                {
                  "internalType": "uint256",
                  "name": "pinnedDuration",
                  "type": "uint256"
                },
                {
                  "internalType": "uint256",
                  "name": "pinnedEndDate",
                  "type": "uint256"
                },
                {
                  "internalType": "bool",
                  "name": "isVisible",
                  "type": "bool"
                },
                {
                  "internalType": "bool",
                  "name": "isApproved",
                  "type": "bool"
                },
                {
                  "internalType": "uint256",
                  "name": "approvedDate",
                  "type": "uint256"
                },
                {
                  "internalType": "bool",
                  "name": "isRejected",
                  "type": "bool"
                }
              ],
              "internalType": "struct Donation.DonationStatus",
              "name": "donationstatus",
              "type": "tuple"
            }
          ],
          "internalType": "struct Donation.DonationItem[]",
          "name": "",
          "type": "tuple[]"
        }
      ],
      "stateMutability": "view",
      "type": "function"
    },
    {
      "inputs": [],
      "name": "fetchAllUsers",
      "outputs": [
        {
          "components": [
            {
              "internalType": "uint256",
              "name": "id",
              "type": "uint256"
            },
            {
              "internalType": "address",
              "name": "_address",
              "type": "address"
            },
            {
              "internalType": "string",
              "name": "userType",
              "type": "string"
            },
            {
              "internalType": "string",
              "name": "country",
              "type": "string"
            },
            {
              "internalType": "string",
              "name": "city",
              "type": "string"
            },
            {
              "internalType": "string",
              "name": "email",
              "type": "string"
            },
            {
              "internalType": "string",
              "name": "residenceAddress",
              "type": "string"
            },
            {
              "internalType": "bool",
              "name": "isRegistered",
              "type": "bool"
            },
            {
              "internalType": "string",
              "name": "website",
              "type": "string"
            },
            {
              "internalType": "string",
              "name": "facebookUrl",
              "type": "string"
            },
            {
              "internalType": "string",
              "name": "twitterUrl",
              "type": "string"
            },
            {
              "internalType": "string",
              "name": "instagramUrl",
              "type": "string"
            },
            {
              "internalType": "string",
              "name": "youtubeUrl",
              "type": "string"
            },
            {
              "internalType": "string",
              "name": "hash",
              "type": "string"
            }
          ],
          "internalType": "struct Donation.User[]",
          "name": "",
          "type": "tuple[]"
        }
      ],
      "stateMutability": "view",
      "type": "function"
    },
    {
      "inputs": [],
      "name": "getAllDoners",
      "outputs": [
        {
          "internalType": "uint256",
          "name": "",
          "type": "uint256"
        }
      ],
      "stateMutability": "view",
      "type": "function"
    },
    {
      "inputs": [],
      "name": "getAllUsers",
      "outputs": [
        {
          "internalType": "uint256",
          "name": "",
          "type": "uint256"
        }
      ],
      "stateMutability": "view",
      "type": "function"
    },
    {
      "inputs": [],
      "name": "getAmountRaised",
      "outputs": [
        {
          "internalType": "uint256",
          "name": "",
          "type": "uint256"
        }
      ],
      "stateMutability": "view",
      "type": "function"
    },
    {
      "inputs": [
        {
          "internalType": "uint256",
          "name": "_id",
          "type": "uint256"
        }
      ],
      "name": "getDonation",
      "outputs": [
        {
          "components": [
            {
              "internalType": "uint256",
              "name": "id",
              "type": "uint256"
            },
            {
              "internalType": "address payable",
              "name": "owner",
              "type": "address"
            },
            {
              "components": [
                {
                  "internalType": "uint256",
                  "name": "id",
                  "type": "uint256"
                },
                {
                  "internalType": "address",
                  "name": "_address",
                  "type": "address"
                },
                {
                  "internalType": "string",
                  "name": "userType",
                  "type": "string"
                },
                {
                  "internalType": "string",
                  "name": "country",
                  "type": "string"
                },
                {
                  "internalType": "string",
                  "name": "city",
                  "type": "string"
                },
                {
                  "internalType": "string",
                  "name": "email",
                  "type": "string"
                },
                {
                  "internalType": "string",
                  "name": "residenceAddress",
                  "type": "string"
                },
                {
                  "internalType": "bool",
                  "name": "isRegistered",
                  "type": "bool"
                },
                {
                  "internalType": "string",
                  "name": "website",
                  "type": "string"
                },
                {
                  "internalType": "string",
                  "name": "facebookUrl",
                  "type": "string"
                },
                {
                  "internalType": "string",
                  "name": "twitterUrl",
                  "type": "string"
                },
                {
                  "internalType": "string",
                  "name": "instagramUrl",
                  "type": "string"
                },
                {
                  "internalType": "string",
                  "name": "youtubeUrl",
                  "type": "string"
                },
                {
                  "internalType": "string",
                  "name": "hash",
                  "type": "string"
                }
              ],
              "internalType": "struct Donation.User",
              "name": "user",
              "type": "tuple"
            },
            {
              "internalType": "uint256",
              "name": "donersCount",
              "type": "uint256"
            },
            {
              "internalType": "uint256",
              "name": "donationsRaised",
              "type": "uint256"
            },
            {
              "internalType": "uint256",
              "name": "startDate",
              "type": "uint256"
            },
            {
              "internalType": "uint256",
              "name": "endDate",
              "type": "uint256"
            },
            {
              "internalType": "uint256",
              "name": "targetedAmount",
              "type": "uint256"
            },
            {
              "internalType": "string",
              "name": "category",
              "type": "string"
            },
            {
              "internalType": "string",
              "name": "title",
              "type": "string"
            },
            {
              "internalType": "string",
              "name": "hash",
              "type": "string"
            },
            {
              "internalType": "string",
              "name": "purpose",
              "type": "string"
            },
            {
              "internalType": "string",
              "name": "description",
              "type": "string"
            },
            {
              "components": [
                {
                  "internalType": "bool",
                  "name": "completed",
                  "type": "bool"
                },
                {
                  "internalType": "bool",
                  "name": "isPinned",
                  "type": "bool"
                },
                {
                  "internalType": "uint256",
                  "name": "pinnedDuration",
                  "type": "uint256"
                },
                {
                  "internalType": "uint256",
                  "name": "pinnedEndDate",
                  "type": "uint256"
                },
                {
                  "internalType": "bool",
                  "name": "isVisible",
                  "type": "bool"
                },
                {
                  "internalType": "bool",
                  "name": "isApproved",
                  "type": "bool"
                },
                {
                  "internalType": "uint256",
                  "name": "approvedDate",
                  "type": "uint256"
                },
                {
                  "internalType": "bool",
                  "name": "isRejected",
                  "type": "bool"
                }
              ],
              "internalType": "struct Donation.DonationStatus",
              "name": "donationstatus",
              "type": "tuple"
            }
          ],
          "internalType": "struct Donation.DonationItem",
          "name": "",
          "type": "tuple"
        }
      ],
      "stateMutability": "view",
      "type": "function"
    },
    {
      "inputs": [
        {
          "internalType": "uint256",
          "name": "_id",
          "type": "uint256"
        }
      ],
      "name": "getDonersOfDonation",
      "outputs": [
        {
          "components": [
            {
              "internalType": "uint256",
              "name": "id",
              "type": "uint256"
            },
            {
              "internalType": "uint256",
              "name": "amount",
              "type": "uint256"
            },
            {
              "internalType": "uint256",
              "name": "date",
              "type": "uint256"
            },
            {
              "internalType": "address",
              "name": "doner",
              "type": "address"
            }
          ],
          "internalType": "struct Donation.Doners[]",
          "name": "",
          "type": "tuple[]"
        }
      ],
      "stateMutability": "view",
      "type": "function"
    },
    {
      "inputs": [],
      "name": "getEthUsd",
      "outputs": [
        {
          "internalType": "uint256",
          "name": "",
          "type": "uint256"
        }
      ],
      "stateMutability": "view",
      "type": "function"
    },
    {
      "inputs": [],
      "name": "getLatestPrice",
      "outputs": [
        {
          "internalType": "int256",
          "name": "",
          "type": "int256"
        }
      ],
      "stateMutability": "view",
      "type": "function"
    },
    {
      "inputs": [],
      "name": "getMyDonations",
      "outputs": [
        {
          "components": [
            {
              "internalType": "uint256",
              "name": "id",
              "type": "uint256"
            },
            {
              "internalType": "address payable",
              "name": "owner",
              "type": "address"
            },
            {
              "components": [
                {
                  "internalType": "uint256",
                  "name": "id",
                  "type": "uint256"
                },
                {
                  "internalType": "address",
                  "name": "_address",
                  "type": "address"
                },
                {
                  "internalType": "string",
                  "name": "userType",
                  "type": "string"
                },
                {
                  "internalType": "string",
                  "name": "country",
                  "type": "string"
                },
                {
                  "internalType": "string",
                  "name": "city",
                  "type": "string"
                },
                {
                  "internalType": "string",
                  "name": "email",
                  "type": "string"
                },
                {
                  "internalType": "string",
                  "name": "residenceAddress",
                  "type": "string"
                },
                {
                  "internalType": "bool",
                  "name": "isRegistered",
                  "type": "bool"
                },
                {
                  "internalType": "string",
                  "name": "website",
                  "type": "string"
                },
                {
                  "internalType": "string",
                  "name": "facebookUrl",
                  "type": "string"
                },
                {
                  "internalType": "string",
                  "name": "twitterUrl",
                  "type": "string"
                },
                {
                  "internalType": "string",
                  "name": "instagramUrl",
                  "type": "string"
                },
                {
                  "internalType": "string",
                  "name": "youtubeUrl",
                  "type": "string"
                },
                {
                  "internalType": "string",
                  "name": "hash",
                  "type": "string"
                }
              ],
              "internalType": "struct Donation.User",
              "name": "user",
              "type": "tuple"
            },
            {
              "internalType": "uint256",
              "name": "donersCount",
              "type": "uint256"
            },
            {
              "internalType": "uint256",
              "name": "donationsRaised",
              "type": "uint256"
            },
            {
              "internalType": "uint256",
              "name": "startDate",
              "type": "uint256"
            },
            {
              "internalType": "uint256",
              "name": "endDate",
              "type": "uint256"
            },
            {
              "internalType": "uint256",
              "name": "targetedAmount",
              "type": "uint256"
            },
            {
              "internalType": "string",
              "name": "category",
              "type": "string"
            },
            {
              "internalType": "string",
              "name": "title",
              "type": "string"
            },
            {
              "internalType": "string",
              "name": "hash",
              "type": "string"
            },
            {
              "internalType": "string",
              "name": "purpose",
              "type": "string"
            },
            {
              "internalType": "string",
              "name": "description",
              "type": "string"
            },
            {
              "components": [
                {
                  "internalType": "bool",
                  "name": "completed",
                  "type": "bool"
                },
                {
                  "internalType": "bool",
                  "name": "isPinned",
                  "type": "bool"
                },
                {
                  "internalType": "uint256",
                  "name": "pinnedDuration",
                  "type": "uint256"
                },
                {
                  "internalType": "uint256",
                  "name": "pinnedEndDate",
                  "type": "uint256"
                },
                {
                  "internalType": "bool",
                  "name": "isVisible",
                  "type": "bool"
                },
                {
                  "internalType": "bool",
                  "name": "isApproved",
                  "type": "bool"
                },
                {
                  "internalType": "uint256",
                  "name": "approvedDate",
                  "type": "uint256"
                },
                {
                  "internalType": "bool",
                  "name": "isRejected",
                  "type": "bool"
                }
              ],
              "internalType": "struct Donation.DonationStatus",
              "name": "donationstatus",
              "type": "tuple"
            }
          ],
          "internalType": "struct Donation.DonationItem[]",
          "name": "",
          "type": "tuple[]"
        }
      ],
      "stateMutability": "view",
      "type": "function"
    },
    {
      "inputs": [
        {
          "internalType": "uint256",
          "name": "",
          "type": "uint256"
        }
      ],
      "name": "idToDonationItem",
      "outputs": [
        {
          "internalType": "uint256",
          "name": "id",
          "type": "uint256"
        },
        {
          "internalType": "address payable",
          "name": "owner",
          "type": "address"
        },
        {
          "components": [
            {
              "internalType": "uint256",
              "name": "id",
              "type": "uint256"
            },
            {
              "internalType": "address",
              "name": "_address",
              "type": "address"
            },
            {
              "internalType": "string",
              "name": "userType",
              "type": "string"
            },
            {
              "internalType": "string",
              "name": "country",
              "type": "string"
            },
            {
              "internalType": "string",
              "name": "city",
              "type": "string"
            },
            {
              "internalType": "string",
              "name": "email",
              "type": "string"
            },
            {
              "internalType": "string",
              "name": "residenceAddress",
              "type": "string"
            },
            {
              "internalType": "bool",
              "name": "isRegistered",
              "type": "bool"
            },
            {
              "internalType": "string",
              "name": "website",
              "type": "string"
            },
            {
              "internalType": "string",
              "name": "facebookUrl",
              "type": "string"
            },
            {
              "internalType": "string",
              "name": "twitterUrl",
              "type": "string"
            },
            {
              "internalType": "string",
              "name": "instagramUrl",
              "type": "string"
            },
            {
              "internalType": "string",
              "name": "youtubeUrl",
              "type": "string"
            },
            {
              "internalType": "string",
              "name": "hash",
              "type": "string"
            }
          ],
          "internalType": "struct Donation.User",
          "name": "user",
          "type": "tuple"
        },
        {
          "internalType": "uint256",
          "name": "donersCount",
          "type": "uint256"
        },
        {
          "internalType": "uint256",
          "name": "donationsRaised",
          "type": "uint256"
        },
        {
          "internalType": "uint256",
          "name": "startDate",
          "type": "uint256"
        },
        {
          "internalType": "uint256",
          "name": "endDate",
          "type": "uint256"
        },
        {
          "internalType": "uint256",
          "name": "targetedAmount",
          "type": "uint256"
        },
        {
          "internalType": "string",
          "name": "category",
          "type": "string"
        },
        {
          "internalType": "string",
          "name": "title",
          "type": "string"
        },
        {
          "internalType": "string",
          "name": "hash",
          "type": "string"
        },
        {
          "internalType": "string",
          "name": "purpose",
          "type": "string"
        },
        {
          "internalType": "string",
          "name": "description",
          "type": "string"
        },
        {
          "components": [
            {
              "internalType": "bool",
              "name": "completed",
              "type": "bool"
            },
            {
              "internalType": "bool",
              "name": "isPinned",
              "type": "bool"
            },
            {
              "internalType": "uint256",
              "name": "pinnedDuration",
              "type": "uint256"
            },
            {
              "internalType": "uint256",
              "name": "pinnedEndDate",
              "type": "uint256"
            },
            {
              "internalType": "bool",
              "name": "isVisible",
              "type": "bool"
            },
            {
              "internalType": "bool",
              "name": "isApproved",
              "type": "bool"
            },
            {
              "internalType": "uint256",
              "name": "approvedDate",
              "type": "uint256"
            },
            {
              "internalType": "bool",
              "name": "isRejected",
              "type": "bool"
            }
          ],
          "internalType": "struct Donation.DonationStatus",
          "name": "donationstatus",
          "type": "tuple"
        }
      ],
      "stateMutability": "view",
      "type": "function"
    },
    {
      "inputs": [],
      "name": "isUserRegistered",
      "outputs": [
        {
          "components": [
            {
              "internalType": "bool",
              "name": "status",
              "type": "bool"
            },
            {
              "internalType": "string",
              "name": "userType",
              "type": "string"
            },
            {
              "internalType": "uint256",
              "name": "id",
              "type": "uint256"
            }
          ],
          "internalType": "struct Donation.IsRegistered",
          "name": "",
          "type": "tuple"
        }
      ],
      "stateMutability": "view",
      "type": "function"
    },
    {
      "inputs": [
        {
          "internalType": "uint256",
          "name": "_id",
          "type": "uint256"
        },
        {
          "internalType": "uint256",
          "name": "_duration",
          "type": "uint256"
        },
        {
          "internalType": "uint256",
          "name": "_pinnedEndDate",
          "type": "uint256"
        }
      ],
      "name": "pinDonation",
      "outputs": [],
      "stateMutability": "payable",
      "type": "function"
    },
    {
      "inputs": [
        {
          "internalType": "address",
          "name": "",
          "type": "address"
        }
      ],
      "name": "registeredUsers",
      "outputs": [
        {
          "internalType": "bool",
          "name": "status",
          "type": "bool"
        },
        {
          "internalType": "string",
          "name": "userType",
          "type": "string"
        },
        {
          "internalType": "uint256",
          "name": "id",
          "type": "uint256"
        }
      ],
      "stateMutability": "view",
      "type": "function"
    },
    {
      "inputs": [
        {
          "internalType": "uint256",
          "name": "_id",
          "type": "uint256"
        }
      ],
      "name": "rejectDonation",
      "outputs": [],
      "stateMutability": "nonpayable",
      "type": "function"
    },
    {
      "inputs": [
        {
          "internalType": "uint256",
          "name": "",
          "type": "uint256"
        }
      ],
      "name": "users",
      "outputs": [
        {
          "internalType": "uint256",
          "name": "id",
          "type": "uint256"
        },
        {
          "internalType": "address",
          "name": "_address",
          "type": "address"
        },
        {
          "internalType": "string",
          "name": "userType",
          "type": "string"
        },
        {
          "internalType": "string",
          "name": "country",
          "type": "string"
        },
        {
          "internalType": "string",
          "name": "city",
          "type": "string"
        },
        {
          "internalType": "string",
          "name": "email",
          "type": "string"
        },
        {
          "internalType": "string",
          "name": "residenceAddress",
          "type": "string"
        },
        {
          "internalType": "bool",
          "name": "isRegistered",
          "type": "bool"
        },
        {
          "internalType": "string",
          "name": "website",
          "type": "string"
        },
        {
          "internalType": "string",
          "name": "facebookUrl",
          "type": "string"
        },
        {
          "internalType": "string",
          "name": "twitterUrl",
          "type": "string"
        },
        {
          "internalType": "string",
          "name": "instagramUrl",
          "type": "string"
        },
        {
          "internalType": "string",
          "name": "youtubeUrl",
          "type": "string"
        },
        {
          "internalType": "string",
          "name": "hash",
          "type": "string"
        }
      ],
      "stateMutability": "view",
      "type": "function"
    },
    {
      "inputs": [],
      "name": "usersCount",
      "outputs": [
        {
          "internalType": "uint256",
          "name": "",
          "type": "uint256"
        }
      ],
      "stateMutability": "view",
      "type": "function"
    }
  ],
  "bytecode": "0x608060405260006006556000600755600060085560006009553480156200002557600080fd5b5060405162007ab538038062007ab583398101604081905262000048916200008b565b600580546001600160a01b039092166001600160a01b031992831617905560008054909116739326bfa02add2366b30bacb125260af641031331179055620000bb565b6000602082840312156200009d578081fd5b81516001600160a01b0381168114620000b4578182fd5b9392505050565b6179ea80620000cb6000396000f3fe60806040526004361061019c5760003560e01c80637b3e5e7b116100ec578063c33743151161008a578063cac83cb111610064578063cac83cb1146104ca578063d8251a14146104ea578063e2842d79146104fd578063ef07a81f1461051257600080fd5b8063c337431514610475578063c69f34a314610497578063c6e251a9146104b757600080fd5b80638e15f473116100c65780638e15f4731461041657806390e4a1301461042b5780639534b3bf14610440578063bb27e0ce1461046057600080fd5b80637b3e5e7b146103c9578063873138f3146103df578063883b532b1461040157600080fd5b80633f27607d11610159578063568fefbf11610133578063568fefbf146102f35780635fc2a547146103715780636ba13a821461039e5780636d1af018146103b457600080fd5b80633f27607d1461028357806343ae959c146102bd57806351c7bd4b146102d357600080fd5b80630e50cee5146101a1578063297dcb7e146101d95780632abfab4d146101fb57806332536a531461021f578063365b98b2146102345780633776eac61461026e575b600080fd5b3480156101ad57600080fd5b506101c16101bc366004616f21565b61053f565b6040516101d0939291906175c5565b60405180910390f35b3480156101e557600080fd5b506101ee6105ee565b6040516101d091906174a3565b34801561020757600080fd5b5061021160075481565b6040519081526020016101d0565b61023261022d366004617105565b61110f565b005b34801561024057600080fd5b5061025461024f3660046170cc565b611552565b6040516101d09e9d9c9b9a99989796959493929190617771565b34801561027a57600080fd5b506101ee611ba2565b34801561028f57600080fd5b506102a361029e3660046170cc565b6126f0565b6040516101d09e9d9c9b9a9998979695949392919061769e565b3480156102c957600080fd5b5061021160065481565b3480156102df57600080fd5b506102326102ee3660046170cc565b6130f3565b3480156102ff57600080fd5b5061034861030e3660046170e4565b600260208181526000938452604080852090915291835291208054600182015492820154600390920154909291906001600160a01b031684565b604080519485526020850193909352918301526001600160a01b031660608201526080016101d0565b34801561037d57600080fd5b5061039161038c3660046170cc565b6134d1565b6040516101d09190617504565b3480156103aa57600080fd5b5061021160085481565b3480156103c057600080fd5b50600954610211565b3480156103d557600080fd5b5061021160095481565b3480156103eb57600080fd5b506103f461363a565b6040516101d09190617660565b34801561040d57600080fd5b50600654610211565b34801561042257600080fd5b50610211613780565b34801561043757600080fd5b506101ee613866565b34801561044c57600080fd5b5061021161045b3660046170cc565b614410565b34801561046c57600080fd5b5061021161443f565b34801561048157600080fd5b5061048a6144d1565b6040516101d09190617571565b3480156104a357600080fd5b506102326104b23660046170cc565b614c3c565b6102326104c5366004616f3d565b614d39565b3480156104d657600080fd5b506102326104e53660046170cc565b615746565b6102326104f83660046170cc565b6157e1565b34801561050957600080fd5b50600854610211565b34801561051e57600080fd5b5061053261052d3660046170cc565b615ddc565b6040516101d0919061764d565b6004602052600090815260409020805460018201805460ff90921692916105659061791d565b80601f01602080910402602001604051908101604052809291908181526020018280546105919061791d565b80156105de5780601f106105b3576101008083540402835291602001916105de565b820191906000526020600020905b8154815290600101906020018083116105c157829003601f168201915b5050505050908060020154905083565b6007546060906000808267ffffffffffffffff81111561061e57634e487b7160e01b600052604160045260246000fd5b60405190808252806020026020018201604052801561065757816020015b610644616973565b81526020019060019003908161063c5790505b50905060005b838110156111075760006106728260016178af565b60008181526001602081815260409283902083516101c0808201865282548252938201546001600160a01b03908116828501528551948501865260028301805486526003840154909116938501939093526004820180549697509195909486948682019490939092918401916106e79061791d565b80601f01602080910402602001604051908101604052809291908181526020018280546107139061791d565b80156107605780601f1061073557610100808354040283529160200191610760565b820191906000526020600020905b81548152906001019060200180831161074357829003601f168201915b505050505081526020016003820180546107799061791d565b80601f01602080910402602001604051908101604052809291908181526020018280546107a59061791d565b80156107f25780601f106107c7576101008083540402835291602001916107f2565b820191906000526020600020905b8154815290600101906020018083116107d557829003601f168201915b5050505050815260200160048201805461080b9061791d565b80601f01602080910402602001604051908101604052809291908181526020018280546108379061791d565b80156108845780601f1061085957610100808354040283529160200191610884565b820191906000526020600020905b81548152906001019060200180831161086757829003601f168201915b5050505050815260200160058201805461089d9061791d565b80601f01602080910402602001604051908101604052809291908181526020018280546108c99061791d565b80156109165780601f106108eb57610100808354040283529160200191610916565b820191906000526020600020905b8154815290600101906020018083116108f957829003601f168201915b5050505050815260200160068201805461092f9061791d565b80601f016020809104026020016040519081016040528092919081815260200182805461095b9061791d565b80156109a85780601f1061097d576101008083540402835291602001916109a8565b820191906000526020600020905b81548152906001019060200180831161098b57829003601f168201915b5050509183525050600782015460ff16151560208201526008820180546040909201916109d49061791d565b80601f0160208091040260200160405190810160405280929190818152602001828054610a009061791d565b8015610a4d5780601f10610a2257610100808354040283529160200191610a4d565b820191906000526020600020905b815481529060010190602001808311610a3057829003601f168201915b50505050508152602001600982018054610a669061791d565b80601f0160208091040260200160405190810160405280929190818152602001828054610a929061791d565b8015610adf5780601f10610ab457610100808354040283529160200191610adf565b820191906000526020600020905b815481529060010190602001808311610ac257829003601f168201915b50505050508152602001600a82018054610af89061791d565b80601f0160208091040260200160405190810160405280929190818152602001828054610b249061791d565b8015610b715780601f10610b4657610100808354040283529160200191610b71565b820191906000526020600020905b815481529060010190602001808311610b5457829003601f168201915b50505050508152602001600b82018054610b8a9061791d565b80601f0160208091040260200160405190810160405280929190818152602001828054610bb69061791d565b8015610c035780601f10610bd857610100808354040283529160200191610c03565b820191906000526020600020905b815481529060010190602001808311610be657829003601f168201915b50505050508152602001600c82018054610c1c9061791d565b80601f0160208091040260200160405190810160405280929190818152602001828054610c489061791d565b8015610c955780601f10610c6a57610100808354040283529160200191610c95565b820191906000526020600020905b815481529060010190602001808311610c7857829003601f168201915b50505050508152602001600d82018054610cae9061791d565b80601f0160208091040260200160405190810160405280929190818152602001828054610cda9061791d565b8015610d275780601f10610cfc57610100808354040283529160200191610d27565b820191906000526020600020905b815481529060010190602001808311610d0a57829003601f168201915b50505050508152505081526020016010820154815260200160118201548152602001601282015481526020016013820154815260200160148201548152602001601582018054610d769061791d565b80601f0160208091040260200160405190810160405280929190818152602001828054610da29061791d565b8015610def5780601f10610dc457610100808354040283529160200191610def565b820191906000526020600020905b815481529060010190602001808311610dd257829003601f168201915b50505050508152602001601682018054610e089061791d565b80601f0160208091040260200160405190810160405280929190818152602001828054610e349061791d565b8015610e815780601f10610e5657610100808354040283529160200191610e81565b820191906000526020600020905b815481529060010190602001808311610e6457829003601f168201915b50505050508152602001601782018054610e9a9061791d565b80601f0160208091040260200160405190810160405280929190818152602001828054610ec69061791d565b8015610f135780601f10610ee857610100808354040283529160200191610f13565b820191906000526020600020905b815481529060010190602001808311610ef657829003601f168201915b50505050508152602001601882018054610f2c9061791d565b80601f0160208091040260200160405190810160405280929190818152602001828054610f589061791d565b8015610fa55780601f10610f7a57610100808354040283529160200191610fa5565b820191906000526020600020905b815481529060010190602001808311610f8857829003601f168201915b50505050508152602001601982018054610fbe9061791d565b80601f0160208091040260200160405190810160405280929190818152602001828054610fea9061791d565b80156110375780601f1061100c57610100808354040283529160200191611037565b820191906000526020600020905b81548152906001019060200180831161101a57829003601f168201915b5050509183525050604080516101008082018352601a85015460ff808216151584529082900481161515602084810191909152601b87015494840194909452601c8601546060840152601d86015480821615156080850152919091048116151560a0830152601e85015460c0830152601f90940154909316151560e0840152015284518590879081106110da57634e487b7160e01b600052603260045260246000fd5b60209081029190910101526110f06001866178af565b9450505080806110ff90617958565b91505061065d565b509392505050565b60008311801561112157506007548311155b6111465760405162461bcd60e51b815260040161113d9061761e565b60405180910390fd5b6000838152600160205260409020601a810154610100900460ff161561116b57600080fd5b601d81015460ff61010090910416151560011461118757600080fd5b601c810154421161119757600080fd5b6005546040516001600160a01b039091169081903480156108fc02916000818181858888f193505050501580156111d2573d6000803e3d6000fd5b50601b8201849055601c8201839055601a8201805461ff0019166101001790556000858152600160208190526040909120835481558184015491810180546001600160a01b03199081166001600160a01b03948516179091556002808601805491840191825560038088015490850180549094169516949094179091556004808601805487959392850191906112679061791d565b611272929190616a35565b5060038201816003019080546112879061791d565b611292929190616a35565b5060048201816004019080546112a79061791d565b6112b2929190616a35565b5060058201816005019080546112c79061791d565b6112d2929190616a35565b5060068201816006019080546112e79061791d565b6112f2929190616a35565b50600782810154908201805460ff191660ff909216151591909117905560088083018054918301916113239061791d565b61132e929190616a35565b5060098201816009019080546113439061791d565b61134e929190616a35565b50600a820181600a019080546113639061791d565b61136e929190616a35565b50600b820181600b019080546113839061791d565b61138e929190616a35565b50600c820181600c019080546113a39061791d565b6113ae929190616a35565b50600d820181600d019080546113c39061791d565b6113ce929190616a35565b505050601082015481601001556011820154816011015560128201548160120155601382015481601301556014820154816014015560158201816015019080546114179061791d565b611422929190616a35565b5060168201816016019080546114379061791d565b611442929190616a35565b5060178201816017019080546114579061791d565b611462929190616a35565b5060188201816018019080546114779061791d565b611482929190616a35565b5060198201816019019080546114979061791d565b6114a2929190616a35565b50601a8281018054918301805460ff938416151560ff198083168217845593546101009081900486161515810261ff001992831661ffff199485161717909355601b8088015490870155601c8088015490870155601d808801805491880180549288161515838816811782559154869004881615159095029216921691909117179055601e8085015490840155601f93840154939092018054939091161515929091169190911790555050505050565b60036020526000908152604090208054600182015460028301805492936001600160a01b03909216926115849061791d565b80601f01602080910402602001604051908101604052809291908181526020018280546115b09061791d565b80156115fd5780601f106115d2576101008083540402835291602001916115fd565b820191906000526020600020905b8154815290600101906020018083116115e057829003601f168201915b5050505050908060030180546116129061791d565b80601f016020809104026020016040519081016040528092919081815260200182805461163e9061791d565b801561168b5780601f106116605761010080835404028352916020019161168b565b820191906000526020600020905b81548152906001019060200180831161166e57829003601f168201915b5050505050908060040180546116a09061791d565b80601f01602080910402602001604051908101604052809291908181526020018280546116cc9061791d565b80156117195780601f106116ee57610100808354040283529160200191611719565b820191906000526020600020905b8154815290600101906020018083116116fc57829003601f168201915b50505050509080600501805461172e9061791d565b80601f016020809104026020016040519081016040528092919081815260200182805461175a9061791d565b80156117a75780601f1061177c576101008083540402835291602001916117a7565b820191906000526020600020905b81548152906001019060200180831161178a57829003601f168201915b5050505050908060060180546117bc9061791d565b80601f01602080910402602001604051908101604052809291908181526020018280546117e89061791d565b80156118355780601f1061180a57610100808354040283529160200191611835565b820191906000526020600020905b81548152906001019060200180831161181857829003601f168201915b5050506007840154600885018054949560ff9092169491935091506118599061791d565b80601f01602080910402602001604051908101604052809291908181526020018280546118859061791d565b80156118d25780601f106118a7576101008083540402835291602001916118d2565b820191906000526020600020905b8154815290600101906020018083116118b557829003601f168201915b5050505050908060090180546118e79061791d565b80601f01602080910402602001604051908101604052809291908181526020018280546119139061791d565b80156119605780601f1061193557610100808354040283529160200191611960565b820191906000526020600020905b81548152906001019060200180831161194357829003601f168201915b50505050509080600a0180546119759061791d565b80601f01602080910402602001604051908101604052809291908181526020018280546119a19061791d565b80156119ee5780601f106119c3576101008083540402835291602001916119ee565b820191906000526020600020905b8154815290600101906020018083116119d157829003601f168201915b50505050509080600b018054611a039061791d565b80601f0160208091040260200160405190810160405280929190818152602001828054611a2f9061791d565b8015611a7c5780601f10611a5157610100808354040283529160200191611a7c565b820191906000526020600020905b815481529060010190602001808311611a5f57829003601f168201915b50505050509080600c018054611a919061791d565b80601f0160208091040260200160405190810160405280929190818152602001828054611abd9061791d565b8015611b0a5780601f10611adf57610100808354040283529160200191611b0a565b820191906000526020600020905b815481529060010190602001808311611aed57829003601f168201915b50505050509080600d018054611b1f9061791d565b80601f0160208091040260200160405190810160405280929190818152602001828054611b4b9061791d565b8015611b985780601f10611b6d57610100808354040283529160200191611b98565b820191906000526020600020905b815481529060010190602001808311611b7b57829003601f168201915b505050505090508e565b6007546060906000808267ffffffffffffffff811115611bd257634e487b7160e01b600052604160045260246000fd5b604051908082528060200260200182016040528015611c0b57816020015b611bf8616973565b815260200190600190039081611bf05790505b50905060005b838110156111075760016000611c2783836178af565b81526020810191909152604001600020601d015460ff610100909104161515600114156126de576000611c5b8260016178af565b60008181526001602081815260409283902083516101c0808201865282548252938201546001600160a01b0390811682850152855194850186526002830180548652600384015490911693850193909352600482018054969750919590948694868201949093909291840191611cd09061791d565b80601f0160208091040260200160405190810160405280929190818152602001828054611cfc9061791d565b8015611d495780601f10611d1e57610100808354040283529160200191611d49565b820191906000526020600020905b815481529060010190602001808311611d2c57829003601f168201915b50505050508152602001600382018054611d629061791d565b80601f0160208091040260200160405190810160405280929190818152602001828054611d8e9061791d565b8015611ddb5780601f10611db057610100808354040283529160200191611ddb565b820191906000526020600020905b815481529060010190602001808311611dbe57829003601f168201915b50505050508152602001600482018054611df49061791d565b80601f0160208091040260200160405190810160405280929190818152602001828054611e209061791d565b8015611e6d5780601f10611e4257610100808354040283529160200191611e6d565b820191906000526020600020905b815481529060010190602001808311611e5057829003601f168201915b50505050508152602001600582018054611e869061791d565b80601f0160208091040260200160405190810160405280929190818152602001828054611eb29061791d565b8015611eff5780601f10611ed457610100808354040283529160200191611eff565b820191906000526020600020905b815481529060010190602001808311611ee257829003601f168201915b50505050508152602001600682018054611f189061791d565b80601f0160208091040260200160405190810160405280929190818152602001828054611f449061791d565b8015611f915780601f10611f6657610100808354040283529160200191611f91565b820191906000526020600020905b815481529060010190602001808311611f7457829003601f168201915b5050509183525050600782015460ff1615156020820152600882018054604090920191611fbd9061791d565b80601f0160208091040260200160405190810160405280929190818152602001828054611fe99061791d565b80156120365780601f1061200b57610100808354040283529160200191612036565b820191906000526020600020905b81548152906001019060200180831161201957829003601f168201915b5050505050815260200160098201805461204f9061791d565b80601f016020809104026020016040519081016040528092919081815260200182805461207b9061791d565b80156120c85780601f1061209d576101008083540402835291602001916120c8565b820191906000526020600020905b8154815290600101906020018083116120ab57829003601f168201915b50505050508152602001600a820180546120e19061791d565b80601f016020809104026020016040519081016040528092919081815260200182805461210d9061791d565b801561215a5780601f1061212f5761010080835404028352916020019161215a565b820191906000526020600020905b81548152906001019060200180831161213d57829003601f168201915b50505050508152602001600b820180546121739061791d565b80601f016020809104026020016040519081016040528092919081815260200182805461219f9061791d565b80156121ec5780601f106121c1576101008083540402835291602001916121ec565b820191906000526020600020905b8154815290600101906020018083116121cf57829003601f168201915b50505050508152602001600c820180546122059061791d565b80601f01602080910402602001604051908101604052809291908181526020018280546122319061791d565b801561227e5780601f106122535761010080835404028352916020019161227e565b820191906000526020600020905b81548152906001019060200180831161226157829003601f168201915b50505050508152602001600d820180546122979061791d565b80601f01602080910402602001604051908101604052809291908181526020018280546122c39061791d565b80156123105780601f106122e557610100808354040283529160200191612310565b820191906000526020600020905b8154815290600101906020018083116122f357829003601f168201915b5050505050815250508152602001601082015481526020016011820154815260200160128201548152602001601382015481526020016014820154815260200160158201805461235f9061791d565b80601f016020809104026020016040519081016040528092919081815260200182805461238b9061791d565b80156123d85780601f106123ad576101008083540402835291602001916123d8565b820191906000526020600020905b8154815290600101906020018083116123bb57829003601f168201915b505050505081526020016016820180546123f19061791d565b80601f016020809104026020016040519081016040528092919081815260200182805461241d9061791d565b801561246a5780601f1061243f5761010080835404028352916020019161246a565b820191906000526020600020905b81548152906001019060200180831161244d57829003601f168201915b505050505081526020016017820180546124839061791d565b80601f01602080910402602001604051908101604052809291908181526020018280546124af9061791d565b80156124fc5780601f106124d1576101008083540402835291602001916124fc565b820191906000526020600020905b8154815290600101906020018083116124df57829003601f168201915b505050505081526020016018820180546125159061791d565b80601f01602080910402602001604051908101604052809291908181526020018280546125419061791d565b801561258e5780601f106125635761010080835404028352916020019161258e565b820191906000526020600020905b81548152906001019060200180831161257157829003601f168201915b505050505081526020016019820180546125a79061791d565b80601f01602080910402602001604051908101604052809291908181526020018280546125d39061791d565b80156126205780601f106125f557610100808354040283529160200191612620565b820191906000526020600020905b81548152906001019060200180831161260357829003601f168201915b5050509183525050604080516101008082018352601a85015460ff808216151584529082900481161515602084810191909152601b87015494840194909452601c8601546060840152601d86015480821615156080850152919091048116151560a0830152601e85015460c0830152601f90940154909316151560e0840152015284518590879081106126c357634e487b7160e01b600052603260045260246000fd5b60209081029190910101526126d96001866178af565b945050505b806126e881617958565b915050611c11565b60016020818152600092835260409283902080549281015484516101c081018652600283018054825260038401546001600160a01b03908116958301959095526004840180549697959093169593949193909291840191906127519061791d565b80601f016020809104026020016040519081016040528092919081815260200182805461277d9061791d565b80156127ca5780601f1061279f576101008083540402835291602001916127ca565b820191906000526020600020905b8154815290600101906020018083116127ad57829003601f168201915b505050505081526020016003820180546127e39061791d565b80601f016020809104026020016040519081016040528092919081815260200182805461280f9061791d565b801561285c5780601f106128315761010080835404028352916020019161285c565b820191906000526020600020905b81548152906001019060200180831161283f57829003601f168201915b505050505081526020016004820180546128759061791d565b80601f01602080910402602001604051908101604052809291908181526020018280546128a19061791d565b80156128ee5780601f106128c3576101008083540402835291602001916128ee565b820191906000526020600020905b8154815290600101906020018083116128d157829003601f168201915b505050505081526020016005820180546129079061791d565b80601f01602080910402602001604051908101604052809291908181526020018280546129339061791d565b80156129805780601f1061295557610100808354040283529160200191612980565b820191906000526020600020905b81548152906001019060200180831161296357829003601f168201915b505050505081526020016006820180546129999061791d565b80601f01602080910402602001604051908101604052809291908181526020018280546129c59061791d565b8015612a125780601f106129e757610100808354040283529160200191612a12565b820191906000526020600020905b8154815290600101906020018083116129f557829003601f168201915b5050509183525050600782015460ff1615156020820152600882018054604090920191612a3e9061791d565b80601f0160208091040260200160405190810160405280929190818152602001828054612a6a9061791d565b8015612ab75780601f10612a8c57610100808354040283529160200191612ab7565b820191906000526020600020905b815481529060010190602001808311612a9a57829003601f168201915b50505050508152602001600982018054612ad09061791d565b80601f0160208091040260200160405190810160405280929190818152602001828054612afc9061791d565b8015612b495780601f10612b1e57610100808354040283529160200191612b49565b820191906000526020600020905b815481529060010190602001808311612b2c57829003601f168201915b50505050508152602001600a82018054612b629061791d565b80601f0160208091040260200160405190810160405280929190818152602001828054612b8e9061791d565b8015612bdb5780601f10612bb057610100808354040283529160200191612bdb565b820191906000526020600020905b815481529060010190602001808311612bbe57829003601f168201915b50505050508152602001600b82018054612bf49061791d565b80601f0160208091040260200160405190810160405280929190818152602001828054612c209061791d565b8015612c6d5780601f10612c4257610100808354040283529160200191612c6d565b820191906000526020600020905b815481529060010190602001808311612c5057829003601f168201915b50505050508152602001600c82018054612c869061791d565b80601f0160208091040260200160405190810160405280929190818152602001828054612cb29061791d565b8015612cff5780601f10612cd457610100808354040283529160200191612cff565b820191906000526020600020905b815481529060010190602001808311612ce257829003601f168201915b50505050508152602001600d82018054612d189061791d565b80601f0160208091040260200160405190810160405280929190818152602001828054612d449061791d565b8015612d915780601f10612d6657610100808354040283529160200191612d91565b820191906000526020600020905b815481529060010190602001808311612d7457829003601f168201915b50505050508152505090806010015490806011015490806012015490806013015490806014015490806015018054612dc89061791d565b80601f0160208091040260200160405190810160405280929190818152602001828054612df49061791d565b8015612e415780601f10612e1657610100808354040283529160200191612e41565b820191906000526020600020905b815481529060010190602001808311612e2457829003601f168201915b505050505090806016018054612e569061791d565b80601f0160208091040260200160405190810160405280929190818152602001828054612e829061791d565b8015612ecf5780601f10612ea457610100808354040283529160200191612ecf565b820191906000526020600020905b815481529060010190602001808311612eb257829003601f168201915b505050505090806017018054612ee49061791d565b80601f0160208091040260200160405190810160405280929190818152602001828054612f109061791d565b8015612f5d5780601f10612f3257610100808354040283529160200191612f5d565b820191906000526020600020905b815481529060010190602001808311612f4057829003601f168201915b505050505090806018018054612f729061791d565b80601f0160208091040260200160405190810160405280929190818152602001828054612f9e9061791d565b8015612feb5780601f10612fc057610100808354040283529160200191612feb565b820191906000526020600020905b815481529060010190602001808311612fce57829003601f168201915b5050505050908060190180546130009061791d565b80601f016020809104026020016040519081016040528092919081815260200182805461302c9061791d565b80156130795780601f1061304e57610100808354040283529160200191613079565b820191906000526020600020905b81548152906001019060200180831161305c57829003601f168201915b5050604080516101008082018352601a88015460ff8082161515845290829004811615156020840152601b89015493830193909352601c8801546060830152601d88015480841615156080840152048216151560a0820152601e87015460c0820152601f9096015416151560e086015250919291508f9050565b60008111801561310557506007548111155b6131215760405162461bcd60e51b815260040161113d9061761e565b6000818152600160205260409020601d810154610100900460ff161561314657600080fd5b601d81015460ff161561315857600080fd5b601d8101805461ffff19169055601f8101805460ff191660019081179091556000838152602082905260409020825481558183015491810180546001600160a01b03199081166001600160a01b03948516179091556002808501805491840191825560038087015490850180549094169516949094179091556004808501805486959392850191906131e99061791d565b6131f4929190616a35565b5060038201816003019080546132099061791d565b613214929190616a35565b5060048201816004019080546132299061791d565b613234929190616a35565b5060058201816005019080546132499061791d565b613254929190616a35565b5060068201816006019080546132699061791d565b613274929190616a35565b50600782810154908201805460ff191660ff909216151591909117905560088083018054918301916132a59061791d565b6132b0929190616a35565b5060098201816009019080546132c59061791d565b6132d0929190616a35565b50600a820181600a019080546132e59061791d565b6132f0929190616a35565b50600b820181600b019080546133059061791d565b613310929190616a35565b50600c820181600c019080546133259061791d565b613330929190616a35565b50600d820181600d019080546133459061791d565b613350929190616a35565b505050601082015481601001556011820154816011015560128201548160120155601382015481601301556014820154816014015560158201816015019080546133999061791d565b6133a4929190616a35565b5060168201816016019080546133b99061791d565b6133c4929190616a35565b5060178201816017019080546133d99061791d565b6133e4929190616a35565b5060188201816018019080546133f99061791d565b613404929190616a35565b5060198201816019019080546134199061791d565b613424929190616a35565b50601a8281018054918301805460ff938416151560ff198083168217845593546101009081900486161515810261ff001992831661ffff199485161717909355601b8088015490870155601c8088015490870155601d808801805491880180549288161515838816811782559154869004881615159095029216921691909117179055601e8085015490840155601f93840154939092018054939091161515929091169190911790555050565b600081815260016020526040812060100154606091808267ffffffffffffffff81111561350e57634e487b7160e01b600052604160045260246000fd5b60405190808252806020026020018201604052801561357357816020015b613560604051806080016040528060008152602001600081526020016000815260200160006001600160a01b031681525090565b81526020019060019003908161352c5790505b50905060005b8381101561363157600061358e8260016178af565b6000888152600260208181526040808420858552825292839020835160808101855281548152600182015492810192909252918201549281019290925260038101546001600160a01b0316606083015285519293509185908790811061360457634e487b7160e01b600052603260045260246000fd5b602090810291909101015261361a6001866178af565b94505050808061362990617958565b915050613579565b50949350505050565b613660604051806060016040528060001515815260200160608152602001600081525090565b3360009081526004602052604090205460ff161515600114156137475733600090815260046020908152604091829020825160608101909352805460ff161515835260018101805491928401916136b69061791d565b80601f01602080910402602001604051908101604052809291908181526020018280546136e29061791d565b801561372f5780601f106137045761010080835404028352916020019161372f565b820191906000526020600020905b81548152906001019060200180831161371257829003601f168201915b50505050508152602001600282015481525050905090565b33600090815260046020908152604091829020825160608101909352805460ff161515835260018101805491928401916136b69061791d565b60008060008060008060008054906101000a90046001600160a01b03166001600160a01b031663feaf968c6040518163ffffffff1660e01b815260040160a06040518083038186803b1580156137d557600080fd5b505afa1580156137e9573d6000803e3d6000fd5b505050506040513d601f19601f8201168201806040525081019061380d9190617130565b945094509450945094506000821161385c5760405162461bcd60e51b8152602060048201526012602482015271526f756e64206e6f7420636f6d706c65746560701b604482015260640161113d565b5091949350505050565b600754606090600080805b838110156138cb57336001600061388884836178af565b81526020810191909152604001600020600301546001600160a01b031614156138b9576138b66001846178af565b92505b806138c381617958565b915050613871565b5060008267ffffffffffffffff8111156138f557634e487b7160e01b600052604160045260246000fd5b60405190808252806020026020018201604052801561392e57816020015b61391b616973565b8152602001906001900390816139135790505b50905060005b8481101561363157336001600061394b84836178af565b81526020810191909152604001600020600301546001600160a01b031614156143fe57600061397b8260016178af565b60008181526001602081815260409283902083516101c0808201865282548252938201546001600160a01b03908116828501528551948501865260028301805486526003840154909116938501939093526004820180549697509195909486948682019490939092918401916139f09061791d565b80601f0160208091040260200160405190810160405280929190818152602001828054613a1c9061791d565b8015613a695780601f10613a3e57610100808354040283529160200191613a69565b820191906000526020600020905b815481529060010190602001808311613a4c57829003601f168201915b50505050508152602001600382018054613a829061791d565b80601f0160208091040260200160405190810160405280929190818152602001828054613aae9061791d565b8015613afb5780601f10613ad057610100808354040283529160200191613afb565b820191906000526020600020905b815481529060010190602001808311613ade57829003601f168201915b50505050508152602001600482018054613b149061791d565b80601f0160208091040260200160405190810160405280929190818152602001828054613b409061791d565b8015613b8d5780601f10613b6257610100808354040283529160200191613b8d565b820191906000526020600020905b815481529060010190602001808311613b7057829003601f168201915b50505050508152602001600582018054613ba69061791d565b80601f0160208091040260200160405190810160405280929190818152602001828054613bd29061791d565b8015613c1f5780601f10613bf457610100808354040283529160200191613c1f565b820191906000526020600020905b815481529060010190602001808311613c0257829003601f168201915b50505050508152602001600682018054613c389061791d565b80601f0160208091040260200160405190810160405280929190818152602001828054613c649061791d565b8015613cb15780601f10613c8657610100808354040283529160200191613cb1565b820191906000526020600020905b815481529060010190602001808311613c9457829003601f168201915b5050509183525050600782015460ff1615156020820152600882018054604090920191613cdd9061791d565b80601f0160208091040260200160405190810160405280929190818152602001828054613d099061791d565b8015613d565780601f10613d2b57610100808354040283529160200191613d56565b820191906000526020600020905b815481529060010190602001808311613d3957829003601f168201915b50505050508152602001600982018054613d6f9061791d565b80601f0160208091040260200160405190810160405280929190818152602001828054613d9b9061791d565b8015613de85780601f10613dbd57610100808354040283529160200191613de8565b820191906000526020600020905b815481529060010190602001808311613dcb57829003601f168201915b50505050508152602001600a82018054613e019061791d565b80601f0160208091040260200160405190810160405280929190818152602001828054613e2d9061791d565b8015613e7a5780601f10613e4f57610100808354040283529160200191613e7a565b820191906000526020600020905b815481529060010190602001808311613e5d57829003601f168201915b50505050508152602001600b82018054613e939061791d565b80601f0160208091040260200160405190810160405280929190818152602001828054613ebf9061791d565b8015613f0c5780601f10613ee157610100808354040283529160200191613f0c565b820191906000526020600020905b815481529060010190602001808311613eef57829003601f168201915b50505050508152602001600c82018054613f259061791d565b80601f0160208091040260200160405190810160405280929190818152602001828054613f519061791d565b8015613f9e5780601f10613f7357610100808354040283529160200191613f9e565b820191906000526020600020905b815481529060010190602001808311613f8157829003601f168201915b50505050508152602001600d82018054613fb79061791d565b80601f0160208091040260200160405190810160405280929190818152602001828054613fe39061791d565b80156140305780601f1061400557610100808354040283529160200191614030565b820191906000526020600020905b81548152906001019060200180831161401357829003601f168201915b5050505050815250508152602001601082015481526020016011820154815260200160128201548152602001601382015481526020016014820154815260200160158201805461407f9061791d565b80601f01602080910402602001604051908101604052809291908181526020018280546140ab9061791d565b80156140f85780601f106140cd576101008083540402835291602001916140f8565b820191906000526020600020905b8154815290600101906020018083116140db57829003601f168201915b505050505081526020016016820180546141119061791d565b80601f016020809104026020016040519081016040528092919081815260200182805461413d9061791d565b801561418a5780601f1061415f5761010080835404028352916020019161418a565b820191906000526020600020905b81548152906001019060200180831161416d57829003601f168201915b505050505081526020016017820180546141a39061791d565b80601f01602080910402602001604051908101604052809291908181526020018280546141cf9061791d565b801561421c5780601f106141f15761010080835404028352916020019161421c565b820191906000526020600020905b8154815290600101906020018083116141ff57829003601f168201915b505050505081526020016018820180546142359061791d565b80601f01602080910402602001604051908101604052809291908181526020018280546142619061791d565b80156142ae5780601f10614283576101008083540402835291602001916142ae565b820191906000526020600020905b81548152906001019060200180831161429157829003601f168201915b505050505081526020016019820180546142c79061791d565b80601f01602080910402602001604051908101604052809291908181526020018280546142f39061791d565b80156143405780601f1061431557610100808354040283529160200191614340565b820191906000526020600020905b81548152906001019060200180831161432357829003601f168201915b5050509183525050604080516101008082018352601a85015460ff808216151584529082900481161515602084810191909152601b87015494840194909452601c8601546060840152601d86015480821615156080850152919091048116151560a0830152601e85015460c0830152601f90940154909316151560e0840152015284518590879081106143e357634e487b7160e01b600052603260045260246000fd5b60209081029190910101526143f96001866178af565b945050505b8061440881617958565b915050613934565b60008061441b61443f565b90506144388161443285662386f26fc10000616847565b90616853565b9392505050565b6000805460408051633fabe5a360e21b8152905183926001600160a01b03169163feaf968c9160048083019260a0929190829003018186803b15801561448457600080fd5b505afa158015614498573d6000803e3d6000fd5b505050506040513d601f19601f820116820180604052508101906144bc9190617130565b5050509150506144cb8161685f565b91505090565b6008546060906000808267ffffffffffffffff81111561450157634e487b7160e01b600052604160045260246000fd5b60405190808252806020026020018201604052801561453a57816020015b614527616abc565b81526020019060019003908161451f5790505b50905060005b838110156111075760006145558260016178af565b60008181526003602090815260409182902082516101c0810184528154815260018201546001600160a01b03169281019290925260028101805494955090939192849290840191906145a69061791d565b80601f01602080910402602001604051908101604052809291908181526020018280546145d29061791d565b801561461f5780601f106145f45761010080835404028352916020019161461f565b820191906000526020600020905b81548152906001019060200180831161460257829003601f168201915b505050505081526020016003820180546146389061791d565b80601f01602080910402602001604051908101604052809291908181526020018280546146649061791d565b80156146b15780601f10614686576101008083540402835291602001916146b1565b820191906000526020600020905b81548152906001019060200180831161469457829003601f168201915b505050505081526020016004820180546146ca9061791d565b80601f01602080910402602001604051908101604052809291908181526020018280546146f69061791d565b80156147435780601f1061471857610100808354040283529160200191614743565b820191906000526020600020905b81548152906001019060200180831161472657829003601f168201915b5050505050815260200160058201805461475c9061791d565b80601f01602080910402602001604051908101604052809291908181526020018280546147889061791d565b80156147d55780601f106147aa576101008083540402835291602001916147d5565b820191906000526020600020905b8154815290600101906020018083116147b857829003601f168201915b505050505081526020016006820180546147ee9061791d565b80601f016020809104026020016040519081016040528092919081815260200182805461481a9061791d565b80156148675780601f1061483c57610100808354040283529160200191614867565b820191906000526020600020905b81548152906001019060200180831161484a57829003601f168201915b5050509183525050600782015460ff16151560208201526008820180546040909201916148939061791d565b80601f01602080910402602001604051908101604052809291908181526020018280546148bf9061791d565b801561490c5780601f106148e15761010080835404028352916020019161490c565b820191906000526020600020905b8154815290600101906020018083116148ef57829003601f168201915b505050505081526020016009820180546149259061791d565b80601f01602080910402602001604051908101604052809291908181526020018280546149519061791d565b801561499e5780601f106149735761010080835404028352916020019161499e565b820191906000526020600020905b81548152906001019060200180831161498157829003601f168201915b50505050508152602001600a820180546149b79061791d565b80601f01602080910402602001604051908101604052809291908181526020018280546149e39061791d565b8015614a305780601f10614a0557610100808354040283529160200191614a30565b820191906000526020600020905b815481529060010190602001808311614a1357829003601f168201915b50505050508152602001600b82018054614a499061791d565b80601f0160208091040260200160405190810160405280929190818152602001828054614a759061791d565b8015614ac25780601f10614a9757610100808354040283529160200191614ac2565b820191906000526020600020905b815481529060010190602001808311614aa557829003601f168201915b50505050508152602001600c82018054614adb9061791d565b80601f0160208091040260200160405190810160405280929190818152602001828054614b079061791d565b8015614b545780601f10614b2957610100808354040283529160200191614b54565b820191906000526020600020905b815481529060010190602001808311614b3757829003601f168201915b50505050508152602001600d82018054614b6d9061791d565b80601f0160208091040260200160405190810160405280929190818152602001828054614b999061791d565b8015614be65780601f10614bbb57610100808354040283529160200191614be6565b820191906000526020600020905b815481529060010190602001808311614bc957829003601f168201915b505050505081525050848681518110614c0f57634e487b7160e01b600052603260045260246000fd5b6020908102919091010152614c256001866178af565b945050508080614c3490617958565b915050614540565b600081118015614c4e57506007548111155b614c6a5760405162461bcd60e51b815260040161113d9061761e565b6000818152600160205260409020601d810154610100900460ff1615614c8f57600080fd5b601d81015460ff1615614ca157600080fd5b601d8101805461ffff1916610101179055601f8101805460ff1916905542601e8201556000828152600160208190526040909120825481558183015491810180546001600160a01b039384166001600160a01b0319918216179091556002808501805491840191825560038087015490850180549190961693169290921790935560048085018054869592850191906131e99061791d565b60008261014001515111614d885760405162461bcd60e51b8152602060048201526016602482015275125b5859d94812185cda081a5cc81c995c5d5a5c995960521b604482015260640161113d565b60008261018001515111614dde5760405162461bcd60e51b815260206004820152601760248201527f4465736372697074696f6e206973207265717569726564000000000000000000604482015260640161113d565b60008261010001515111614e2b5760405162461bcd60e51b815260206004820152601460248201527310d85d1959dbdc9e481a5cc81c995c5d5a5c995960621b604482015260640161113d565b60008261012001515111614e755760405162461bcd60e51b8152602060048201526011602482015270151a5d1b19481a5cc81c995c5d5a5c9959607a1b604482015260640161113d565b33614e7f57600080fd5b60078054906000614e8f83617958565b9091555050600754600081815260016020818152604080842094855591840180546001600160a01b0319163390811790915583526004905290205460ff1661533d57600854614edf9060016178af565b600881905560028201556003810180546001600160a01b0319163317905560408084015101518051614f1b916004840191602090910190616b36565b506040830151606001518051614f3b916005840191602090910190616b36565b506040830151608001518051614f5b916006840191602090910190616b36565b50604083015160a001518051614f7b916007840191602090910190616b36565b50604083015160c001518051614f9b916008840191602090910190616b36565b5060098101805460ff19166001179055604083015161010001518051614fcb91600a840191602090910190616b36565b50604083015161012001518051614fec91600b840191602090910190616b36565b5060408301516101400151805161500d91600c840191602090910190616b36565b5060408301516101600151805161502e91600d840191602090910190616b36565b5060408301516101800151805161504f91600e840191602090910190616b36565b5060408301516101a00151805161507091600f840191602090910190616b36565b50600880546000818152600360209081526040808320938455600190930180546001600160a01b03191633179055868301518301519354825291902082516150c2936002909201929190910190616b36565b50604080840151606001516008546000908152600360208181529390912082516150f29491909201920190616b36565b508260400151608001516003600060085481526020019081526020016000206004019080519060200190615127929190616b36565b50826040015160a00151600360006008548152602001908152602001600020600501908051906020019061515c929190616b36565b50826040015160c001516003600060085481526020019081526020016000206006019080519060200190615191929190616b36565b50600880546000908152600360209081526040808320600701805460ff1916600117905586810151610100015184548452922082516151d894919091019290910190616b36565b5082604001516101200151600360006008548152602001908152602001600020600901908051906020019061520e929190616b36565b5082604001516101400151600360006008548152602001908152602001600020600a019080519060200190615244929190616b36565b5082604001516101600151600360006008548152602001908152602001600020600b01908051906020019061527a929190616b36565b5082604001516101800151600360006008548152602001908152602001600020600c0190805190602001906152b0929190616b36565b5082604001516101a00151600360006008548152602001908152602001600020600d0190805190602001906152e6929190616b36565b5033600090815260046020908152604091829020805460ff191660019081178255868401519093015180516153219492909201920190616b36565b506008543360009081526004602052604090206002015561562f565b615346826168b5565b6154126040518060400160405280600c81526020016b7573657220636f756e74727960a01b81525060036000858152602001908152602001600020600301805461538f9061791d565b80601f01602080910402602001604051908101604052809291908181526020018280546153bb9061791d565b80156154085780601f106153dd57610100808354040283529160200191615408565b820191906000526020600020905b8154815290600101906020018083116153eb57829003601f168201915b50505050506168fd565b6000828152600360208190526040909120805460028085019190915591830180546001600160a01b031916331790550180546004830191906154539061791d565b61545e929190616a35565b5060008281526003602081905260409091200180546005830191906154829061791d565b61548d929190616a35565b50600082815260036020526040902060040180546006830191906154b09061791d565b6154bb929190616a35565b50600082815260036020526040902060050180546007830191906154de9061791d565b6154e9929190616a35565b506000828152600360205260409020600601805460088301919061550c9061791d565b615517929190616a35565b5060098101805460ff1916600117905560008281526003602052604090206008018054600a830191906155499061791d565b615554929190616a35565b5060008281526003602052604090206009018054600b830191906155779061791d565b615582929190616a35565b506000828152600360205260409020600a018054600c830191906155a59061791d565b6155b0929190616a35565b506000828152600360205260409020600b018054600d830191906155d39061791d565b6155de929190616a35565b506000828152600360205260409020600c018054600e830191906156019061791d565b61560c929190616a35565b5060408301516101a00151805161562d91600f840191602090910190616b36565b505b600060118201819055601082015542601282015560c0830151601382015560e083015160148201556101008301518051615673916015840191602090910190616b36565b506101208301518051615690916016840191602090910190616b36565b5061014083015180516156ad916017840191602090910190616b36565b5061010083015180516156ca916015840191602090910190616b36565b5061016083015180516156e7916018840191602090910190616b36565b506101808301518051615704916019840191602090910190616b36565b50601a8101805461ffff19908116909155601d820180549091169055601f8101805460ff191690556000601e8201819055601b8201819055601c909101555050565b60008111801561575857506007548111155b6157745760405162461bcd60e51b815260040161113d9061761e565b6000818152600160208190526040909120601a8101805461ff001916905590810180546001600160a01b03198082166001600160a01b039283161790925560038301805492831692909116919091179055600481018054829182916002830191829181906131e99061791d565b6000811180156157f357506007548111155b6157fc57600080fd5b6000818152600160205260409020601481015460118201541061582957601a8101805460ff191660011790555b60018101546001600160a01b03166011600a60006158478383616853565b9050606460006158578284616853565b905060006158653483616853565b90506001600160a01b0387166108fc61587e3484616946565b6040518115909202916000818181858888f193505050501580156158a6573d6000803e3d6000fd5b506005546040516001600160a01b0390911690819083156108fc029084906000818181858888f193505050501580156158e3573d6000803e3d6000fd5b50346009546158f291906178af565b60095560118901546159059034906178af565b60118a0155601089015461591a9060016178af565b60108a01556006805490600061592f83617958565b91905055508860100154600260008b60000154815260200190815260200160002060008b6010015481526020019081526020016000206000018190555034600260008b60000154815260200190815260200160002060008b6010015481526020019081526020016000206001018190555042600260008b60000154815260200190815260200160002060008b6010015481526020019081526020016000206002018190555033600260008b60000154815260200190815260200160002060008b60100154815260200190815260200160002060030160006101000a8154816001600160a01b0302191690836001600160a01b0316021790555088600160008c8152602001908152602001600020600082015481600001556001820160009054906101000a90046001600160a01b03168160010160006101000a8154816001600160a01b0302191690836001600160a01b031602179055506002820181600201600082015481600001556001820160009054906101000a90046001600160a01b03168160010160006101000a8154816001600160a01b0302191690836001600160a01b031602179055506002820181600201908054615aec9061791d565b615af7929190616a35565b506003820181600301908054615b0c9061791d565b615b17929190616a35565b506004820181600401908054615b2c9061791d565b615b37929190616a35565b506005820181600501908054615b4c9061791d565b615b57929190616a35565b506006820181600601908054615b6c9061791d565b615b77929190616a35565b50600782810154908201805460ff191660ff90921615159190911790556008808301805491830191615ba89061791d565b615bb3929190616a35565b506009820181600901908054615bc89061791d565b615bd3929190616a35565b50600a820181600a01908054615be89061791d565b615bf3929190616a35565b50600b820181600b01908054615c089061791d565b615c13929190616a35565b50600c820181600c01908054615c289061791d565b615c33929190616a35565b50600d820181600d01908054615c489061791d565b615c53929190616a35565b50505060108201548160100155601182015481601101556012820154816012015560138201548160130155601482015481601401556015820181601501908054615c9c9061791d565b615ca7929190616a35565b506016820181601601908054615cbc9061791d565b615cc7929190616a35565b506017820181601701908054615cdc9061791d565b615ce7929190616a35565b506018820181601801908054615cfc9061791d565b615d07929190616a35565b506019820181601901908054615d1c9061791d565b615d27929190616a35565b50601a8281018054918301805460ff938416151560ff198083168217845593546101009081900486161515810261ff001992831661ffff199485161717909355601b8088015490870155601c8088015490870155601d808801805491880180549288161515838816811782559154869004881615159095029216921691909117179055601e8085015490840155601f938401549390920180549390911615159290911691909117905550505050505050505050565b615de4616973565b6000828152600160205260409020548214156168425760008281526001602081815260409283902083516101c0808201865282548252938201546001600160a01b03908116828501528551948501865260028301805486526003840154909116938501939093526004820180549195929486840194909390929084019190615e6b9061791d565b80601f0160208091040260200160405190810160405280929190818152602001828054615e979061791d565b8015615ee45780601f10615eb957610100808354040283529160200191615ee4565b820191906000526020600020905b815481529060010190602001808311615ec757829003601f168201915b50505050508152602001600382018054615efd9061791d565b80601f0160208091040260200160405190810160405280929190818152602001828054615f299061791d565b8015615f765780601f10615f4b57610100808354040283529160200191615f76565b820191906000526020600020905b815481529060010190602001808311615f5957829003601f168201915b50505050508152602001600482018054615f8f9061791d565b80601f0160208091040260200160405190810160405280929190818152602001828054615fbb9061791d565b80156160085780601f10615fdd57610100808354040283529160200191616008565b820191906000526020600020905b815481529060010190602001808311615feb57829003601f168201915b505050505081526020016005820180546160219061791d565b80601f016020809104026020016040519081016040528092919081815260200182805461604d9061791d565b801561609a5780601f1061606f5761010080835404028352916020019161609a565b820191906000526020600020905b81548152906001019060200180831161607d57829003601f168201915b505050505081526020016006820180546160b39061791d565b80601f01602080910402602001604051908101604052809291908181526020018280546160df9061791d565b801561612c5780601f106161015761010080835404028352916020019161612c565b820191906000526020600020905b81548152906001019060200180831161610f57829003601f168201915b5050509183525050600782015460ff16151560208201526008820180546040909201916161589061791d565b80601f01602080910402602001604051908101604052809291908181526020018280546161849061791d565b80156161d15780601f106161a6576101008083540402835291602001916161d1565b820191906000526020600020905b8154815290600101906020018083116161b457829003601f168201915b505050505081526020016009820180546161ea9061791d565b80601f01602080910402602001604051908101604052809291908181526020018280546162169061791d565b80156162635780601f1061623857610100808354040283529160200191616263565b820191906000526020600020905b81548152906001019060200180831161624657829003601f168201915b50505050508152602001600a8201805461627c9061791d565b80601f01602080910402602001604051908101604052809291908181526020018280546162a89061791d565b80156162f55780601f106162ca576101008083540402835291602001916162f5565b820191906000526020600020905b8154815290600101906020018083116162d857829003601f168201915b50505050508152602001600b8201805461630e9061791d565b80601f016020809104026020016040519081016040528092919081815260200182805461633a9061791d565b80156163875780601f1061635c57610100808354040283529160200191616387565b820191906000526020600020905b81548152906001019060200180831161636a57829003601f168201915b50505050508152602001600c820180546163a09061791d565b80601f01602080910402602001604051908101604052809291908181526020018280546163cc9061791d565b80156164195780601f106163ee57610100808354040283529160200191616419565b820191906000526020600020905b8154815290600101906020018083116163fc57829003601f168201915b50505050508152602001600d820180546164329061791d565b80601f016020809104026020016040519081016040528092919081815260200182805461645e9061791d565b80156164ab5780601f10616480576101008083540402835291602001916164ab565b820191906000526020600020905b81548152906001019060200180831161648e57829003601f168201915b505050505081525050815260200160108201548152602001601182015481526020016012820154815260200160138201548152602001601482015481526020016015820180546164fa9061791d565b80601f01602080910402602001604051908101604052809291908181526020018280546165269061791d565b80156165735780601f1061654857610100808354040283529160200191616573565b820191906000526020600020905b81548152906001019060200180831161655657829003601f168201915b5050505050815260200160168201805461658c9061791d565b80601f01602080910402602001604051908101604052809291908181526020018280546165b89061791d565b80156166055780601f106165da57610100808354040283529160200191616605565b820191906000526020600020905b8154815290600101906020018083116165e857829003601f168201915b5050505050815260200160178201805461661e9061791d565b80601f016020809104026020016040519081016040528092919081815260200182805461664a9061791d565b80156166975780601f1061666c57610100808354040283529160200191616697565b820191906000526020600020905b81548152906001019060200180831161667a57829003601f168201915b505050505081526020016018820180546166b09061791d565b80601f01602080910402602001604051908101604052809291908181526020018280546166dc9061791d565b80156167295780601f106166fe57610100808354040283529160200191616729565b820191906000526020600020905b81548152906001019060200180831161670c57829003601f168201915b505050505081526020016019820180546167429061791d565b80601f016020809104026020016040519081016040528092919081815260200182805461676e9061791d565b80156167bb5780601f10616790576101008083540402835291602001916167bb565b820191906000526020600020905b81548152906001019060200180831161679e57829003601f168201915b5050509183525050604080516101008082018352601a85015460ff808216151584529082900481161515602084810191909152601b87015494840194909452601c8601546060840152601d86015480821615156080850152919091048116151560a0830152601e85015460c0830152601f90940154909316151560e0840152015292915050565b919050565b600061443882846178e7565b600061443882846178c7565b6000808212156168b15760405162461bcd60e51b815260206004820181905260248201527f53616665436173743a2076616c7565206d75737420626520706f736974697665604482015260640161113d565b5090565b6168fa816040516024016168cb91815260200190565b60408051601f198184030181529190526020810180516001600160e01b031663f5b1bba960e01b179052616952565b50565b61694282826040516024016169139291906175f0565b60408051601f198184030181529190526020810180516001600160e01b0316634b5c427760e01b179052616952565b5050565b60006144388284617906565b80516a636f6e736f6c652e6c6f67602083016000808483855afa5050505050565b604080516101c08101825260008082526020820152908101616993616abc565b815260200160008152602001600081526020016000815260200160008152602001600081526020016060815260200160608152602001606081526020016060815260200160608152602001616a306040518061010001604052806000151581526020016000151581526020016000815260200160008152602001600015158152602001600015158152602001600081526020016000151581525090565b905290565b828054616a419061791d565b90600052602060002090601f016020900481019282616a635760008555616ab0565b82601f10616a745780548555616ab0565b82800160010185558215616ab057600052602060002091601f016020900482015b82811115616ab0578254825591600101919060010190616a95565b506168b1929150616baa565b604051806101c001604052806000815260200160006001600160a01b0316815260200160608152602001606081526020016060815260200160608152602001606081526020016000151581526020016060815260200160608152602001606081526020016060815260200160608152602001606081525090565b828054616b429061791d565b90600052602060002090601f016020900481019282616b645760008555616ab0565b82601f10616b7d57805160ff1916838001178555616ab0565b82800160010185558215616ab0579182015b82811115616ab0578251825591602001919060010190616b8f565b5b808211156168b15760008155600101616bab565b80356168428161799f565b8035801515811461684257600080fd5b600082601f830112616bea578081fd5b813567ffffffffffffffff80821115616c0557616c05617989565b604051601f8301601f19908116603f01168101908282118183101715616c2d57616c2d617989565b81604052838152866020858801011115616c45578485fd5b8360208701602083013792830160200193909352509392505050565b6000610100808385031215616c74578182fd5b6040519081019067ffffffffffffffff82118183101715616c9757616c97617989565b81604052809250616ca784616bca565b8152616cb560208501616bca565b60208201526040840135604082015260608401356060820152616cda60808501616bca565b6080820152616ceb60a08501616bca565b60a082015260c084013560c0820152616d0660e08501616bca565b60e0820152505092915050565b60006101c08284031215616d25578081fd5b616d2d617885565b905081358152616d3f60208301616bbf565b6020820152604082013567ffffffffffffffff80821115616d5f57600080fd5b616d6b85838601616bda565b60408401526060840135915080821115616d8457600080fd5b616d9085838601616bda565b60608401526080840135915080821115616da957600080fd5b616db585838601616bda565b608084015260a0840135915080821115616dce57600080fd5b616dda85838601616bda565b60a084015260c0840135915080821115616df357600080fd5b616dff85838601616bda565b60c0840152616e1060e08501616bca565b60e084015261010091508184013581811115616e2b57600080fd5b616e3786828701616bda565b838501525061012091508184013581811115616e5257600080fd5b616e5e86828701616bda565b838501525061014091508184013581811115616e7957600080fd5b616e8586828701616bda565b838501525061016091508184013581811115616ea057600080fd5b616eac86828701616bda565b838501525061018091508184013581811115616ec757600080fd5b616ed386828701616bda565b83850152506101a091508184013581811115616eee57600080fd5b616efa86828701616bda565b8385015250505092915050565b805169ffffffffffffffffffff8116811461684257600080fd5b600060208284031215616f32578081fd5b81356144388161799f565b60008060408385031215616f4f578081fd5b823567ffffffffffffffff80821115616f66578283fd5b908401906102a08287031215616f7a578283fd5b616f82617885565b82358152616f9260208401616bbf565b6020820152604083013582811115616fa8578485fd5b616fb488828601616d13565b604083015250606083013560608201526080830135608082015260a083013560a082015260c083013560c082015260e083013560e08201526101008084013583811115616fff578586fd5b61700b89828701616bda565b8284015250506101208084013583811115617024578586fd5b61703089828701616bda565b8284015250506101408084013583811115617049578586fd5b61705589828701616bda565b828401525050610160808401358381111561706e578586fd5b61707a89828701616bda565b8284015250506101808084013583811115617093578586fd5b61709f89828701616bda565b8284015250506101a091506170b687838501616c61565b9181019190915295602094909401359450505050565b6000602082840312156170dd578081fd5b5035919050565b600080604083850312156170f6578182fd5b50508035926020909101359150565b600080600060608486031215617119578081fd5b505081359360208301359350604090920135919050565b600080600080600060a08688031215617147578081fd5b61715086616f07565b945060208601519350604086015192506060860151915061717360808701616f07565b90509295509295909350565b60008151808452815b818110156171a457602081850181015186830182015201617188565b818111156171b55782602083870101525b50601f01601f19169290920160200192915050565b60006102a08251845260208301516171ed60208601826001600160a01b03169052565b5060408301518160408601526172058286018261733b565b915050606083015160608501526080830151608085015260a083015160a085015260c083015160c085015260e083015160e08501526101008084015185830382870152617252838261717f565b92505050610120808401518583038287015261726e838261717f565b92505050610140808401518583038287015261728a838261717f565b9250505061016080840151858303828701526172a6838261717f565b9250505061018080840151858303828701526172c2838261717f565b925050506101a0808401516172d9828701826172e3565b5090949350505050565b805115158252602081015115156020830152604081015160408301526060810151606083015260808101511515608083015260a0810151151560a083015260c081015160c083015260e0810151151560e08301525050565b60006101c082518452602083015161735e60208601826001600160a01b03169052565b5060408301518160408601526173768286018261717f565b91505060608301518482036060860152617390828261717f565b915050608083015184820360808601526173aa828261717f565b91505060a083015184820360a08601526173c4828261717f565b91505060c083015184820360c08601526173de828261717f565b91505060e08301516173f460e086018215159052565b50610100808401518583038287015261740d838261717f565b925050506101208084015185830382870152617429838261717f565b925050506101408084015185830382870152617445838261717f565b925050506101608084015185830382870152617461838261717f565b92505050610180808401518583038287015261747d838261717f565b925050506101a08084015185830382870152617499838261717f565b9695505050505050565b6000602080830181845280855180835260408601915060408160051b8701019250838701855b828110156174f757603f198886030184526174e58583516171ca565b945092850192908501906001016174c9565b5092979650505050505050565b602080825282518282018190526000919060409081850190868401855b8281101561756457815180518552868101518786015285810151868601526060908101516001600160a01b03169085015260809093019290850190600101617521565b5091979650505050505050565b6000602080830181845280855180835260408601915060408160051b8701019250838701855b828110156174f757603f198886030184526175b385835161733b565b94509285019290850190600101617597565b83151581526060602082015260006175e0606083018561717f565b9050826040830152949350505050565b604081526000617603604083018561717f565b8281036020840152617615818561717f565b95945050505050565b602080825260159082015274191bdb985d1a5bdb881a59081b9bdd081d985b1a59605a1b604082015260600190565b60208152600061443860208301846171ca565b602081528151151560208201526000602083015160606040840152617688608084018261717f565b9050604084015160608401528091505092915050565b8e81526001600160a01b038e1660208201526102a0604082015260006176c86102a083018f61733b565b8d60608401528c60808401528b60a08401528a60c08401528960e08401528281036101008401526176f9818a61717f565b905082810361012084015261770e818961717f565b9050828103610140840152617723818861717f565b9050828103610160840152617738818761717f565b905082810361018084015261774d818661717f565b91505061775e6101a08301846172e3565b9f9e505050505050505050505050505050565b8e81526001600160a01b038e1660208201526101c06040820152600061779b6101c083018f61717f565b82810360608401526177ad818f61717f565b905082810360808401526177c1818e61717f565b905082810360a08401526177d5818d61717f565b905082810360c08401526177e9818c61717f565b8a151560e08501529050828103610100840152617806818a61717f565b905082810361012084015261781b818961717f565b9050828103610140840152617830818861717f565b9050828103610160840152617845818761717f565b905082810361018084015261785a818661717f565b90508281036101a084015261786f818561717f565b9150509f9e505050505050505050505050505050565b6040516101c0810167ffffffffffffffff811182821017156178a9576178a9617989565b60405290565b600082198211156178c2576178c2617973565b500190565b6000826178e257634e487b7160e01b81526012600452602481fd5b500490565b600081600019048311821515161561790157617901617973565b500290565b60008282101561791857617918617973565b500390565b600181811c9082168061793157607f821691505b6020821081141561795257634e487b7160e01b600052602260045260246000fd5b50919050565b600060001982141561796c5761796c617973565b5060010190565b634e487b7160e01b600052601160045260246000fd5b634e487b7160e01b600052604160045260246000fd5b6001600160a01b03811681146168fa57600080fdfea2646970667358221220662aa514b3a38bfc8331e3ad6e7d5dcb72119af0b192f54b7eb984924bc2089a64736f6c63430008040033",
  "linkReferences": {},
  "deployedLinkReferences": {}
}