{
  "_format": "hh-sol-artifact-1",
  "contractName": "Donation",
  "sourceName": "contracts/Donation.sol",
  "abi": [
    {
      "inputs": [
        {
          "internalType": "address",
          "name": "companyaddress_",
          "type": "address"
        }
      ],
      "stateMutability": "nonpayable",
      "type": "constructor"
    },
    {
      "anonymous": false,
      "inputs": [
        {
          "indexed": false,
          "internalType": "uint256",
          "name": "_id",
          "type": "uint256"
        },
        {
          "indexed": false,
          "internalType": "address",
          "name": "_owner",
          "type": "address"
        },
        {
          "indexed": false,
          "internalType": "uint256",
          "name": "donersCount",
          "type": "uint256"
        },
        {
          "indexed": false,
          "internalType": "uint256",
          "name": "donationsRaised",
          "type": "uint256"
        },
        {
          "indexed": false,
          "internalType": "uint256",
          "name": "startDate",
          "type": "uint256"
        },
        {
          "indexed": false,
          "internalType": "uint256",
          "name": "endDate",
          "type": "uint256"
        },
        {
          "indexed": false,
          "internalType": "uint256",
          "name": "targetedAmount",
          "type": "uint256"
        },
        {
          "indexed": false,
          "internalType": "string",
          "name": "category",
          "type": "string"
        },
        {
          "indexed": false,
          "internalType": "string",
          "name": "title",
          "type": "string"
        },
        {
          "indexed": false,
          "internalType": "string",
          "name": "hash",
          "type": "string"
        },
        {
          "indexed": false,
          "internalType": "string",
          "name": "purpose",
          "type": "string"
        },
        {
          "indexed": false,
          "internalType": "string",
          "name": "description",
          "type": "string"
        }
      ],
      "name": "DonationAdded",
      "type": "event"
    },
    {
      "inputs": [
        {
          "internalType": "uint256",
          "name": "_id",
          "type": "uint256"
        }
      ],
      "name": "addDonation",
      "outputs": [],
      "stateMutability": "payable",
      "type": "function"
    },
    {
      "inputs": [],
      "name": "amountRaised",
      "outputs": [
        {
          "internalType": "uint256",
          "name": "",
          "type": "uint256"
        }
      ],
      "stateMutability": "view",
      "type": "function"
    },
    {
      "inputs": [
        {
          "internalType": "uint256",
          "name": "_id",
          "type": "uint256"
        }
      ],
      "name": "approveDonation",
      "outputs": [],
      "stateMutability": "nonpayable",
      "type": "function"
    },
    {
      "inputs": [
        {
          "components": [
            {
              "internalType": "uint256",
              "name": "id",
              "type": "uint256"
            },
            {
              "internalType": "address payable",
              "name": "owner",
              "type": "address"
            },
            {
              "components": [
                {
                  "internalType": "uint256",
                  "name": "id",
                  "type": "uint256"
                },
                {
                  "internalType": "address",
                  "name": "_address",
                  "type": "address"
                },
                {
                  "internalType": "string",
                  "name": "userType",
                  "type": "string"
                },
                {
                  "internalType": "string",
                  "name": "country",
                  "type": "string"
                },
                {
                  "internalType": "string",
                  "name": "city",
                  "type": "string"
                },
                {
                  "internalType": "string",
                  "name": "email",
                  "type": "string"
                },
                {
                  "internalType": "string",
                  "name": "residenceAddress",
                  "type": "string"
                },
                {
                  "internalType": "bool",
                  "name": "isRegistered",
                  "type": "bool"
                },
                {
                  "internalType": "string",
                  "name": "website",
                  "type": "string"
                },
                {
                  "internalType": "string",
                  "name": "facebookUrl",
                  "type": "string"
                },
                {
                  "internalType": "string",
                  "name": "twitterUrl",
                  "type": "string"
                },
                {
                  "internalType": "string",
                  "name": "instagramUrl",
                  "type": "string"
                },
                {
                  "internalType": "string",
                  "name": "youtubeUrl",
                  "type": "string"
                },
                {
                  "internalType": "string",
                  "name": "hash",
                  "type": "string"
                }
              ],
              "internalType": "struct Donation.User",
              "name": "user",
              "type": "tuple"
            },
            {
              "internalType": "uint256",
              "name": "donersCount",
              "type": "uint256"
            },
            {
              "internalType": "uint256",
              "name": "donationsRaised",
              "type": "uint256"
            },
            {
              "internalType": "uint256",
              "name": "startDate",
              "type": "uint256"
            },
            {
              "internalType": "uint256",
              "name": "endDate",
              "type": "uint256"
            },
            {
              "internalType": "uint256",
              "name": "targetedAmount",
              "type": "uint256"
            },
            {
              "internalType": "string",
              "name": "category",
              "type": "string"
            },
            {
              "internalType": "string",
              "name": "title",
              "type": "string"
            },
            {
              "internalType": "string",
              "name": "hash",
              "type": "string"
            },
            {
              "internalType": "string",
              "name": "purpose",
              "type": "string"
            },
            {
              "internalType": "string",
              "name": "description",
              "type": "string"
            },
            {
              "components": [
                {
                  "internalType": "bool",
                  "name": "completed",
                  "type": "bool"
                },
                {
                  "internalType": "bool",
                  "name": "isPinned",
                  "type": "bool"
                },
                {
                  "internalType": "uint256",
                  "name": "pinnedDuration",
                  "type": "uint256"
                },
                {
                  "internalType": "uint256",
                  "name": "pinnedEndDate",
                  "type": "uint256"
                },
                {
                  "internalType": "bool",
                  "name": "isVisible",
                  "type": "bool"
                },
                {
                  "internalType": "bool",
                  "name": "isApproved",
                  "type": "bool"
                },
                {
                  "internalType": "uint256",
                  "name": "approvedDate",
                  "type": "uint256"
                },
                {
                  "internalType": "bool",
                  "name": "isRejected",
                  "type": "bool"
                }
              ],
              "internalType": "struct Donation.DonationStatus",
              "name": "donationstatus",
              "type": "tuple"
            }
          ],
          "internalType": "struct Donation.DonationItem",
          "name": "donation_",
          "type": "tuple"
        },
        {
          "internalType": "uint256",
          "name": "id_",
          "type": "uint256"
        }
      ],
      "name": "createDonation",
      "outputs": [],
      "stateMutability": "payable",
      "type": "function"
    },
    {
      "inputs": [
        {
          "internalType": "uint256",
          "name": "_id",
          "type": "uint256"
        }
      ],
      "name": "disablePinnedDonation",
      "outputs": [],
      "stateMutability": "nonpayable",
      "type": "function"
    },
    {
      "inputs": [],
      "name": "donationCount",
      "outputs": [
        {
          "internalType": "uint256",
          "name": "",
          "type": "uint256"
        }
      ],
      "stateMutability": "view",
      "type": "function"
    },
    {
      "inputs": [
        {
          "internalType": "uint256",
          "name": "",
          "type": "uint256"
        },
        {
          "internalType": "uint256",
          "name": "",
          "type": "uint256"
        }
      ],
      "name": "doners",
      "outputs": [
        {
          "internalType": "uint256",
          "name": "id",
          "type": "uint256"
        },
        {
          "internalType": "uint256",
          "name": "amount",
          "type": "uint256"
        },
        {
          "internalType": "uint256",
          "name": "date",
          "type": "uint256"
        },
        {
          "internalType": "address",
          "name": "doner",
          "type": "address"
        }
      ],
      "stateMutability": "view",
      "type": "function"
    },
    {
      "inputs": [],
      "name": "donersCount",
      "outputs": [
        {
          "internalType": "uint256",
          "name": "",
          "type": "uint256"
        }
      ],
      "stateMutability": "view",
      "type": "function"
    },
    {
      "inputs": [],
      "name": "fetchAllDonationItems",
      "outputs": [
        {
          "components": [
            {
              "internalType": "uint256",
              "name": "id",
              "type": "uint256"
            },
            {
              "internalType": "address payable",
              "name": "owner",
              "type": "address"
            },
            {
              "components": [
                {
                  "internalType": "uint256",
                  "name": "id",
                  "type": "uint256"
                },
                {
                  "internalType": "address",
                  "name": "_address",
                  "type": "address"
                },
                {
                  "internalType": "string",
                  "name": "userType",
                  "type": "string"
                },
                {
                  "internalType": "string",
                  "name": "country",
                  "type": "string"
                },
                {
                  "internalType": "string",
                  "name": "city",
                  "type": "string"
                },
                {
                  "internalType": "string",
                  "name": "email",
                  "type": "string"
                },
                {
                  "internalType": "string",
                  "name": "residenceAddress",
                  "type": "string"
                },
                {
                  "internalType": "bool",
                  "name": "isRegistered",
                  "type": "bool"
                },
                {
                  "internalType": "string",
                  "name": "website",
                  "type": "string"
                },
                {
                  "internalType": "string",
                  "name": "facebookUrl",
                  "type": "string"
                },
                {
                  "internalType": "string",
                  "name": "twitterUrl",
                  "type": "string"
                },
                {
                  "internalType": "string",
                  "name": "instagramUrl",
                  "type": "string"
                },
                {
                  "internalType": "string",
                  "name": "youtubeUrl",
                  "type": "string"
                },
                {
                  "internalType": "string",
                  "name": "hash",
                  "type": "string"
                }
              ],
              "internalType": "struct Donation.User",
              "name": "user",
              "type": "tuple"
            },
            {
              "internalType": "uint256",
              "name": "donersCount",
              "type": "uint256"
            },
            {
              "internalType": "uint256",
              "name": "donationsRaised",
              "type": "uint256"
            },
            {
              "internalType": "uint256",
              "name": "startDate",
              "type": "uint256"
            },
            {
              "internalType": "uint256",
              "name": "endDate",
              "type": "uint256"
            },
            {
              "internalType": "uint256",
              "name": "targetedAmount",
              "type": "uint256"
            },
            {
              "internalType": "string",
              "name": "category",
              "type": "string"
            },
            {
              "internalType": "string",
              "name": "title",
              "type": "string"
            },
            {
              "internalType": "string",
              "name": "hash",
              "type": "string"
            },
            {
              "internalType": "string",
              "name": "purpose",
              "type": "string"
            },
            {
              "internalType": "string",
              "name": "description",
              "type": "string"
            },
            {
              "components": [
                {
                  "internalType": "bool",
                  "name": "completed",
                  "type": "bool"
                },
                {
                  "internalType": "bool",
                  "name": "isPinned",
                  "type": "bool"
                },
                {
                  "internalType": "uint256",
                  "name": "pinnedDuration",
                  "type": "uint256"
                },
                {
                  "internalType": "uint256",
                  "name": "pinnedEndDate",
                  "type": "uint256"
                },
                {
                  "internalType": "bool",
                  "name": "isVisible",
                  "type": "bool"
                },
                {
                  "internalType": "bool",
                  "name": "isApproved",
                  "type": "bool"
                },
                {
                  "internalType": "uint256",
                  "name": "approvedDate",
                  "type": "uint256"
                },
                {
                  "internalType": "bool",
                  "name": "isRejected",
                  "type": "bool"
                }
              ],
              "internalType": "struct Donation.DonationStatus",
              "name": "donationstatus",
              "type": "tuple"
            }
          ],
          "internalType": "struct Donation.DonationItem[]",
          "name": "",
          "type": "tuple[]"
        }
      ],
      "stateMutability": "view",
      "type": "function"
    },
    {
      "inputs": [],
      "name": "fetchAllUsers",
      "outputs": [
        {
          "components": [
            {
              "internalType": "uint256",
              "name": "id",
              "type": "uint256"
            },
            {
              "internalType": "address",
              "name": "_address",
              "type": "address"
            },
            {
              "internalType": "string",
              "name": "userType",
              "type": "string"
            },
            {
              "internalType": "string",
              "name": "country",
              "type": "string"
            },
            {
              "internalType": "string",
              "name": "city",
              "type": "string"
            },
            {
              "internalType": "string",
              "name": "email",
              "type": "string"
            },
            {
              "internalType": "string",
              "name": "residenceAddress",
              "type": "string"
            },
            {
              "internalType": "bool",
              "name": "isRegistered",
              "type": "bool"
            },
            {
              "internalType": "string",
              "name": "website",
              "type": "string"
            },
            {
              "internalType": "string",
              "name": "facebookUrl",
              "type": "string"
            },
            {
              "internalType": "string",
              "name": "twitterUrl",
              "type": "string"
            },
            {
              "internalType": "string",
              "name": "instagramUrl",
              "type": "string"
            },
            {
              "internalType": "string",
              "name": "youtubeUrl",
              "type": "string"
            },
            {
              "internalType": "string",
              "name": "hash",
              "type": "string"
            }
          ],
          "internalType": "struct Donation.User[]",
          "name": "",
          "type": "tuple[]"
        }
      ],
      "stateMutability": "view",
      "type": "function"
    },
    {
      "inputs": [
        {
          "internalType": "uint256",
          "name": "_id",
          "type": "uint256"
        }
      ],
      "name": "getDonation",
      "outputs": [
        {
          "components": [
            {
              "internalType": "uint256",
              "name": "id",
              "type": "uint256"
            },
            {
              "internalType": "address payable",
              "name": "owner",
              "type": "address"
            },
            {
              "components": [
                {
                  "internalType": "uint256",
                  "name": "id",
                  "type": "uint256"
                },
                {
                  "internalType": "address",
                  "name": "_address",
                  "type": "address"
                },
                {
                  "internalType": "string",
                  "name": "userType",
                  "type": "string"
                },
                {
                  "internalType": "string",
                  "name": "country",
                  "type": "string"
                },
                {
                  "internalType": "string",
                  "name": "city",
                  "type": "string"
                },
                {
                  "internalType": "string",
                  "name": "email",
                  "type": "string"
                },
                {
                  "internalType": "string",
                  "name": "residenceAddress",
                  "type": "string"
                },
                {
                  "internalType": "bool",
                  "name": "isRegistered",
                  "type": "bool"
                },
                {
                  "internalType": "string",
                  "name": "website",
                  "type": "string"
                },
                {
                  "internalType": "string",
                  "name": "facebookUrl",
                  "type": "string"
                },
                {
                  "internalType": "string",
                  "name": "twitterUrl",
                  "type": "string"
                },
                {
                  "internalType": "string",
                  "name": "instagramUrl",
                  "type": "string"
                },
                {
                  "internalType": "string",
                  "name": "youtubeUrl",
                  "type": "string"
                },
                {
                  "internalType": "string",
                  "name": "hash",
                  "type": "string"
                }
              ],
              "internalType": "struct Donation.User",
              "name": "user",
              "type": "tuple"
            },
            {
              "internalType": "uint256",
              "name": "donersCount",
              "type": "uint256"
            },
            {
              "internalType": "uint256",
              "name": "donationsRaised",
              "type": "uint256"
            },
            {
              "internalType": "uint256",
              "name": "startDate",
              "type": "uint256"
            },
            {
              "internalType": "uint256",
              "name": "endDate",
              "type": "uint256"
            },
            {
              "internalType": "uint256",
              "name": "targetedAmount",
              "type": "uint256"
            },
            {
              "internalType": "string",
              "name": "category",
              "type": "string"
            },
            {
              "internalType": "string",
              "name": "title",
              "type": "string"
            },
            {
              "internalType": "string",
              "name": "hash",
              "type": "string"
            },
            {
              "internalType": "string",
              "name": "purpose",
              "type": "string"
            },
            {
              "internalType": "string",
              "name": "description",
              "type": "string"
            },
            {
              "components": [
                {
                  "internalType": "bool",
                  "name": "completed",
                  "type": "bool"
                },
                {
                  "internalType": "bool",
                  "name": "isPinned",
                  "type": "bool"
                },
                {
                  "internalType": "uint256",
                  "name": "pinnedDuration",
                  "type": "uint256"
                },
                {
                  "internalType": "uint256",
                  "name": "pinnedEndDate",
                  "type": "uint256"
                },
                {
                  "internalType": "bool",
                  "name": "isVisible",
                  "type": "bool"
                },
                {
                  "internalType": "bool",
                  "name": "isApproved",
                  "type": "bool"
                },
                {
                  "internalType": "uint256",
                  "name": "approvedDate",
                  "type": "uint256"
                },
                {
                  "internalType": "bool",
                  "name": "isRejected",
                  "type": "bool"
                }
              ],
              "internalType": "struct Donation.DonationStatus",
              "name": "donationstatus",
              "type": "tuple"
            }
          ],
          "internalType": "struct Donation.DonationItem",
          "name": "",
          "type": "tuple"
        }
      ],
      "stateMutability": "view",
      "type": "function"
    },
    {
      "inputs": [
        {
          "internalType": "uint256",
          "name": "_id",
          "type": "uint256"
        }
      ],
      "name": "getDonersOfDonation",
      "outputs": [
        {
          "components": [
            {
              "internalType": "uint256",
              "name": "id",
              "type": "uint256"
            },
            {
              "internalType": "uint256",
              "name": "amount",
              "type": "uint256"
            },
            {
              "internalType": "uint256",
              "name": "date",
              "type": "uint256"
            },
            {
              "internalType": "address",
              "name": "doner",
              "type": "address"
            }
          ],
          "internalType": "struct Donation.Doners[]",
          "name": "",
          "type": "tuple[]"
        }
      ],
      "stateMutability": "view",
      "type": "function"
    },
    {
      "inputs": [],
      "name": "getEthUsd",
      "outputs": [
        {
          "internalType": "uint256",
          "name": "",
          "type": "uint256"
        }
      ],
      "stateMutability": "view",
      "type": "function"
    },
    {
      "inputs": [
        {
          "internalType": "uint256",
          "name": "",
          "type": "uint256"
        }
      ],
      "name": "idToDonationItem",
      "outputs": [
        {
          "internalType": "uint256",
          "name": "id",
          "type": "uint256"
        },
        {
          "internalType": "address payable",
          "name": "owner",
          "type": "address"
        },
        {
          "components": [
            {
              "internalType": "uint256",
              "name": "id",
              "type": "uint256"
            },
            {
              "internalType": "address",
              "name": "_address",
              "type": "address"
            },
            {
              "internalType": "string",
              "name": "userType",
              "type": "string"
            },
            {
              "internalType": "string",
              "name": "country",
              "type": "string"
            },
            {
              "internalType": "string",
              "name": "city",
              "type": "string"
            },
            {
              "internalType": "string",
              "name": "email",
              "type": "string"
            },
            {
              "internalType": "string",
              "name": "residenceAddress",
              "type": "string"
            },
            {
              "internalType": "bool",
              "name": "isRegistered",
              "type": "bool"
            },
            {
              "internalType": "string",
              "name": "website",
              "type": "string"
            },
            {
              "internalType": "string",
              "name": "facebookUrl",
              "type": "string"
            },
            {
              "internalType": "string",
              "name": "twitterUrl",
              "type": "string"
            },
            {
              "internalType": "string",
              "name": "instagramUrl",
              "type": "string"
            },
            {
              "internalType": "string",
              "name": "youtubeUrl",
              "type": "string"
            },
            {
              "internalType": "string",
              "name": "hash",
              "type": "string"
            }
          ],
          "internalType": "struct Donation.User",
          "name": "user",
          "type": "tuple"
        },
        {
          "internalType": "uint256",
          "name": "donersCount",
          "type": "uint256"
        },
        {
          "internalType": "uint256",
          "name": "donationsRaised",
          "type": "uint256"
        },
        {
          "internalType": "uint256",
          "name": "startDate",
          "type": "uint256"
        },
        {
          "internalType": "uint256",
          "name": "endDate",
          "type": "uint256"
        },
        {
          "internalType": "uint256",
          "name": "targetedAmount",
          "type": "uint256"
        },
        {
          "internalType": "string",
          "name": "category",
          "type": "string"
        },
        {
          "internalType": "string",
          "name": "title",
          "type": "string"
        },
        {
          "internalType": "string",
          "name": "hash",
          "type": "string"
        },
        {
          "internalType": "string",
          "name": "purpose",
          "type": "string"
        },
        {
          "internalType": "string",
          "name": "description",
          "type": "string"
        },
        {
          "components": [
            {
              "internalType": "bool",
              "name": "completed",
              "type": "bool"
            },
            {
              "internalType": "bool",
              "name": "isPinned",
              "type": "bool"
            },
            {
              "internalType": "uint256",
              "name": "pinnedDuration",
              "type": "uint256"
            },
            {
              "internalType": "uint256",
              "name": "pinnedEndDate",
              "type": "uint256"
            },
            {
              "internalType": "bool",
              "name": "isVisible",
              "type": "bool"
            },
            {
              "internalType": "bool",
              "name": "isApproved",
              "type": "bool"
            },
            {
              "internalType": "uint256",
              "name": "approvedDate",
              "type": "uint256"
            },
            {
              "internalType": "bool",
              "name": "isRejected",
              "type": "bool"
            }
          ],
          "internalType": "struct Donation.DonationStatus",
          "name": "donationstatus",
          "type": "tuple"
        }
      ],
      "stateMutability": "view",
      "type": "function"
    },
    {
      "inputs": [],
      "name": "isUserRegistered",
      "outputs": [
        {
          "components": [
            {
              "internalType": "bool",
              "name": "status",
              "type": "bool"
            },
            {
              "internalType": "string",
              "name": "userType",
              "type": "string"
            },
            {
              "internalType": "uint256",
              "name": "id",
              "type": "uint256"
            }
          ],
          "internalType": "struct Donation.IsRegistered",
          "name": "",
          "type": "tuple"
        }
      ],
      "stateMutability": "view",
      "type": "function"
    },
    {
      "inputs": [
        {
          "internalType": "uint256",
          "name": "_id",
          "type": "uint256"
        },
        {
          "internalType": "uint256",
          "name": "_duration",
          "type": "uint256"
        },
        {
          "internalType": "uint256",
          "name": "_pinnedEndDate",
          "type": "uint256"
        }
      ],
      "name": "pinDonation",
      "outputs": [],
      "stateMutability": "payable",
      "type": "function"
    },
    {
      "inputs": [
        {
          "internalType": "address",
          "name": "",
          "type": "address"
        }
      ],
      "name": "registeredUsers",
      "outputs": [
        {
          "internalType": "bool",
          "name": "status",
          "type": "bool"
        },
        {
          "internalType": "string",
          "name": "userType",
          "type": "string"
        },
        {
          "internalType": "uint256",
          "name": "id",
          "type": "uint256"
        }
      ],
      "stateMutability": "view",
      "type": "function"
    },
    {
      "inputs": [
        {
          "internalType": "uint256",
          "name": "_id",
          "type": "uint256"
        }
      ],
      "name": "rejectDonation",
      "outputs": [],
      "stateMutability": "nonpayable",
      "type": "function"
    },
    {
      "inputs": [
        {
          "internalType": "uint256",
          "name": "",
          "type": "uint256"
        }
      ],
      "name": "users",
      "outputs": [
        {
          "internalType": "uint256",
          "name": "id",
          "type": "uint256"
        },
        {
          "internalType": "address",
          "name": "_address",
          "type": "address"
        },
        {
          "internalType": "string",
          "name": "userType",
          "type": "string"
        },
        {
          "internalType": "string",
          "name": "country",
          "type": "string"
        },
        {
          "internalType": "string",
          "name": "city",
          "type": "string"
        },
        {
          "internalType": "string",
          "name": "email",
          "type": "string"
        },
        {
          "internalType": "string",
          "name": "residenceAddress",
          "type": "string"
        },
        {
          "internalType": "bool",
          "name": "isRegistered",
          "type": "bool"
        },
        {
          "internalType": "string",
          "name": "website",
          "type": "string"
        },
        {
          "internalType": "string",
          "name": "facebookUrl",
          "type": "string"
        },
        {
          "internalType": "string",
          "name": "twitterUrl",
          "type": "string"
        },
        {
          "internalType": "string",
          "name": "instagramUrl",
          "type": "string"
        },
        {
          "internalType": "string",
          "name": "youtubeUrl",
          "type": "string"
        },
        {
          "internalType": "string",
          "name": "hash",
          "type": "string"
        }
      ],
      "stateMutability": "view",
      "type": "function"
    },
    {
      "inputs": [],
      "name": "usersCount",
      "outputs": [
        {
          "internalType": "uint256",
          "name": "",
          "type": "uint256"
        }
      ],
      "stateMutability": "view",
      "type": "function"
    }
  ],
  "bytecode": "0x60806040523480156200001157600080fd5b5060405162005fd138038062005fd1833981016040819052620000349162000077565b600580546001600160a01b039092166001600160a01b031992831617905560008054909116739326bfa02add2366b30bacb125260af641031331179055620000a7565b60006020828403121562000089578081fd5b81516001600160a01b0381168114620000a0578182fd5b9392505050565b615f1a80620000b76000396000f3fe6080604052600436106100ef5760003560e01c80630e50cee5146100f45780632abfab4d1461012c57806332536a5314610150578063365b98b2146101655780633776eac61461019f5780633f27607d146101c157806343ae959c146101fb57806351c7bd4b14610211578063568fefbf146102315780635fc2a547146102af5780636ba13a82146102dc5780637b3e5e7b146102f2578063873138f314610308578063bb27e0ce1461032a578063c33743151461033f578063c69f34a314610361578063c6e251a914610381578063cac83cb114610394578063d8251a14146103b4578063ef07a81f146103c7575b600080fd5b34801561010057600080fd5b5061011461010f36600461536c565b6103f4565b60405161012393929190615aaa565b60405180910390f35b34801561013857600080fd5b5061014260075481565b604051908152602001610123565b61016361015e36600461554f565b6104a3565b005b34801561017157600080fd5b50610185610180366004615516565b6108e6565b6040516101239e9d9c9b9a99989796959493929190615c26565b3480156101ab57600080fd5b506101b4610f36565b6040516101239190615988565b3480156101cd57600080fd5b506101e16101dc366004615516565b611a56565b6040516101239e9d9c9b9a99989796959493929190615b55565b34801561020757600080fd5b5061014260065481565b34801561021d57600080fd5b5061016361022c366004615516565b612459565b34801561023d57600080fd5b5061028661024c36600461552e565b600260208181526000938452604080852090915291835291208054600182015492820154600390920154909291906001600160a01b031684565b604080519485526020850193909352918301526001600160a01b03166060820152608001610123565b3480156102bb57600080fd5b506102cf6102ca366004615516565b612837565b60405161012391906159e9565b3480156102e857600080fd5b5061014260085481565b3480156102fe57600080fd5b5061014260095481565b34801561031457600080fd5b5061031d61299f565b6040516101239190615b17565b34801561033657600080fd5b50610142612ae5565b34801561034b57600080fd5b50610354612b77565b6040516101239190615a56565b34801561036d57600080fd5b5061016361037c366004615516565b6132e1565b61016361038f366004615388565b6133de565b3480156103a057600080fd5b506101636103af366004615516565b613c4e565b6101636103c2366004615516565b613ce9565b3480156103d357600080fd5b506103e76103e2366004615516565b6142e4565b6040516101239190615b04565b6004602052600090815260409020805460018201805460ff909216929161041a90615e4a565b80601f016020809104026020016040519081016040528092919081815260200182805461044690615e4a565b80156104935780601f1061046857610100808354040283529160200191610493565b820191906000526020600020905b81548152906001019060200180831161047657829003601f168201915b5050505050908060020154905083565b6000831180156104b557506007548311155b6104da5760405162461bcd60e51b81526004016104d190615ad5565b60405180910390fd5b6000838152600160205260409020601a810154610100900460ff16156104ff57600080fd5b601d81015460ff61010090910416151560011461051b57600080fd5b601c810154421161052b57600080fd5b6005546040516001600160a01b039091169081903480156108fc02916000818181858888f19350505050158015610566573d6000803e3d6000fd5b50601b8201849055601c8201839055601a8201805461ff0019166101001790556000858152600160208190526040909120835481558184015491810180546001600160a01b03199081166001600160a01b03948516179091556002808601805491840191825560038088015490850180549094169516949094179091556004808601805487959392850191906105fb90615e4a565b610606929190614dc4565b50600382018160030190805461061b90615e4a565b610626929190614dc4565b50600482018160040190805461063b90615e4a565b610646929190614dc4565b50600582018160050190805461065b90615e4a565b610666929190614dc4565b50600682018160060190805461067b90615e4a565b610686929190614dc4565b50600782810154908201805460ff191660ff909216151591909117905560088083018054918301916106b790615e4a565b6106c2929190614dc4565b5060098201816009019080546106d790615e4a565b6106e2929190614dc4565b50600a820181600a019080546106f790615e4a565b610702929190614dc4565b50600b820181600b0190805461071790615e4a565b610722929190614dc4565b50600c820181600c0190805461073790615e4a565b610742929190614dc4565b50600d820181600d0190805461075790615e4a565b610762929190614dc4565b505050601082015481601001556011820154816011015560128201548160120155601382015481601301556014820154816014015560158201816015019080546107ab90615e4a565b6107b6929190614dc4565b5060168201816016019080546107cb90615e4a565b6107d6929190614dc4565b5060178201816017019080546107eb90615e4a565b6107f6929190614dc4565b50601882018160180190805461080b90615e4a565b610816929190614dc4565b50601982018160190190805461082b90615e4a565b610836929190614dc4565b50601a8281018054918301805460ff938416151560ff198083168217845593546101009081900486161515810261ff001992831661ffff199485161717909355601b8088015490870155601c8088015490870155601d808801805491880180549288161515838816811782559154869004881615159095029216921691909117179055601e8085015490840155601f93840154939092018054939091161515929091169190911790555050505050565b60036020526000908152604090208054600182015460028301805492936001600160a01b039092169261091890615e4a565b80601f016020809104026020016040519081016040528092919081815260200182805461094490615e4a565b80156109915780601f1061096657610100808354040283529160200191610991565b820191906000526020600020905b81548152906001019060200180831161097457829003601f168201915b5050505050908060030180546109a690615e4a565b80601f01602080910402602001604051908101604052809291908181526020018280546109d290615e4a565b8015610a1f5780601f106109f457610100808354040283529160200191610a1f565b820191906000526020600020905b815481529060010190602001808311610a0257829003601f168201915b505050505090806004018054610a3490615e4a565b80601f0160208091040260200160405190810160405280929190818152602001828054610a6090615e4a565b8015610aad5780601f10610a8257610100808354040283529160200191610aad565b820191906000526020600020905b815481529060010190602001808311610a9057829003601f168201915b505050505090806005018054610ac290615e4a565b80601f0160208091040260200160405190810160405280929190818152602001828054610aee90615e4a565b8015610b3b5780601f10610b1057610100808354040283529160200191610b3b565b820191906000526020600020905b815481529060010190602001808311610b1e57829003601f168201915b505050505090806006018054610b5090615e4a565b80601f0160208091040260200160405190810160405280929190818152602001828054610b7c90615e4a565b8015610bc95780601f10610b9e57610100808354040283529160200191610bc9565b820191906000526020600020905b815481529060010190602001808311610bac57829003601f168201915b5050506007840154600885018054949560ff909216949193509150610bed90615e4a565b80601f0160208091040260200160405190810160405280929190818152602001828054610c1990615e4a565b8015610c665780601f10610c3b57610100808354040283529160200191610c66565b820191906000526020600020905b815481529060010190602001808311610c4957829003601f168201915b505050505090806009018054610c7b90615e4a565b80601f0160208091040260200160405190810160405280929190818152602001828054610ca790615e4a565b8015610cf45780601f10610cc957610100808354040283529160200191610cf4565b820191906000526020600020905b815481529060010190602001808311610cd757829003601f168201915b50505050509080600a018054610d0990615e4a565b80601f0160208091040260200160405190810160405280929190818152602001828054610d3590615e4a565b8015610d825780601f10610d5757610100808354040283529160200191610d82565b820191906000526020600020905b815481529060010190602001808311610d6557829003601f168201915b50505050509080600b018054610d9790615e4a565b80601f0160208091040260200160405190810160405280929190818152602001828054610dc390615e4a565b8015610e105780601f10610de557610100808354040283529160200191610e10565b820191906000526020600020905b815481529060010190602001808311610df357829003601f168201915b50505050509080600c018054610e2590615e4a565b80601f0160208091040260200160405190810160405280929190818152602001828054610e5190615e4a565b8015610e9e5780601f10610e7357610100808354040283529160200191610e9e565b820191906000526020600020905b815481529060010190602001808311610e8157829003601f168201915b50505050509080600d018054610eb390615e4a565b80601f0160208091040260200160405190810160405280929190818152602001828054610edf90615e4a565b8015610f2c5780601f10610f0157610100808354040283529160200191610f2c565b820191906000526020600020905b815481529060010190602001808311610f0f57829003601f168201915b505050505090508e565b600754606090600080826001600160401b03811115610f6557634e487b7160e01b600052604160045260246000fd5b604051908082528060200260200182016040528015610f9e57816020015b610f8b614e4b565b815260200190600190039081610f835790505b50905060005b83811015611a4e576000610fb9826001615dfb565b60008181526001602081815260409283902083516101c0808201865282548252938201546001600160a01b039081168285015285519485018652600283018054865260038401549091169385019390935260048201805496975091959094869486820194909390929184019161102e90615e4a565b80601f016020809104026020016040519081016040528092919081815260200182805461105a90615e4a565b80156110a75780601f1061107c576101008083540402835291602001916110a7565b820191906000526020600020905b81548152906001019060200180831161108a57829003601f168201915b505050505081526020016003820180546110c090615e4a565b80601f01602080910402602001604051908101604052809291908181526020018280546110ec90615e4a565b80156111395780601f1061110e57610100808354040283529160200191611139565b820191906000526020600020905b81548152906001019060200180831161111c57829003601f168201915b5050505050815260200160048201805461115290615e4a565b80601f016020809104026020016040519081016040528092919081815260200182805461117e90615e4a565b80156111cb5780601f106111a0576101008083540402835291602001916111cb565b820191906000526020600020905b8154815290600101906020018083116111ae57829003601f168201915b505050505081526020016005820180546111e490615e4a565b80601f016020809104026020016040519081016040528092919081815260200182805461121090615e4a565b801561125d5780601f106112325761010080835404028352916020019161125d565b820191906000526020600020905b81548152906001019060200180831161124057829003601f168201915b5050505050815260200160068201805461127690615e4a565b80601f01602080910402602001604051908101604052809291908181526020018280546112a290615e4a565b80156112ef5780601f106112c4576101008083540402835291602001916112ef565b820191906000526020600020905b8154815290600101906020018083116112d257829003601f168201915b5050509183525050600782015460ff161515602082015260088201805460409092019161131b90615e4a565b80601f016020809104026020016040519081016040528092919081815260200182805461134790615e4a565b80156113945780601f1061136957610100808354040283529160200191611394565b820191906000526020600020905b81548152906001019060200180831161137757829003601f168201915b505050505081526020016009820180546113ad90615e4a565b80601f01602080910402602001604051908101604052809291908181526020018280546113d990615e4a565b80156114265780601f106113fb57610100808354040283529160200191611426565b820191906000526020600020905b81548152906001019060200180831161140957829003601f168201915b50505050508152602001600a8201805461143f90615e4a565b80601f016020809104026020016040519081016040528092919081815260200182805461146b90615e4a565b80156114b85780601f1061148d576101008083540402835291602001916114b8565b820191906000526020600020905b81548152906001019060200180831161149b57829003601f168201915b50505050508152602001600b820180546114d190615e4a565b80601f01602080910402602001604051908101604052809291908181526020018280546114fd90615e4a565b801561154a5780601f1061151f5761010080835404028352916020019161154a565b820191906000526020600020905b81548152906001019060200180831161152d57829003601f168201915b50505050508152602001600c8201805461156390615e4a565b80601f016020809104026020016040519081016040528092919081815260200182805461158f90615e4a565b80156115dc5780601f106115b1576101008083540402835291602001916115dc565b820191906000526020600020905b8154815290600101906020018083116115bf57829003601f168201915b50505050508152602001600d820180546115f590615e4a565b80601f016020809104026020016040519081016040528092919081815260200182805461162190615e4a565b801561166e5780601f106116435761010080835404028352916020019161166e565b820191906000526020600020905b81548152906001019060200180831161165157829003601f168201915b505050505081525050815260200160108201548152602001601182015481526020016012820154815260200160138201548152602001601482015481526020016015820180546116bd90615e4a565b80601f01602080910402602001604051908101604052809291908181526020018280546116e990615e4a565b80156117365780601f1061170b57610100808354040283529160200191611736565b820191906000526020600020905b81548152906001019060200180831161171957829003601f168201915b5050505050815260200160168201805461174f90615e4a565b80601f016020809104026020016040519081016040528092919081815260200182805461177b90615e4a565b80156117c85780601f1061179d576101008083540402835291602001916117c8565b820191906000526020600020905b8154815290600101906020018083116117ab57829003601f168201915b505050505081526020016017820180546117e190615e4a565b80601f016020809104026020016040519081016040528092919081815260200182805461180d90615e4a565b801561185a5780601f1061182f5761010080835404028352916020019161185a565b820191906000526020600020905b81548152906001019060200180831161183d57829003601f168201915b5050505050815260200160188201805461187390615e4a565b80601f016020809104026020016040519081016040528092919081815260200182805461189f90615e4a565b80156118ec5780601f106118c1576101008083540402835291602001916118ec565b820191906000526020600020905b8154815290600101906020018083116118cf57829003601f168201915b5050505050815260200160198201805461190590615e4a565b80601f016020809104026020016040519081016040528092919081815260200182805461193190615e4a565b801561197e5780601f106119535761010080835404028352916020019161197e565b820191906000526020600020905b81548152906001019060200180831161196157829003601f168201915b5050509183525050604080516101008082018352601a85015460ff808216151584529082900481161515602084810191909152601b87015494840194909452601c8601546060840152601d86015480821615156080850152919091048116151560a0830152601e85015460c0830152601f90940154909316151560e084015201528451859087908110611a2157634e487b7160e01b600052603260045260246000fd5b6020908102919091010152611a37600186615dfb565b945050508080611a4690615e85565b915050610fa4565b509392505050565b60016020818152600092835260409283902080549281015484516101c081018652600283018054825260038401546001600160a01b0390811695830195909552600484018054969795909316959394919390929184019190611ab790615e4a565b80601f0160208091040260200160405190810160405280929190818152602001828054611ae390615e4a565b8015611b305780601f10611b0557610100808354040283529160200191611b30565b820191906000526020600020905b815481529060010190602001808311611b1357829003601f168201915b50505050508152602001600382018054611b4990615e4a565b80601f0160208091040260200160405190810160405280929190818152602001828054611b7590615e4a565b8015611bc25780601f10611b9757610100808354040283529160200191611bc2565b820191906000526020600020905b815481529060010190602001808311611ba557829003601f168201915b50505050508152602001600482018054611bdb90615e4a565b80601f0160208091040260200160405190810160405280929190818152602001828054611c0790615e4a565b8015611c545780601f10611c2957610100808354040283529160200191611c54565b820191906000526020600020905b815481529060010190602001808311611c3757829003601f168201915b50505050508152602001600582018054611c6d90615e4a565b80601f0160208091040260200160405190810160405280929190818152602001828054611c9990615e4a565b8015611ce65780601f10611cbb57610100808354040283529160200191611ce6565b820191906000526020600020905b815481529060010190602001808311611cc957829003601f168201915b50505050508152602001600682018054611cff90615e4a565b80601f0160208091040260200160405190810160405280929190818152602001828054611d2b90615e4a565b8015611d785780601f10611d4d57610100808354040283529160200191611d78565b820191906000526020600020905b815481529060010190602001808311611d5b57829003601f168201915b5050509183525050600782015460ff1615156020820152600882018054604090920191611da490615e4a565b80601f0160208091040260200160405190810160405280929190818152602001828054611dd090615e4a565b8015611e1d5780601f10611df257610100808354040283529160200191611e1d565b820191906000526020600020905b815481529060010190602001808311611e0057829003601f168201915b50505050508152602001600982018054611e3690615e4a565b80601f0160208091040260200160405190810160405280929190818152602001828054611e6290615e4a565b8015611eaf5780601f10611e8457610100808354040283529160200191611eaf565b820191906000526020600020905b815481529060010190602001808311611e9257829003601f168201915b50505050508152602001600a82018054611ec890615e4a565b80601f0160208091040260200160405190810160405280929190818152602001828054611ef490615e4a565b8015611f415780601f10611f1657610100808354040283529160200191611f41565b820191906000526020600020905b815481529060010190602001808311611f2457829003601f168201915b50505050508152602001600b82018054611f5a90615e4a565b80601f0160208091040260200160405190810160405280929190818152602001828054611f8690615e4a565b8015611fd35780601f10611fa857610100808354040283529160200191611fd3565b820191906000526020600020905b815481529060010190602001808311611fb657829003601f168201915b50505050508152602001600c82018054611fec90615e4a565b80601f016020809104026020016040519081016040528092919081815260200182805461201890615e4a565b80156120655780601f1061203a57610100808354040283529160200191612065565b820191906000526020600020905b81548152906001019060200180831161204857829003601f168201915b50505050508152602001600d8201805461207e90615e4a565b80601f01602080910402602001604051908101604052809291908181526020018280546120aa90615e4a565b80156120f75780601f106120cc576101008083540402835291602001916120f7565b820191906000526020600020905b8154815290600101906020018083116120da57829003601f168201915b5050505050815250509080601001549080601101549080601201549080601301549080601401549080601501805461212e90615e4a565b80601f016020809104026020016040519081016040528092919081815260200182805461215a90615e4a565b80156121a75780601f1061217c576101008083540402835291602001916121a7565b820191906000526020600020905b81548152906001019060200180831161218a57829003601f168201915b5050505050908060160180546121bc90615e4a565b80601f01602080910402602001604051908101604052809291908181526020018280546121e890615e4a565b80156122355780601f1061220a57610100808354040283529160200191612235565b820191906000526020600020905b81548152906001019060200180831161221857829003601f168201915b50505050509080601701805461224a90615e4a565b80601f016020809104026020016040519081016040528092919081815260200182805461227690615e4a565b80156122c35780601f10612298576101008083540402835291602001916122c3565b820191906000526020600020905b8154815290600101906020018083116122a657829003601f168201915b5050505050908060180180546122d890615e4a565b80601f016020809104026020016040519081016040528092919081815260200182805461230490615e4a565b80156123515780601f1061232657610100808354040283529160200191612351565b820191906000526020600020905b81548152906001019060200180831161233457829003601f168201915b50505050509080601901805461236690615e4a565b80601f016020809104026020016040519081016040528092919081815260200182805461239290615e4a565b80156123df5780601f106123b4576101008083540402835291602001916123df565b820191906000526020600020905b8154815290600101906020018083116123c257829003601f168201915b5050604080516101008082018352601a88015460ff8082161515845290829004811615156020840152601b89015493830193909352601c8801546060830152601d88015480841615156080840152048216151560a0820152601e87015460c0820152601f9096015416151560e086015250919291508f9050565b60008111801561246b57506007548111155b6124875760405162461bcd60e51b81526004016104d190615ad5565b6000818152600160205260409020601d810154610100900460ff16156124ac57600080fd5b601d81015460ff16156124be57600080fd5b601d8101805461ffff19169055601f8101805460ff191660019081179091556000838152602082905260409020825481558183015491810180546001600160a01b03199081166001600160a01b039485161790915560028085018054918401918255600380870154908501805490941695169490941790915560048085018054869593928501919061254f90615e4a565b61255a929190614dc4565b50600382018160030190805461256f90615e4a565b61257a929190614dc4565b50600482018160040190805461258f90615e4a565b61259a929190614dc4565b5060058201816005019080546125af90615e4a565b6125ba929190614dc4565b5060068201816006019080546125cf90615e4a565b6125da929190614dc4565b50600782810154908201805460ff191660ff9092161515919091179055600880830180549183019161260b90615e4a565b612616929190614dc4565b50600982018160090190805461262b90615e4a565b612636929190614dc4565b50600a820181600a0190805461264b90615e4a565b612656929190614dc4565b50600b820181600b0190805461266b90615e4a565b612676929190614dc4565b50600c820181600c0190805461268b90615e4a565b612696929190614dc4565b50600d820181600d019080546126ab90615e4a565b6126b6929190614dc4565b505050601082015481601001556011820154816011015560128201548160120155601382015481601301556014820154816014015560158201816015019080546126ff90615e4a565b61270a929190614dc4565b50601682018160160190805461271f90615e4a565b61272a929190614dc4565b50601782018160170190805461273f90615e4a565b61274a929190614dc4565b50601882018160180190805461275f90615e4a565b61276a929190614dc4565b50601982018160190190805461277f90615e4a565b61278a929190614dc4565b50601a8281018054918301805460ff938416151560ff198083168217845593546101009081900486161515810261ff001992831661ffff199485161717909355601b8088015490870155601c8088015490870155601d808801805491880180549288161515838816811782559154869004881615159095029216921691909117179055601e8085015490840155601f93840154939092018054939091161515929091169190911790555050565b60008181526001602052604081206010015460609180826001600160401b0381111561287357634e487b7160e01b600052604160045260246000fd5b6040519080825280602002602001820160405280156128d857816020015b6128c5604051806080016040528060008152602001600081526020016000815260200160006001600160a01b031681525090565b8152602001906001900390816128915790505b50905060005b838110156129965760006128f3826001615dfb565b6000888152600260208181526040808420858552825292839020835160808101855281548152600182015492810192909252918201549281019290925260038101546001600160a01b0316606083015285519293509185908790811061296957634e487b7160e01b600052603260045260246000fd5b602090810291909101015261297f600186615dfb565b94505050808061298e90615e85565b9150506128de565b50949350505050565b6129c5604051806060016040528060001515815260200160608152602001600081525090565b3360009081526004602052604090205460ff16151560011415612aac5733600090815260046020908152604091829020825160608101909352805460ff16151583526001810180549192840191612a1b90615e4a565b80601f0160208091040260200160405190810160405280929190818152602001828054612a4790615e4a565b8015612a945780601f10612a6957610100808354040283529160200191612a94565b820191906000526020600020905b815481529060010190602001808311612a7757829003601f168201915b50505050508152602001600282015481525050905090565b33600090815260046020908152604091829020825160608101909352805460ff16151583526001810180549192840191612a1b90615e4a565b6000805460408051633fabe5a360e21b8152905183926001600160a01b03169163feaf968c9160048083019260a0929190829003018186803b158015612b2a57600080fd5b505afa158015612b3e573d6000803e3d6000fd5b505050506040513d601f19601f82011682018060405250810190612b62919061557a565b505050915050612b7181614d4f565b91505090565b600854606090600080826001600160401b03811115612ba657634e487b7160e01b600052604160045260246000fd5b604051908082528060200260200182016040528015612bdf57816020015b612bcc614f0d565b815260200190600190039081612bc45790505b50905060005b83811015611a4e576000612bfa826001615dfb565b60008181526003602090815260409182902082516101c0810184528154815260018201546001600160a01b0316928101929092526002810180549495509093919284929084019190612c4b90615e4a565b80601f0160208091040260200160405190810160405280929190818152602001828054612c7790615e4a565b8015612cc45780601f10612c9957610100808354040283529160200191612cc4565b820191906000526020600020905b815481529060010190602001808311612ca757829003601f168201915b50505050508152602001600382018054612cdd90615e4a565b80601f0160208091040260200160405190810160405280929190818152602001828054612d0990615e4a565b8015612d565780601f10612d2b57610100808354040283529160200191612d56565b820191906000526020600020905b815481529060010190602001808311612d3957829003601f168201915b50505050508152602001600482018054612d6f90615e4a565b80601f0160208091040260200160405190810160405280929190818152602001828054612d9b90615e4a565b8015612de85780601f10612dbd57610100808354040283529160200191612de8565b820191906000526020600020905b815481529060010190602001808311612dcb57829003601f168201915b50505050508152602001600582018054612e0190615e4a565b80601f0160208091040260200160405190810160405280929190818152602001828054612e2d90615e4a565b8015612e7a5780601f10612e4f57610100808354040283529160200191612e7a565b820191906000526020600020905b815481529060010190602001808311612e5d57829003601f168201915b50505050508152602001600682018054612e9390615e4a565b80601f0160208091040260200160405190810160405280929190818152602001828054612ebf90615e4a565b8015612f0c5780601f10612ee157610100808354040283529160200191612f0c565b820191906000526020600020905b815481529060010190602001808311612eef57829003601f168201915b5050509183525050600782015460ff1615156020820152600882018054604090920191612f3890615e4a565b80601f0160208091040260200160405190810160405280929190818152602001828054612f6490615e4a565b8015612fb15780601f10612f8657610100808354040283529160200191612fb1565b820191906000526020600020905b815481529060010190602001808311612f9457829003601f168201915b50505050508152602001600982018054612fca90615e4a565b80601f0160208091040260200160405190810160405280929190818152602001828054612ff690615e4a565b80156130435780601f1061301857610100808354040283529160200191613043565b820191906000526020600020905b81548152906001019060200180831161302657829003601f168201915b50505050508152602001600a8201805461305c90615e4a565b80601f016020809104026020016040519081016040528092919081815260200182805461308890615e4a565b80156130d55780601f106130aa576101008083540402835291602001916130d5565b820191906000526020600020905b8154815290600101906020018083116130b857829003601f168201915b50505050508152602001600b820180546130ee90615e4a565b80601f016020809104026020016040519081016040528092919081815260200182805461311a90615e4a565b80156131675780601f1061313c57610100808354040283529160200191613167565b820191906000526020600020905b81548152906001019060200180831161314a57829003601f168201915b50505050508152602001600c8201805461318090615e4a565b80601f01602080910402602001604051908101604052809291908181526020018280546131ac90615e4a565b80156131f95780601f106131ce576101008083540402835291602001916131f9565b820191906000526020600020905b8154815290600101906020018083116131dc57829003601f168201915b50505050508152602001600d8201805461321290615e4a565b80601f016020809104026020016040519081016040528092919081815260200182805461323e90615e4a565b801561328b5780601f106132605761010080835404028352916020019161328b565b820191906000526020600020905b81548152906001019060200180831161326e57829003601f168201915b5050505050815250508486815181106132b457634e487b7160e01b600052603260045260246000fd5b60209081029190910101526132ca600186615dfb565b9450505080806132d990615e85565b915050612be5565b6000811180156132f357506007548111155b61330f5760405162461bcd60e51b81526004016104d190615ad5565b6000818152600160205260409020601d810154610100900460ff161561333457600080fd5b601d81015460ff161561334657600080fd5b601d8101805461ffff1916610101179055601f8101805460ff1916905542601e8201556000828152600160208190526040909120825481558183015491810180546001600160a01b039384166001600160a01b03199182161790915560028085018054918401918255600380870154908501805491909616931692909217909355600480850180548695928501919061254f90615e4a565b336133e857600080fd5b600780549060006133f883615e85565b9091555050600754600081815260016020818152604080842094855591840180546001600160a01b0319163390811790915583526004905290205460ff166138a657600854613448906001615dfb565b600881905560028201556003810180546001600160a01b0319163317905560408084015101518051613484916004840191602090910190614f87565b5060408301516060015180516134a4916005840191602090910190614f87565b5060408301516080015180516134c4916006840191602090910190614f87565b50604083015160a0015180516134e4916007840191602090910190614f87565b50604083015160c001518051613504916008840191602090910190614f87565b5060098101805460ff1916600117905560408301516101000151805161353491600a840191602090910190614f87565b5060408301516101200151805161355591600b840191602090910190614f87565b5060408301516101400151805161357691600c840191602090910190614f87565b5060408301516101600151805161359791600d840191602090910190614f87565b506040830151610180015180516135b891600e840191602090910190614f87565b5060408301516101a0015180516135d991600f840191602090910190614f87565b50600880546000818152600360209081526040808320938455600190930180546001600160a01b031916331790558683015183015193548252919020825161362b936002909201929190910190614f87565b506040808401516060015160085460009081526003602081815293909120825161365b9491909201920190614f87565b508260400151608001516003600060085481526020019081526020016000206004019080519060200190613690929190614f87565b50826040015160a0015160036000600854815260200190815260200160002060050190805190602001906136c5929190614f87565b50826040015160c0015160036000600854815260200190815260200160002060060190805190602001906136fa929190614f87565b50600880546000908152600360209081526040808320600701805460ff19166001179055868101516101000151845484529220825161374194919091019290910190614f87565b50826040015161012001516003600060085481526020019081526020016000206009019080519060200190613777929190614f87565b5082604001516101400151600360006008548152602001908152602001600020600a0190805190602001906137ad929190614f87565b5082604001516101600151600360006008548152602001908152602001600020600b0190805190602001906137e3929190614f87565b5082604001516101800151600360006008548152602001908152602001600020600c019080519060200190613819929190614f87565b5082604001516101a00151600360006008548152602001908152602001600020600d01908051906020019061384f929190614f87565b5033600090815260046020908152604091829020805460ff1916600190811782558684015190930151805161388a9492909201920190614f87565b5060085433600090815260046020526040902060020155613ac3565b6000828152600360208190526040909120805460028085019190915591830180546001600160a01b031916331790550180546004830191906138e790615e4a565b6138f2929190614dc4565b50600082815260036020819052604090912001805460058301919061391690615e4a565b613921929190614dc4565b506000828152600360205260409020600401805460068301919061394490615e4a565b61394f929190614dc4565b506000828152600360205260409020600501805460078301919061397290615e4a565b61397d929190614dc4565b50600082815260036020526040902060060180546008830191906139a090615e4a565b6139ab929190614dc4565b5060098101805460ff1916600117905560008281526003602052604090206008018054600a830191906139dd90615e4a565b6139e8929190614dc4565b5060008281526003602052604090206009018054600b83019190613a0b90615e4a565b613a16929190614dc4565b506000828152600360205260409020600a018054600c83019190613a3990615e4a565b613a44929190614dc4565b506000828152600360205260409020600b018054600d83019190613a6790615e4a565b613a72929190614dc4565b506000828152600360205260409020600c018054600e83019190613a9590615e4a565b613aa0929190614dc4565b5060408301516101a001518051613ac191600f840191602090910190614f87565b505b600060118201819055601082015542601282015560c0830151601382015560e083015160148201556101008301518051613b07916015840191602090910190614f87565b506101208301518051613b24916016840191602090910190614f87565b506101408301518051613b41916017840191602090910190614f87565b506101008301518051613b5e916015840191602090910190614f87565b506101608301518051613b7b916018840191602090910190614f87565b506101808301518051613b98916019840191602090910190614f87565b50601a8101805461ffff19908116909155601d820180549091169055601f8101805460ff191690556000601e8201819055601b8201819055601c8201556007546006546009546012840154601385015460148601546040517f7c8a17aaa539b5bb8a8ea1700d5c6e2008e7baa2a6f82e7cd29308dbba896d7d96613c41969095339591949093919290919060158b019060168c019060178d019060188e019060198f0190615d38565b60405180910390a1505050565b600081118015613c6057506007548111155b613c7c5760405162461bcd60e51b81526004016104d190615ad5565b6000818152600160208190526040909120601a8101805461ff001916905590810180546001600160a01b03198082166001600160a01b0392831617909255600383018054928316929091169190911790556004810180548291829160028301918291819061254f90615e4a565b600081118015613cfb57506007548111155b613d0457600080fd5b60008181526001602052604090206014810154601182015410613d3157601a8101805460ff191660011790555b60018101546001600160a01b03166011600a6000613d4f8383614da5565b905060646000613d5f8284614da5565b90506000613d6d3483614da5565b90506001600160a01b0387166108fc613d863484614db8565b6040518115909202916000818181858888f19350505050158015613dae573d6000803e3d6000fd5b506005546040516001600160a01b0390911690819083156108fc029084906000818181858888f19350505050158015613deb573d6000803e3d6000fd5b5034600954613dfa9190615dfb565b6009556011890154613e0d903490615dfb565b60118a01556010890154613e22906001615dfb565b60108a015560068054906000613e3783615e85565b91905055508860100154600260008b60000154815260200190815260200160002060008b6010015481526020019081526020016000206000018190555034600260008b60000154815260200190815260200160002060008b6010015481526020019081526020016000206001018190555042600260008b60000154815260200190815260200160002060008b6010015481526020019081526020016000206002018190555033600260008b60000154815260200190815260200160002060008b60100154815260200190815260200160002060030160006101000a8154816001600160a01b0302191690836001600160a01b0316021790555088600160008c8152602001908152602001600020600082015481600001556001820160009054906101000a90046001600160a01b03168160010160006101000a8154816001600160a01b0302191690836001600160a01b031602179055506002820181600201600082015481600001556001820160009054906101000a90046001600160a01b03168160010160006101000a8154816001600160a01b0302191690836001600160a01b031602179055506002820181600201908054613ff490615e4a565b613fff929190614dc4565b50600382018160030190805461401490615e4a565b61401f929190614dc4565b50600482018160040190805461403490615e4a565b61403f929190614dc4565b50600582018160050190805461405490615e4a565b61405f929190614dc4565b50600682018160060190805461407490615e4a565b61407f929190614dc4565b50600782810154908201805460ff191660ff909216151591909117905560088083018054918301916140b090615e4a565b6140bb929190614dc4565b5060098201816009019080546140d090615e4a565b6140db929190614dc4565b50600a820181600a019080546140f090615e4a565b6140fb929190614dc4565b50600b820181600b0190805461411090615e4a565b61411b929190614dc4565b50600c820181600c0190805461413090615e4a565b61413b929190614dc4565b50600d820181600d0190805461415090615e4a565b61415b929190614dc4565b505050601082015481601001556011820154816011015560128201548160120155601382015481601301556014820154816014015560158201816015019080546141a490615e4a565b6141af929190614dc4565b5060168201816016019080546141c490615e4a565b6141cf929190614dc4565b5060178201816017019080546141e490615e4a565b6141ef929190614dc4565b50601882018160180190805461420490615e4a565b61420f929190614dc4565b50601982018160190190805461422490615e4a565b61422f929190614dc4565b50601a8281018054918301805460ff938416151560ff198083168217845593546101009081900486161515810261ff001992831661ffff199485161717909355601b8088015490870155601c8088015490870155601d808801805491880180549288161515838816811782559154869004881615159095029216921691909117179055601e8085015490840155601f938401549390920180549390911615159290911691909117905550505050505050505050565b6142ec614e4b565b600082815260016020526040902054821415614d4a5760008281526001602081815260409283902083516101c0808201865282548252938201546001600160a01b0390811682850152855194850186526002830180548652600384015490911693850193909352600482018054919592948684019490939092908401919061437390615e4a565b80601f016020809104026020016040519081016040528092919081815260200182805461439f90615e4a565b80156143ec5780601f106143c1576101008083540402835291602001916143ec565b820191906000526020600020905b8154815290600101906020018083116143cf57829003601f168201915b5050505050815260200160038201805461440590615e4a565b80601f016020809104026020016040519081016040528092919081815260200182805461443190615e4a565b801561447e5780601f106144535761010080835404028352916020019161447e565b820191906000526020600020905b81548152906001019060200180831161446157829003601f168201915b5050505050815260200160048201805461449790615e4a565b80601f01602080910402602001604051908101604052809291908181526020018280546144c390615e4a565b80156145105780601f106144e557610100808354040283529160200191614510565b820191906000526020600020905b8154815290600101906020018083116144f357829003601f168201915b5050505050815260200160058201805461452990615e4a565b80601f016020809104026020016040519081016040528092919081815260200182805461455590615e4a565b80156145a25780601f10614577576101008083540402835291602001916145a2565b820191906000526020600020905b81548152906001019060200180831161458557829003601f168201915b505050505081526020016006820180546145bb90615e4a565b80601f01602080910402602001604051908101604052809291908181526020018280546145e790615e4a565b80156146345780601f1061460957610100808354040283529160200191614634565b820191906000526020600020905b81548152906001019060200180831161461757829003601f168201915b5050509183525050600782015460ff161515602082015260088201805460409092019161466090615e4a565b80601f016020809104026020016040519081016040528092919081815260200182805461468c90615e4a565b80156146d95780601f106146ae576101008083540402835291602001916146d9565b820191906000526020600020905b8154815290600101906020018083116146bc57829003601f168201915b505050505081526020016009820180546146f290615e4a565b80601f016020809104026020016040519081016040528092919081815260200182805461471e90615e4a565b801561476b5780601f106147405761010080835404028352916020019161476b565b820191906000526020600020905b81548152906001019060200180831161474e57829003601f168201915b50505050508152602001600a8201805461478490615e4a565b80601f01602080910402602001604051908101604052809291908181526020018280546147b090615e4a565b80156147fd5780601f106147d2576101008083540402835291602001916147fd565b820191906000526020600020905b8154815290600101906020018083116147e057829003601f168201915b50505050508152602001600b8201805461481690615e4a565b80601f016020809104026020016040519081016040528092919081815260200182805461484290615e4a565b801561488f5780601f106148645761010080835404028352916020019161488f565b820191906000526020600020905b81548152906001019060200180831161487257829003601f168201915b50505050508152602001600c820180546148a890615e4a565b80601f01602080910402602001604051908101604052809291908181526020018280546148d490615e4a565b80156149215780601f106148f657610100808354040283529160200191614921565b820191906000526020600020905b81548152906001019060200180831161490457829003601f168201915b50505050508152602001600d8201805461493a90615e4a565b80601f016020809104026020016040519081016040528092919081815260200182805461496690615e4a565b80156149b35780601f10614988576101008083540402835291602001916149b3565b820191906000526020600020905b81548152906001019060200180831161499657829003601f168201915b50505050508152505081526020016010820154815260200160118201548152602001601282015481526020016013820154815260200160148201548152602001601582018054614a0290615e4a565b80601f0160208091040260200160405190810160405280929190818152602001828054614a2e90615e4a565b8015614a7b5780601f10614a5057610100808354040283529160200191614a7b565b820191906000526020600020905b815481529060010190602001808311614a5e57829003601f168201915b50505050508152602001601682018054614a9490615e4a565b80601f0160208091040260200160405190810160405280929190818152602001828054614ac090615e4a565b8015614b0d5780601f10614ae257610100808354040283529160200191614b0d565b820191906000526020600020905b815481529060010190602001808311614af057829003601f168201915b50505050508152602001601782018054614b2690615e4a565b80601f0160208091040260200160405190810160405280929190818152602001828054614b5290615e4a565b8015614b9f5780601f10614b7457610100808354040283529160200191614b9f565b820191906000526020600020905b815481529060010190602001808311614b8257829003601f168201915b50505050508152602001601882018054614bb890615e4a565b80601f0160208091040260200160405190810160405280929190818152602001828054614be490615e4a565b8015614c315780601f10614c0657610100808354040283529160200191614c31565b820191906000526020600020905b815481529060010190602001808311614c1457829003601f168201915b50505050508152602001601982018054614c4a90615e4a565b80601f0160208091040260200160405190810160405280929190818152602001828054614c7690615e4a565b8015614cc35780601f10614c9857610100808354040283529160200191614cc3565b820191906000526020600020905b815481529060010190602001808311614ca657829003601f168201915b5050509183525050604080516101008082018352601a85015460ff808216151584529082900481161515602084810191909152601b87015494840194909452601c8601546060840152601d86015480821615156080850152919091048116151560a0830152601e85015460c0830152601f90940154909316151560e0840152015292915050565b919050565b600080821215614da15760405162461bcd60e51b815260206004820181905260248201527f53616665436173743a2076616c7565206d75737420626520706f73697469766560448201526064016104d1565b5090565b6000614db18284615e13565b9392505050565b6000614db18284615e33565b828054614dd090615e4a565b90600052602060002090601f016020900481019282614df25760008555614e3f565b82601f10614e035780548555614e3f565b82800160010185558215614e3f57600052602060002091601f016020900482015b82811115614e3f578254825591600101919060010190614e24565b50614da1929150614ffb565b604080516101c08101825260008082526020820152908101614e6b614f0d565b815260200160008152602001600081526020016000815260200160008152602001600081526020016060815260200160608152602001606081526020016060815260200160608152602001614f086040518061010001604052806000151581526020016000151581526020016000815260200160008152602001600015158152602001600015158152602001600081526020016000151581525090565b905290565b604051806101c001604052806000815260200160006001600160a01b0316815260200160608152602001606081526020016060815260200160608152602001606081526020016000151581526020016060815260200160608152602001606081526020016060815260200160608152602001606081525090565b828054614f9390615e4a565b90600052602060002090601f016020900481019282614fb55760008555614e3f565b82601f10614fce57805160ff1916838001178555614e3f565b82800160010185558215614e3f579182015b82811115614e3f578251825591602001919060010190614fe0565b5b80821115614da15760008155600101614ffc565b8035614d4a81615ecc565b80358015158114614d4a57600080fd5b600082601f83011261503b578081fd5b81356001600160401b038082111561505557615055615eb6565b604051601f8301601f19908116603f0116810190828211818310171561507d5761507d615eb6565b81604052838152866020858801011115615095578485fd5b8360208701602083013792830160200193909352509392505050565b60006101008083850312156150c4578182fd5b604051908101906001600160401b03821181831017156150e6576150e6615eb6565b816040528092506150f68461501b565b81526151046020850161501b565b602082015260408401356040820152606084013560608201526151296080850161501b565b608082015261513a60a0850161501b565b60a082015260c084013560c082015261515560e0850161501b565b60e0820152505092915050565b60006101c08284031215615174578081fd5b61517c615dd2565b90508135815261518e60208301615010565b602082015260408201356001600160401b03808211156151ad57600080fd5b6151b98583860161502b565b604084015260608401359150808211156151d257600080fd5b6151de8583860161502b565b606084015260808401359150808211156151f757600080fd5b6152038583860161502b565b608084015260a084013591508082111561521c57600080fd5b6152288583860161502b565b60a084015260c084013591508082111561524157600080fd5b61524d8583860161502b565b60c084015261525e60e0850161501b565b60e08401526101009150818401358181111561527957600080fd5b6152858682870161502b565b8385015250610120915081840135818111156152a057600080fd5b6152ac8682870161502b565b8385015250610140915081840135818111156152c757600080fd5b6152d38682870161502b565b8385015250610160915081840135818111156152ee57600080fd5b6152fa8682870161502b565b83850152506101809150818401358181111561531557600080fd5b6153218682870161502b565b83850152506101a09150818401358181111561533c57600080fd5b6153488682870161502b565b8385015250505092915050565b80516001600160501b0381168114614d4a57600080fd5b60006020828403121561537d578081fd5b8135614db181615ecc565b6000806040838503121561539a578081fd5b82356001600160401b03808211156153b0578283fd5b908401906102a082870312156153c4578283fd5b6153cc615dd2565b823581526153dc60208401615010565b60208201526040830135828111156153f2578485fd5b6153fe88828601615162565b604083015250606083013560608201526080830135608082015260a083013560a082015260c083013560c082015260e083013560e08201526101008084013583811115615449578586fd5b6154558982870161502b565b828401525050610120808401358381111561546e578586fd5b61547a8982870161502b565b8284015250506101408084013583811115615493578586fd5b61549f8982870161502b565b82840152505061016080840135838111156154b8578586fd5b6154c48982870161502b565b82840152505061018080840135838111156154dd578586fd5b6154e98982870161502b565b8284015250506101a09150615500878385016150b1565b9181019190915295602094909401359450505050565b600060208284031215615527578081fd5b5035919050565b60008060408385031215615540578182fd5b50508035926020909101359150565b600080600060608486031215615563578081fd5b505081359360208301359350604090920135919050565b600080600080600060a08688031215615591578081fd5b61559a86615355565b94506020860151935060408601519250606086015191506155bd60808701615355565b90509295509295909350565b6001600160a01b03169052565b60008151808452815b818110156155fb576020818501810151868301820152016155df565b8181111561560c5782602083870101525b50601f01601f19169290920160200192915050565b8054600090600181811c908083168061563b57607f831692505b602080841082141561565b57634e487b7160e01b86526022600452602486fd5b838852602088018280156156765760018114615687576156b2565b60ff198716825282820197506156b2565b60008981526020902060005b878110156156ac57815484820152908601908401615693565b83019850505b5050505050505092915050565b60006102a08251845260208301516156da60208601826155c9565b5060408301518160408601526156f282860182615828565b915050606083015160608501526080830151608085015260a083015160a085015260c083015160c085015260e083015160e0850152610100808401518583038287015261573f83826155d6565b92505050610120808401518583038287015261575b83826155d6565b92505050610140808401518583038287015261577783826155d6565b92505050610160808401518583038287015261579383826155d6565b9250505061018080840151858303828701526157af83826155d6565b925050506101a0808401516157c6828701826157d0565b5090949350505050565b805115158252602081015115156020830152604081015160408301526060810151606083015260808101511515608083015260a0810151151560a083015260c081015160c083015260e0810151151560e08301525050565b60006101c082518452602083015161584360208601826155c9565b50604083015181604086015261585b828601826155d6565b9150506060830151848203606086015261587582826155d6565b9150506080830151848203608086015261588f82826155d6565b91505060a083015184820360a08601526158a982826155d6565b91505060c083015184820360c08601526158c382826155d6565b91505060e08301516158d960e086018215159052565b5061010080840151858303828701526158f283826155d6565b92505050610120808401518583038287015261590e83826155d6565b92505050610140808401518583038287015261592a83826155d6565b92505050610160808401518583038287015261594683826155d6565b92505050610180808401518583038287015261596283826155d6565b925050506101a0808401518583038287015261597e83826155d6565b9695505050505050565b6000602080830181845280855180835260408601915060408160051b8701019250838701855b828110156159dc57603f198886030184526159ca8583516156bf565b945092850192908501906001016159ae565b5092979650505050505050565b602080825282518282018190526000919060409081850190868401855b82811015615a4957815180518552868101518786015285810151868601526060908101516001600160a01b03169085015260809093019290850190600101615a06565b5091979650505050505050565b6000602080830181845280855180835260408601915060408160051b8701019250838701855b828110156159dc57603f19888603018452615a98858351615828565b94509285019290850190600101615a7c565b8315158152606060208201526000615ac560608301856155d6565b9050826040830152949350505050565b602080825260159082015274191bdb985d1a5bdb881a59081b9bdd081d985b1a59605a1b604082015260600190565b602081526000614db160208301846156bf565b602081528151151560208201526000602083015160606040840152615b3f60808401826155d6565b9050604084015160608401528091505092915050565b8e8152615b65602082018f6155c9565b6102a060408201526000615b7d6102a083018f615828565b8d60608401528c60808401528b60a08401528a60c08401528960e0840152828103610100840152615bae818a6155d6565b9050828103610120840152615bc381896155d6565b9050828103610140840152615bd881886155d6565b9050828103610160840152615bed81876155d6565b9050828103610180840152615c0281866155d6565b915050615c136101a08301846157d0565b9f9e505050505050505050505050505050565b8e8152615c36602082018f6155c9565b6101c060408201526000615c4e6101c083018f6155d6565b8281036060840152615c60818f6155d6565b90508281036080840152615c74818e6155d6565b905082810360a0840152615c88818d6155d6565b905082810360c0840152615c9c818c6155d6565b8a151560e08501529050828103610100840152615cb9818a6155d6565b9050828103610120840152615cce81896155d6565b9050828103610140840152615ce381886155d6565b9050828103610160840152615cf881876155d6565b9050828103610180840152615d0d81866155d6565b90508281036101a0840152615d2281856155d6565b9150509f9e505050505050505050505050505050565b60006101808e835260018060a01b038e1660208401528c60408401528b60608401528a60808401528960a08401528860c08401528060e0840152615d7e81840189615621565b9050828103610100840152615d938188615621565b9050828103610120840152615da88187615621565b9050828103610140840152615dbd8186615621565b9050828103610160840152615c138185615621565b6040516101c081016001600160401b0381118282101715615df557615df5615eb6565b60405290565b60008219821115615e0e57615e0e615ea0565b500190565b600082615e2e57634e487b7160e01b81526012600452602481fd5b500490565b600082821015615e4557615e45615ea0565b500390565b600181811c90821680615e5e57607f821691505b60208210811415615e7f57634e487b7160e01b600052602260045260246000fd5b50919050565b6000600019821415615e9957615e99615ea0565b5060010190565b634e487b7160e01b600052601160045260246000fd5b634e487b7160e01b600052604160045260246000fd5b6001600160a01b0381168114615ee157600080fd5b5056fea26469706673582212202f9931dc5966aa47bcc19752090c9329ec37a82179f0cfca891b358a3c212f5164736f6c63430008040033",
  "linkReferences": {},
  "deployedLinkReferences": {}
}