{
  "_format": "hh-sol-artifact-1",
  "contractName": "Donation",
  "sourceName": "contracts/Donation.sol",
  "abi": [
    {
      "inputs": [
        {
          "internalType": "address",
          "name": "companyaddress_",
          "type": "address"
        }
      ],
      "stateMutability": "nonpayable",
      "type": "constructor"
    },
    {
      "inputs": [
        {
          "internalType": "uint256",
          "name": "_id",
          "type": "uint256"
        }
      ],
      "name": "addDonation",
      "outputs": [],
      "stateMutability": "payable",
      "type": "function"
    },
    {
      "inputs": [],
      "name": "amountRaised",
      "outputs": [
        {
          "internalType": "uint256",
          "name": "",
          "type": "uint256"
        }
      ],
      "stateMutability": "view",
      "type": "function"
    },
    {
      "inputs": [
        {
          "internalType": "uint256",
          "name": "_id",
          "type": "uint256"
        }
      ],
      "name": "approveDonation",
      "outputs": [],
      "stateMutability": "nonpayable",
      "type": "function"
    },
    {
      "inputs": [
        {
          "components": [
            {
              "internalType": "uint256",
              "name": "id",
              "type": "uint256"
            },
            {
              "internalType": "address payable",
              "name": "owner",
              "type": "address"
            },
            {
              "components": [
                {
                  "internalType": "uint256",
                  "name": "id",
                  "type": "uint256"
                },
                {
                  "internalType": "address",
                  "name": "_address",
                  "type": "address"
                },
                {
                  "internalType": "string",
                  "name": "userType",
                  "type": "string"
                },
                {
                  "internalType": "string",
                  "name": "country",
                  "type": "string"
                },
                {
                  "internalType": "string",
                  "name": "city",
                  "type": "string"
                },
                {
                  "internalType": "string",
                  "name": "email",
                  "type": "string"
                },
                {
                  "internalType": "string",
                  "name": "residenceAddress",
                  "type": "string"
                },
                {
                  "internalType": "bool",
                  "name": "isRegistered",
                  "type": "bool"
                },
                {
                  "internalType": "string",
                  "name": "website",
                  "type": "string"
                },
                {
                  "internalType": "string",
                  "name": "facebookUrl",
                  "type": "string"
                },
                {
                  "internalType": "string",
                  "name": "twitterUrl",
                  "type": "string"
                },
                {
                  "internalType": "string",
                  "name": "instagramUrl",
                  "type": "string"
                },
                {
                  "internalType": "string",
                  "name": "youtubeUrl",
                  "type": "string"
                },
                {
                  "internalType": "string",
                  "name": "hash",
                  "type": "string"
                }
              ],
              "internalType": "struct Donation.User",
              "name": "user",
              "type": "tuple"
            },
            {
              "internalType": "uint256",
              "name": "donersCount",
              "type": "uint256"
            },
            {
              "internalType": "uint256",
              "name": "donationsRaised",
              "type": "uint256"
            },
            {
              "internalType": "uint256",
              "name": "startDate",
              "type": "uint256"
            },
            {
              "internalType": "uint256",
              "name": "endDate",
              "type": "uint256"
            },
            {
              "internalType": "uint256",
              "name": "targetedAmount",
              "type": "uint256"
            },
            {
              "internalType": "string",
              "name": "category",
              "type": "string"
            },
            {
              "internalType": "string",
              "name": "title",
              "type": "string"
            },
            {
              "internalType": "string",
              "name": "hash",
              "type": "string"
            },
            {
              "internalType": "string",
              "name": "purpose",
              "type": "string"
            },
            {
              "internalType": "string",
              "name": "description",
              "type": "string"
            },
            {
              "components": [
                {
                  "internalType": "bool",
                  "name": "completed",
                  "type": "bool"
                },
                {
                  "internalType": "bool",
                  "name": "isPinned",
                  "type": "bool"
                },
                {
                  "internalType": "uint256",
                  "name": "pinnedDuration",
                  "type": "uint256"
                },
                {
                  "internalType": "uint256",
                  "name": "pinnedEndDate",
                  "type": "uint256"
                },
                {
                  "internalType": "bool",
                  "name": "isVisible",
                  "type": "bool"
                },
                {
                  "internalType": "bool",
                  "name": "isApproved",
                  "type": "bool"
                },
                {
                  "internalType": "uint256",
                  "name": "approvedDate",
                  "type": "uint256"
                },
                {
                  "internalType": "bool",
                  "name": "isRejected",
                  "type": "bool"
                }
              ],
              "internalType": "struct Donation.DonationStatus",
              "name": "donationstatus",
              "type": "tuple"
            }
          ],
          "internalType": "struct Donation.DonationItem",
          "name": "donation_",
          "type": "tuple"
        },
        {
          "internalType": "uint256",
          "name": "id_",
          "type": "uint256"
        }
      ],
      "name": "createDonation",
      "outputs": [],
      "stateMutability": "payable",
      "type": "function"
    },
    {
      "inputs": [
        {
          "internalType": "uint256",
          "name": "_id",
          "type": "uint256"
        }
      ],
      "name": "disablePinnedDonation",
      "outputs": [],
      "stateMutability": "nonpayable",
      "type": "function"
    },
    {
      "inputs": [],
      "name": "donationCount",
      "outputs": [
        {
          "internalType": "uint256",
          "name": "",
          "type": "uint256"
        }
      ],
      "stateMutability": "view",
      "type": "function"
    },
    {
      "inputs": [
        {
          "internalType": "uint256",
          "name": "",
          "type": "uint256"
        },
        {
          "internalType": "uint256",
          "name": "",
          "type": "uint256"
        }
      ],
      "name": "doners",
      "outputs": [
        {
          "internalType": "uint256",
          "name": "id",
          "type": "uint256"
        },
        {
          "internalType": "uint256",
          "name": "amount",
          "type": "uint256"
        },
        {
          "internalType": "uint256",
          "name": "date",
          "type": "uint256"
        },
        {
          "internalType": "address",
          "name": "doner",
          "type": "address"
        }
      ],
      "stateMutability": "view",
      "type": "function"
    },
    {
      "inputs": [],
      "name": "donersCount",
      "outputs": [
        {
          "internalType": "uint256",
          "name": "",
          "type": "uint256"
        }
      ],
      "stateMutability": "view",
      "type": "function"
    },
    {
      "inputs": [],
      "name": "fetchAllDonationItems",
      "outputs": [
        {
          "components": [
            {
              "internalType": "uint256",
              "name": "id",
              "type": "uint256"
            },
            {
              "internalType": "address payable",
              "name": "owner",
              "type": "address"
            },
            {
              "components": [
                {
                  "internalType": "uint256",
                  "name": "id",
                  "type": "uint256"
                },
                {
                  "internalType": "address",
                  "name": "_address",
                  "type": "address"
                },
                {
                  "internalType": "string",
                  "name": "userType",
                  "type": "string"
                },
                {
                  "internalType": "string",
                  "name": "country",
                  "type": "string"
                },
                {
                  "internalType": "string",
                  "name": "city",
                  "type": "string"
                },
                {
                  "internalType": "string",
                  "name": "email",
                  "type": "string"
                },
                {
                  "internalType": "string",
                  "name": "residenceAddress",
                  "type": "string"
                },
                {
                  "internalType": "bool",
                  "name": "isRegistered",
                  "type": "bool"
                },
                {
                  "internalType": "string",
                  "name": "website",
                  "type": "string"
                },
                {
                  "internalType": "string",
                  "name": "facebookUrl",
                  "type": "string"
                },
                {
                  "internalType": "string",
                  "name": "twitterUrl",
                  "type": "string"
                },
                {
                  "internalType": "string",
                  "name": "instagramUrl",
                  "type": "string"
                },
                {
                  "internalType": "string",
                  "name": "youtubeUrl",
                  "type": "string"
                },
                {
                  "internalType": "string",
                  "name": "hash",
                  "type": "string"
                }
              ],
              "internalType": "struct Donation.User",
              "name": "user",
              "type": "tuple"
            },
            {
              "internalType": "uint256",
              "name": "donersCount",
              "type": "uint256"
            },
            {
              "internalType": "uint256",
              "name": "donationsRaised",
              "type": "uint256"
            },
            {
              "internalType": "uint256",
              "name": "startDate",
              "type": "uint256"
            },
            {
              "internalType": "uint256",
              "name": "endDate",
              "type": "uint256"
            },
            {
              "internalType": "uint256",
              "name": "targetedAmount",
              "type": "uint256"
            },
            {
              "internalType": "string",
              "name": "category",
              "type": "string"
            },
            {
              "internalType": "string",
              "name": "title",
              "type": "string"
            },
            {
              "internalType": "string",
              "name": "hash",
              "type": "string"
            },
            {
              "internalType": "string",
              "name": "purpose",
              "type": "string"
            },
            {
              "internalType": "string",
              "name": "description",
              "type": "string"
            },
            {
              "components": [
                {
                  "internalType": "bool",
                  "name": "completed",
                  "type": "bool"
                },
                {
                  "internalType": "bool",
                  "name": "isPinned",
                  "type": "bool"
                },
                {
                  "internalType": "uint256",
                  "name": "pinnedDuration",
                  "type": "uint256"
                },
                {
                  "internalType": "uint256",
                  "name": "pinnedEndDate",
                  "type": "uint256"
                },
                {
                  "internalType": "bool",
                  "name": "isVisible",
                  "type": "bool"
                },
                {
                  "internalType": "bool",
                  "name": "isApproved",
                  "type": "bool"
                },
                {
                  "internalType": "uint256",
                  "name": "approvedDate",
                  "type": "uint256"
                },
                {
                  "internalType": "bool",
                  "name": "isRejected",
                  "type": "bool"
                }
              ],
              "internalType": "struct Donation.DonationStatus",
              "name": "donationstatus",
              "type": "tuple"
            }
          ],
          "internalType": "struct Donation.DonationItem[]",
          "name": "",
          "type": "tuple[]"
        }
      ],
      "stateMutability": "view",
      "type": "function"
    },
    {
      "inputs": [],
      "name": "fetchAllUsers",
      "outputs": [
        {
          "components": [
            {
              "internalType": "uint256",
              "name": "id",
              "type": "uint256"
            },
            {
              "internalType": "address",
              "name": "_address",
              "type": "address"
            },
            {
              "internalType": "string",
              "name": "userType",
              "type": "string"
            },
            {
              "internalType": "string",
              "name": "country",
              "type": "string"
            },
            {
              "internalType": "string",
              "name": "city",
              "type": "string"
            },
            {
              "internalType": "string",
              "name": "email",
              "type": "string"
            },
            {
              "internalType": "string",
              "name": "residenceAddress",
              "type": "string"
            },
            {
              "internalType": "bool",
              "name": "isRegistered",
              "type": "bool"
            },
            {
              "internalType": "string",
              "name": "website",
              "type": "string"
            },
            {
              "internalType": "string",
              "name": "facebookUrl",
              "type": "string"
            },
            {
              "internalType": "string",
              "name": "twitterUrl",
              "type": "string"
            },
            {
              "internalType": "string",
              "name": "instagramUrl",
              "type": "string"
            },
            {
              "internalType": "string",
              "name": "youtubeUrl",
              "type": "string"
            },
            {
              "internalType": "string",
              "name": "hash",
              "type": "string"
            }
          ],
          "internalType": "struct Donation.User[]",
          "name": "",
          "type": "tuple[]"
        }
      ],
      "stateMutability": "view",
      "type": "function"
    },
    {
      "inputs": [
        {
          "internalType": "uint256",
          "name": "_id",
          "type": "uint256"
        }
      ],
      "name": "getDonation",
      "outputs": [
        {
          "components": [
            {
              "internalType": "uint256",
              "name": "id",
              "type": "uint256"
            },
            {
              "internalType": "address payable",
              "name": "owner",
              "type": "address"
            },
            {
              "components": [
                {
                  "internalType": "uint256",
                  "name": "id",
                  "type": "uint256"
                },
                {
                  "internalType": "address",
                  "name": "_address",
                  "type": "address"
                },
                {
                  "internalType": "string",
                  "name": "userType",
                  "type": "string"
                },
                {
                  "internalType": "string",
                  "name": "country",
                  "type": "string"
                },
                {
                  "internalType": "string",
                  "name": "city",
                  "type": "string"
                },
                {
                  "internalType": "string",
                  "name": "email",
                  "type": "string"
                },
                {
                  "internalType": "string",
                  "name": "residenceAddress",
                  "type": "string"
                },
                {
                  "internalType": "bool",
                  "name": "isRegistered",
                  "type": "bool"
                },
                {
                  "internalType": "string",
                  "name": "website",
                  "type": "string"
                },
                {
                  "internalType": "string",
                  "name": "facebookUrl",
                  "type": "string"
                },
                {
                  "internalType": "string",
                  "name": "twitterUrl",
                  "type": "string"
                },
                {
                  "internalType": "string",
                  "name": "instagramUrl",
                  "type": "string"
                },
                {
                  "internalType": "string",
                  "name": "youtubeUrl",
                  "type": "string"
                },
                {
                  "internalType": "string",
                  "name": "hash",
                  "type": "string"
                }
              ],
              "internalType": "struct Donation.User",
              "name": "user",
              "type": "tuple"
            },
            {
              "internalType": "uint256",
              "name": "donersCount",
              "type": "uint256"
            },
            {
              "internalType": "uint256",
              "name": "donationsRaised",
              "type": "uint256"
            },
            {
              "internalType": "uint256",
              "name": "startDate",
              "type": "uint256"
            },
            {
              "internalType": "uint256",
              "name": "endDate",
              "type": "uint256"
            },
            {
              "internalType": "uint256",
              "name": "targetedAmount",
              "type": "uint256"
            },
            {
              "internalType": "string",
              "name": "category",
              "type": "string"
            },
            {
              "internalType": "string",
              "name": "title",
              "type": "string"
            },
            {
              "internalType": "string",
              "name": "hash",
              "type": "string"
            },
            {
              "internalType": "string",
              "name": "purpose",
              "type": "string"
            },
            {
              "internalType": "string",
              "name": "description",
              "type": "string"
            },
            {
              "components": [
                {
                  "internalType": "bool",
                  "name": "completed",
                  "type": "bool"
                },
                {
                  "internalType": "bool",
                  "name": "isPinned",
                  "type": "bool"
                },
                {
                  "internalType": "uint256",
                  "name": "pinnedDuration",
                  "type": "uint256"
                },
                {
                  "internalType": "uint256",
                  "name": "pinnedEndDate",
                  "type": "uint256"
                },
                {
                  "internalType": "bool",
                  "name": "isVisible",
                  "type": "bool"
                },
                {
                  "internalType": "bool",
                  "name": "isApproved",
                  "type": "bool"
                },
                {
                  "internalType": "uint256",
                  "name": "approvedDate",
                  "type": "uint256"
                },
                {
                  "internalType": "bool",
                  "name": "isRejected",
                  "type": "bool"
                }
              ],
              "internalType": "struct Donation.DonationStatus",
              "name": "donationstatus",
              "type": "tuple"
            }
          ],
          "internalType": "struct Donation.DonationItem",
          "name": "",
          "type": "tuple"
        }
      ],
      "stateMutability": "view",
      "type": "function"
    },
    {
      "inputs": [
        {
          "internalType": "uint256",
          "name": "_id",
          "type": "uint256"
        }
      ],
      "name": "getDonersOfDonation",
      "outputs": [
        {
          "components": [
            {
              "internalType": "uint256",
              "name": "id",
              "type": "uint256"
            },
            {
              "internalType": "uint256",
              "name": "amount",
              "type": "uint256"
            },
            {
              "internalType": "uint256",
              "name": "date",
              "type": "uint256"
            },
            {
              "internalType": "address",
              "name": "doner",
              "type": "address"
            }
          ],
          "internalType": "struct Donation.Doners[]",
          "name": "",
          "type": "tuple[]"
        }
      ],
      "stateMutability": "view",
      "type": "function"
    },
    {
      "inputs": [],
      "name": "getEthUsd",
      "outputs": [
        {
          "internalType": "uint256",
          "name": "",
          "type": "uint256"
        }
      ],
      "stateMutability": "view",
      "type": "function"
    },
    {
      "inputs": [
        {
          "internalType": "uint256",
          "name": "",
          "type": "uint256"
        }
      ],
      "name": "idToDonationItem",
      "outputs": [
        {
          "internalType": "uint256",
          "name": "id",
          "type": "uint256"
        },
        {
          "internalType": "address payable",
          "name": "owner",
          "type": "address"
        },
        {
          "components": [
            {
              "internalType": "uint256",
              "name": "id",
              "type": "uint256"
            },
            {
              "internalType": "address",
              "name": "_address",
              "type": "address"
            },
            {
              "internalType": "string",
              "name": "userType",
              "type": "string"
            },
            {
              "internalType": "string",
              "name": "country",
              "type": "string"
            },
            {
              "internalType": "string",
              "name": "city",
              "type": "string"
            },
            {
              "internalType": "string",
              "name": "email",
              "type": "string"
            },
            {
              "internalType": "string",
              "name": "residenceAddress",
              "type": "string"
            },
            {
              "internalType": "bool",
              "name": "isRegistered",
              "type": "bool"
            },
            {
              "internalType": "string",
              "name": "website",
              "type": "string"
            },
            {
              "internalType": "string",
              "name": "facebookUrl",
              "type": "string"
            },
            {
              "internalType": "string",
              "name": "twitterUrl",
              "type": "string"
            },
            {
              "internalType": "string",
              "name": "instagramUrl",
              "type": "string"
            },
            {
              "internalType": "string",
              "name": "youtubeUrl",
              "type": "string"
            },
            {
              "internalType": "string",
              "name": "hash",
              "type": "string"
            }
          ],
          "internalType": "struct Donation.User",
          "name": "user",
          "type": "tuple"
        },
        {
          "internalType": "uint256",
          "name": "donersCount",
          "type": "uint256"
        },
        {
          "internalType": "uint256",
          "name": "donationsRaised",
          "type": "uint256"
        },
        {
          "internalType": "uint256",
          "name": "startDate",
          "type": "uint256"
        },
        {
          "internalType": "uint256",
          "name": "endDate",
          "type": "uint256"
        },
        {
          "internalType": "uint256",
          "name": "targetedAmount",
          "type": "uint256"
        },
        {
          "internalType": "string",
          "name": "category",
          "type": "string"
        },
        {
          "internalType": "string",
          "name": "title",
          "type": "string"
        },
        {
          "internalType": "string",
          "name": "hash",
          "type": "string"
        },
        {
          "internalType": "string",
          "name": "purpose",
          "type": "string"
        },
        {
          "internalType": "string",
          "name": "description",
          "type": "string"
        },
        {
          "components": [
            {
              "internalType": "bool",
              "name": "completed",
              "type": "bool"
            },
            {
              "internalType": "bool",
              "name": "isPinned",
              "type": "bool"
            },
            {
              "internalType": "uint256",
              "name": "pinnedDuration",
              "type": "uint256"
            },
            {
              "internalType": "uint256",
              "name": "pinnedEndDate",
              "type": "uint256"
            },
            {
              "internalType": "bool",
              "name": "isVisible",
              "type": "bool"
            },
            {
              "internalType": "bool",
              "name": "isApproved",
              "type": "bool"
            },
            {
              "internalType": "uint256",
              "name": "approvedDate",
              "type": "uint256"
            },
            {
              "internalType": "bool",
              "name": "isRejected",
              "type": "bool"
            }
          ],
          "internalType": "struct Donation.DonationStatus",
          "name": "donationstatus",
          "type": "tuple"
        }
      ],
      "stateMutability": "view",
      "type": "function"
    },
    {
      "inputs": [],
      "name": "isUserRegistered",
      "outputs": [
        {
          "components": [
            {
              "internalType": "bool",
              "name": "status",
              "type": "bool"
            },
            {
              "internalType": "string",
              "name": "userType",
              "type": "string"
            },
            {
              "internalType": "uint256",
              "name": "id",
              "type": "uint256"
            }
          ],
          "internalType": "struct Donation.IsRegistered",
          "name": "",
          "type": "tuple"
        }
      ],
      "stateMutability": "view",
      "type": "function"
    },
    {
      "inputs": [
        {
          "internalType": "uint256",
          "name": "_id",
          "type": "uint256"
        },
        {
          "internalType": "uint256",
          "name": "_duration",
          "type": "uint256"
        },
        {
          "internalType": "uint256",
          "name": "_pinnedEndDate",
          "type": "uint256"
        }
      ],
      "name": "pinDonation",
      "outputs": [],
      "stateMutability": "payable",
      "type": "function"
    },
    {
      "inputs": [
        {
          "internalType": "address",
          "name": "",
          "type": "address"
        }
      ],
      "name": "registeredUsers",
      "outputs": [
        {
          "internalType": "bool",
          "name": "status",
          "type": "bool"
        },
        {
          "internalType": "string",
          "name": "userType",
          "type": "string"
        },
        {
          "internalType": "uint256",
          "name": "id",
          "type": "uint256"
        }
      ],
      "stateMutability": "view",
      "type": "function"
    },
    {
      "inputs": [
        {
          "internalType": "uint256",
          "name": "_id",
          "type": "uint256"
        }
      ],
      "name": "rejectDonation",
      "outputs": [],
      "stateMutability": "nonpayable",
      "type": "function"
    },
    {
      "inputs": [
        {
          "internalType": "uint256",
          "name": "",
          "type": "uint256"
        }
      ],
      "name": "users",
      "outputs": [
        {
          "internalType": "uint256",
          "name": "id",
          "type": "uint256"
        },
        {
          "internalType": "address",
          "name": "_address",
          "type": "address"
        },
        {
          "internalType": "string",
          "name": "userType",
          "type": "string"
        },
        {
          "internalType": "string",
          "name": "country",
          "type": "string"
        },
        {
          "internalType": "string",
          "name": "city",
          "type": "string"
        },
        {
          "internalType": "string",
          "name": "email",
          "type": "string"
        },
        {
          "internalType": "string",
          "name": "residenceAddress",
          "type": "string"
        },
        {
          "internalType": "bool",
          "name": "isRegistered",
          "type": "bool"
        },
        {
          "internalType": "string",
          "name": "website",
          "type": "string"
        },
        {
          "internalType": "string",
          "name": "facebookUrl",
          "type": "string"
        },
        {
          "internalType": "string",
          "name": "twitterUrl",
          "type": "string"
        },
        {
          "internalType": "string",
          "name": "instagramUrl",
          "type": "string"
        },
        {
          "internalType": "string",
          "name": "youtubeUrl",
          "type": "string"
        },
        {
          "internalType": "string",
          "name": "hash",
          "type": "string"
        }
      ],
      "stateMutability": "view",
      "type": "function"
    },
    {
      "inputs": [],
      "name": "usersCount",
      "outputs": [
        {
          "internalType": "uint256",
          "name": "",
          "type": "uint256"
        }
      ],
      "stateMutability": "view",
      "type": "function"
    }
  ],
  "bytecode": "0x60806040523480156200001157600080fd5b5060405162005e2538038062005e25833981016040819052620000349162000077565b600580546001600160a01b039092166001600160a01b031992831617905560008054909116739326bfa02add2366b30bacb125260af641031331179055620000a7565b60006020828403121562000089578081fd5b81516001600160a01b0381168114620000a0578182fd5b9392505050565b615d6e80620000b76000396000f3fe6080604052600436106100ef5760003560e01c80630e50cee5146100f45780632abfab4d1461012c57806332536a5314610150578063365b98b2146101655780633776eac61461019f5780633f27607d146101c157806343ae959c146101fb57806351c7bd4b14610211578063568fefbf146102315780635fc2a547146102af5780636ba13a82146102dc5780637b3e5e7b146102f2578063873138f314610308578063bb27e0ce1461032a578063c33743151461033f578063c69f34a314610361578063c6e251a914610381578063cac83cb114610394578063d8251a14146103b4578063ef07a81f146103c7575b600080fd5b34801561010057600080fd5b5061011461010f3660046152f8565b6103f4565b60405161012393929190615998565b60405180910390f35b34801561013857600080fd5b5061014260075481565b604051908152602001610123565b61016361015e3660046154db565b6104a3565b005b34801561017157600080fd5b506101856101803660046154a2565b6108e6565b6040516101239e9d9c9b9a99989796959493929190615b14565b3480156101ab57600080fd5b506101b4610f36565b6040516101239190615876565b3480156101cd57600080fd5b506101e16101dc3660046154a2565b611a56565b6040516101239e9d9c9b9a99989796959493929190615a43565b34801561020757600080fd5b5061014260065481565b34801561021d57600080fd5b5061016361022c3660046154a2565b612459565b34801561023d57600080fd5b5061028661024c3660046154ba565b600260208181526000938452604080852090915291835291208054600182015492820154600390920154909291906001600160a01b031684565b604080519485526020850193909352918301526001600160a01b03166060820152608001610123565b3480156102bb57600080fd5b506102cf6102ca3660046154a2565b612837565b60405161012391906158d7565b3480156102e857600080fd5b5061014260085481565b3480156102fe57600080fd5b5061014260095481565b34801561031457600080fd5b5061031d61299f565b6040516101239190615a05565b34801561033657600080fd5b50610142612ae5565b34801561034b57600080fd5b50610354612b77565b6040516101239190615944565b34801561036d57600080fd5b5061016361037c3660046154a2565b6132e1565b61016361038f366004615314565b6133de565b3480156103a057600080fd5b506101636103af3660046154a2565b613bda565b6101636103c23660046154a2565b613c75565b3480156103d357600080fd5b506103e76103e23660046154a2565b614270565b60405161012391906159f2565b6004602052600090815260409020805460018201805460ff909216929161041a90615c9e565b80601f016020809104026020016040519081016040528092919081815260200182805461044690615c9e565b80156104935780601f1061046857610100808354040283529160200191610493565b820191906000526020600020905b81548152906001019060200180831161047657829003601f168201915b5050505050908060020154905083565b6000831180156104b557506007548311155b6104da5760405162461bcd60e51b81526004016104d1906159c3565b60405180910390fd5b6000838152600160205260409020601a810154610100900460ff16156104ff57600080fd5b601d81015460ff61010090910416151560011461051b57600080fd5b601c810154421161052b57600080fd5b6005546040516001600160a01b039091169081903480156108fc02916000818181858888f19350505050158015610566573d6000803e3d6000fd5b50601b8201849055601c8201839055601a8201805461ff0019166101001790556000858152600160208190526040909120835481558184015491810180546001600160a01b03199081166001600160a01b03948516179091556002808601805491840191825560038088015490850180549094169516949094179091556004808601805487959392850191906105fb90615c9e565b610606929190614d50565b50600382018160030190805461061b90615c9e565b610626929190614d50565b50600482018160040190805461063b90615c9e565b610646929190614d50565b50600582018160050190805461065b90615c9e565b610666929190614d50565b50600682018160060190805461067b90615c9e565b610686929190614d50565b50600782810154908201805460ff191660ff909216151591909117905560088083018054918301916106b790615c9e565b6106c2929190614d50565b5060098201816009019080546106d790615c9e565b6106e2929190614d50565b50600a820181600a019080546106f790615c9e565b610702929190614d50565b50600b820181600b0190805461071790615c9e565b610722929190614d50565b50600c820181600c0190805461073790615c9e565b610742929190614d50565b50600d820181600d0190805461075790615c9e565b610762929190614d50565b505050601082015481601001556011820154816011015560128201548160120155601382015481601301556014820154816014015560158201816015019080546107ab90615c9e565b6107b6929190614d50565b5060168201816016019080546107cb90615c9e565b6107d6929190614d50565b5060178201816017019080546107eb90615c9e565b6107f6929190614d50565b50601882018160180190805461080b90615c9e565b610816929190614d50565b50601982018160190190805461082b90615c9e565b610836929190614d50565b50601a8281018054918301805460ff938416151560ff198083168217845593546101009081900486161515810261ff001992831661ffff199485161717909355601b8088015490870155601c8088015490870155601d808801805491880180549288161515838816811782559154869004881615159095029216921691909117179055601e8085015490840155601f93840154939092018054939091161515929091169190911790555050505050565b60036020526000908152604090208054600182015460028301805492936001600160a01b039092169261091890615c9e565b80601f016020809104026020016040519081016040528092919081815260200182805461094490615c9e565b80156109915780601f1061096657610100808354040283529160200191610991565b820191906000526020600020905b81548152906001019060200180831161097457829003601f168201915b5050505050908060030180546109a690615c9e565b80601f01602080910402602001604051908101604052809291908181526020018280546109d290615c9e565b8015610a1f5780601f106109f457610100808354040283529160200191610a1f565b820191906000526020600020905b815481529060010190602001808311610a0257829003601f168201915b505050505090806004018054610a3490615c9e565b80601f0160208091040260200160405190810160405280929190818152602001828054610a6090615c9e565b8015610aad5780601f10610a8257610100808354040283529160200191610aad565b820191906000526020600020905b815481529060010190602001808311610a9057829003601f168201915b505050505090806005018054610ac290615c9e565b80601f0160208091040260200160405190810160405280929190818152602001828054610aee90615c9e565b8015610b3b5780601f10610b1057610100808354040283529160200191610b3b565b820191906000526020600020905b815481529060010190602001808311610b1e57829003601f168201915b505050505090806006018054610b5090615c9e565b80601f0160208091040260200160405190810160405280929190818152602001828054610b7c90615c9e565b8015610bc95780601f10610b9e57610100808354040283529160200191610bc9565b820191906000526020600020905b815481529060010190602001808311610bac57829003601f168201915b5050506007840154600885018054949560ff909216949193509150610bed90615c9e565b80601f0160208091040260200160405190810160405280929190818152602001828054610c1990615c9e565b8015610c665780601f10610c3b57610100808354040283529160200191610c66565b820191906000526020600020905b815481529060010190602001808311610c4957829003601f168201915b505050505090806009018054610c7b90615c9e565b80601f0160208091040260200160405190810160405280929190818152602001828054610ca790615c9e565b8015610cf45780601f10610cc957610100808354040283529160200191610cf4565b820191906000526020600020905b815481529060010190602001808311610cd757829003601f168201915b50505050509080600a018054610d0990615c9e565b80601f0160208091040260200160405190810160405280929190818152602001828054610d3590615c9e565b8015610d825780601f10610d5757610100808354040283529160200191610d82565b820191906000526020600020905b815481529060010190602001808311610d6557829003601f168201915b50505050509080600b018054610d9790615c9e565b80601f0160208091040260200160405190810160405280929190818152602001828054610dc390615c9e565b8015610e105780601f10610de557610100808354040283529160200191610e10565b820191906000526020600020905b815481529060010190602001808311610df357829003601f168201915b50505050509080600c018054610e2590615c9e565b80601f0160208091040260200160405190810160405280929190818152602001828054610e5190615c9e565b8015610e9e5780601f10610e7357610100808354040283529160200191610e9e565b820191906000526020600020905b815481529060010190602001808311610e8157829003601f168201915b50505050509080600d018054610eb390615c9e565b80601f0160208091040260200160405190810160405280929190818152602001828054610edf90615c9e565b8015610f2c5780601f10610f0157610100808354040283529160200191610f2c565b820191906000526020600020905b815481529060010190602001808311610f0f57829003601f168201915b505050505090508e565b600754606090600080826001600160401b03811115610f6557634e487b7160e01b600052604160045260246000fd5b604051908082528060200260200182016040528015610f9e57816020015b610f8b614dd7565b815260200190600190039081610f835790505b50905060005b83811015611a4e576000610fb9826001615c4f565b60008181526001602081815260409283902083516101c0808201865282548252938201546001600160a01b039081168285015285519485018652600283018054865260038401549091169385019390935260048201805496975091959094869486820194909390929184019161102e90615c9e565b80601f016020809104026020016040519081016040528092919081815260200182805461105a90615c9e565b80156110a75780601f1061107c576101008083540402835291602001916110a7565b820191906000526020600020905b81548152906001019060200180831161108a57829003601f168201915b505050505081526020016003820180546110c090615c9e565b80601f01602080910402602001604051908101604052809291908181526020018280546110ec90615c9e565b80156111395780601f1061110e57610100808354040283529160200191611139565b820191906000526020600020905b81548152906001019060200180831161111c57829003601f168201915b5050505050815260200160048201805461115290615c9e565b80601f016020809104026020016040519081016040528092919081815260200182805461117e90615c9e565b80156111cb5780601f106111a0576101008083540402835291602001916111cb565b820191906000526020600020905b8154815290600101906020018083116111ae57829003601f168201915b505050505081526020016005820180546111e490615c9e565b80601f016020809104026020016040519081016040528092919081815260200182805461121090615c9e565b801561125d5780601f106112325761010080835404028352916020019161125d565b820191906000526020600020905b81548152906001019060200180831161124057829003601f168201915b5050505050815260200160068201805461127690615c9e565b80601f01602080910402602001604051908101604052809291908181526020018280546112a290615c9e565b80156112ef5780601f106112c4576101008083540402835291602001916112ef565b820191906000526020600020905b8154815290600101906020018083116112d257829003601f168201915b5050509183525050600782015460ff161515602082015260088201805460409092019161131b90615c9e565b80601f016020809104026020016040519081016040528092919081815260200182805461134790615c9e565b80156113945780601f1061136957610100808354040283529160200191611394565b820191906000526020600020905b81548152906001019060200180831161137757829003601f168201915b505050505081526020016009820180546113ad90615c9e565b80601f01602080910402602001604051908101604052809291908181526020018280546113d990615c9e565b80156114265780601f106113fb57610100808354040283529160200191611426565b820191906000526020600020905b81548152906001019060200180831161140957829003601f168201915b50505050508152602001600a8201805461143f90615c9e565b80601f016020809104026020016040519081016040528092919081815260200182805461146b90615c9e565b80156114b85780601f1061148d576101008083540402835291602001916114b8565b820191906000526020600020905b81548152906001019060200180831161149b57829003601f168201915b50505050508152602001600b820180546114d190615c9e565b80601f01602080910402602001604051908101604052809291908181526020018280546114fd90615c9e565b801561154a5780601f1061151f5761010080835404028352916020019161154a565b820191906000526020600020905b81548152906001019060200180831161152d57829003601f168201915b50505050508152602001600c8201805461156390615c9e565b80601f016020809104026020016040519081016040528092919081815260200182805461158f90615c9e565b80156115dc5780601f106115b1576101008083540402835291602001916115dc565b820191906000526020600020905b8154815290600101906020018083116115bf57829003601f168201915b50505050508152602001600d820180546115f590615c9e565b80601f016020809104026020016040519081016040528092919081815260200182805461162190615c9e565b801561166e5780601f106116435761010080835404028352916020019161166e565b820191906000526020600020905b81548152906001019060200180831161165157829003601f168201915b505050505081525050815260200160108201548152602001601182015481526020016012820154815260200160138201548152602001601482015481526020016015820180546116bd90615c9e565b80601f01602080910402602001604051908101604052809291908181526020018280546116e990615c9e565b80156117365780601f1061170b57610100808354040283529160200191611736565b820191906000526020600020905b81548152906001019060200180831161171957829003601f168201915b5050505050815260200160168201805461174f90615c9e565b80601f016020809104026020016040519081016040528092919081815260200182805461177b90615c9e565b80156117c85780601f1061179d576101008083540402835291602001916117c8565b820191906000526020600020905b8154815290600101906020018083116117ab57829003601f168201915b505050505081526020016017820180546117e190615c9e565b80601f016020809104026020016040519081016040528092919081815260200182805461180d90615c9e565b801561185a5780601f1061182f5761010080835404028352916020019161185a565b820191906000526020600020905b81548152906001019060200180831161183d57829003601f168201915b5050505050815260200160188201805461187390615c9e565b80601f016020809104026020016040519081016040528092919081815260200182805461189f90615c9e565b80156118ec5780601f106118c1576101008083540402835291602001916118ec565b820191906000526020600020905b8154815290600101906020018083116118cf57829003601f168201915b5050505050815260200160198201805461190590615c9e565b80601f016020809104026020016040519081016040528092919081815260200182805461193190615c9e565b801561197e5780601f106119535761010080835404028352916020019161197e565b820191906000526020600020905b81548152906001019060200180831161196157829003601f168201915b5050509183525050604080516101008082018352601a85015460ff808216151584529082900481161515602084810191909152601b87015494840194909452601c8601546060840152601d86015480821615156080850152919091048116151560a0830152601e85015460c0830152601f90940154909316151560e084015201528451859087908110611a2157634e487b7160e01b600052603260045260246000fd5b6020908102919091010152611a37600186615c4f565b945050508080611a4690615cd9565b915050610fa4565b509392505050565b60016020818152600092835260409283902080549281015484516101c081018652600283018054825260038401546001600160a01b0390811695830195909552600484018054969795909316959394919390929184019190611ab790615c9e565b80601f0160208091040260200160405190810160405280929190818152602001828054611ae390615c9e565b8015611b305780601f10611b0557610100808354040283529160200191611b30565b820191906000526020600020905b815481529060010190602001808311611b1357829003601f168201915b50505050508152602001600382018054611b4990615c9e565b80601f0160208091040260200160405190810160405280929190818152602001828054611b7590615c9e565b8015611bc25780601f10611b9757610100808354040283529160200191611bc2565b820191906000526020600020905b815481529060010190602001808311611ba557829003601f168201915b50505050508152602001600482018054611bdb90615c9e565b80601f0160208091040260200160405190810160405280929190818152602001828054611c0790615c9e565b8015611c545780601f10611c2957610100808354040283529160200191611c54565b820191906000526020600020905b815481529060010190602001808311611c3757829003601f168201915b50505050508152602001600582018054611c6d90615c9e565b80601f0160208091040260200160405190810160405280929190818152602001828054611c9990615c9e565b8015611ce65780601f10611cbb57610100808354040283529160200191611ce6565b820191906000526020600020905b815481529060010190602001808311611cc957829003601f168201915b50505050508152602001600682018054611cff90615c9e565b80601f0160208091040260200160405190810160405280929190818152602001828054611d2b90615c9e565b8015611d785780601f10611d4d57610100808354040283529160200191611d78565b820191906000526020600020905b815481529060010190602001808311611d5b57829003601f168201915b5050509183525050600782015460ff1615156020820152600882018054604090920191611da490615c9e565b80601f0160208091040260200160405190810160405280929190818152602001828054611dd090615c9e565b8015611e1d5780601f10611df257610100808354040283529160200191611e1d565b820191906000526020600020905b815481529060010190602001808311611e0057829003601f168201915b50505050508152602001600982018054611e3690615c9e565b80601f0160208091040260200160405190810160405280929190818152602001828054611e6290615c9e565b8015611eaf5780601f10611e8457610100808354040283529160200191611eaf565b820191906000526020600020905b815481529060010190602001808311611e9257829003601f168201915b50505050508152602001600a82018054611ec890615c9e565b80601f0160208091040260200160405190810160405280929190818152602001828054611ef490615c9e565b8015611f415780601f10611f1657610100808354040283529160200191611f41565b820191906000526020600020905b815481529060010190602001808311611f2457829003601f168201915b50505050508152602001600b82018054611f5a90615c9e565b80601f0160208091040260200160405190810160405280929190818152602001828054611f8690615c9e565b8015611fd35780601f10611fa857610100808354040283529160200191611fd3565b820191906000526020600020905b815481529060010190602001808311611fb657829003601f168201915b50505050508152602001600c82018054611fec90615c9e565b80601f016020809104026020016040519081016040528092919081815260200182805461201890615c9e565b80156120655780601f1061203a57610100808354040283529160200191612065565b820191906000526020600020905b81548152906001019060200180831161204857829003601f168201915b50505050508152602001600d8201805461207e90615c9e565b80601f01602080910402602001604051908101604052809291908181526020018280546120aa90615c9e565b80156120f75780601f106120cc576101008083540402835291602001916120f7565b820191906000526020600020905b8154815290600101906020018083116120da57829003601f168201915b5050505050815250509080601001549080601101549080601201549080601301549080601401549080601501805461212e90615c9e565b80601f016020809104026020016040519081016040528092919081815260200182805461215a90615c9e565b80156121a75780601f1061217c576101008083540402835291602001916121a7565b820191906000526020600020905b81548152906001019060200180831161218a57829003601f168201915b5050505050908060160180546121bc90615c9e565b80601f01602080910402602001604051908101604052809291908181526020018280546121e890615c9e565b80156122355780601f1061220a57610100808354040283529160200191612235565b820191906000526020600020905b81548152906001019060200180831161221857829003601f168201915b50505050509080601701805461224a90615c9e565b80601f016020809104026020016040519081016040528092919081815260200182805461227690615c9e565b80156122c35780601f10612298576101008083540402835291602001916122c3565b820191906000526020600020905b8154815290600101906020018083116122a657829003601f168201915b5050505050908060180180546122d890615c9e565b80601f016020809104026020016040519081016040528092919081815260200182805461230490615c9e565b80156123515780601f1061232657610100808354040283529160200191612351565b820191906000526020600020905b81548152906001019060200180831161233457829003601f168201915b50505050509080601901805461236690615c9e565b80601f016020809104026020016040519081016040528092919081815260200182805461239290615c9e565b80156123df5780601f106123b4576101008083540402835291602001916123df565b820191906000526020600020905b8154815290600101906020018083116123c257829003601f168201915b5050604080516101008082018352601a88015460ff8082161515845290829004811615156020840152601b89015493830193909352601c8801546060830152601d88015480841615156080840152048216151560a0820152601e87015460c0820152601f9096015416151560e086015250919291508f9050565b60008111801561246b57506007548111155b6124875760405162461bcd60e51b81526004016104d1906159c3565b6000818152600160205260409020601d810154610100900460ff16156124ac57600080fd5b601d81015460ff16156124be57600080fd5b601d8101805461ffff19169055601f8101805460ff191660019081179091556000838152602082905260409020825481558183015491810180546001600160a01b03199081166001600160a01b039485161790915560028085018054918401918255600380870154908501805490941695169490941790915560048085018054869593928501919061254f90615c9e565b61255a929190614d50565b50600382018160030190805461256f90615c9e565b61257a929190614d50565b50600482018160040190805461258f90615c9e565b61259a929190614d50565b5060058201816005019080546125af90615c9e565b6125ba929190614d50565b5060068201816006019080546125cf90615c9e565b6125da929190614d50565b50600782810154908201805460ff191660ff9092161515919091179055600880830180549183019161260b90615c9e565b612616929190614d50565b50600982018160090190805461262b90615c9e565b612636929190614d50565b50600a820181600a0190805461264b90615c9e565b612656929190614d50565b50600b820181600b0190805461266b90615c9e565b612676929190614d50565b50600c820181600c0190805461268b90615c9e565b612696929190614d50565b50600d820181600d019080546126ab90615c9e565b6126b6929190614d50565b505050601082015481601001556011820154816011015560128201548160120155601382015481601301556014820154816014015560158201816015019080546126ff90615c9e565b61270a929190614d50565b50601682018160160190805461271f90615c9e565b61272a929190614d50565b50601782018160170190805461273f90615c9e565b61274a929190614d50565b50601882018160180190805461275f90615c9e565b61276a929190614d50565b50601982018160190190805461277f90615c9e565b61278a929190614d50565b50601a8281018054918301805460ff938416151560ff198083168217845593546101009081900486161515810261ff001992831661ffff199485161717909355601b8088015490870155601c8088015490870155601d808801805491880180549288161515838816811782559154869004881615159095029216921691909117179055601e8085015490840155601f93840154939092018054939091161515929091169190911790555050565b60008181526001602052604081206010015460609180826001600160401b0381111561287357634e487b7160e01b600052604160045260246000fd5b6040519080825280602002602001820160405280156128d857816020015b6128c5604051806080016040528060008152602001600081526020016000815260200160006001600160a01b031681525090565b8152602001906001900390816128915790505b50905060005b838110156129965760006128f3826001615c4f565b6000888152600260208181526040808420858552825292839020835160808101855281548152600182015492810192909252918201549281019290925260038101546001600160a01b0316606083015285519293509185908790811061296957634e487b7160e01b600052603260045260246000fd5b602090810291909101015261297f600186615c4f565b94505050808061298e90615cd9565b9150506128de565b50949350505050565b6129c5604051806060016040528060001515815260200160608152602001600081525090565b3360009081526004602052604090205460ff16151560011415612aac5733600090815260046020908152604091829020825160608101909352805460ff16151583526001810180549192840191612a1b90615c9e565b80601f0160208091040260200160405190810160405280929190818152602001828054612a4790615c9e565b8015612a945780601f10612a6957610100808354040283529160200191612a94565b820191906000526020600020905b815481529060010190602001808311612a7757829003601f168201915b50505050508152602001600282015481525050905090565b33600090815260046020908152604091829020825160608101909352805460ff16151583526001810180549192840191612a1b90615c9e565b6000805460408051633fabe5a360e21b8152905183926001600160a01b03169163feaf968c9160048083019260a0929190829003018186803b158015612b2a57600080fd5b505afa158015612b3e573d6000803e3d6000fd5b505050506040513d601f19601f82011682018060405250810190612b629190615506565b505050915050612b7181614cdb565b91505090565b600854606090600080826001600160401b03811115612ba657634e487b7160e01b600052604160045260246000fd5b604051908082528060200260200182016040528015612bdf57816020015b612bcc614e99565b815260200190600190039081612bc45790505b50905060005b83811015611a4e576000612bfa826001615c4f565b60008181526003602090815260409182902082516101c0810184528154815260018201546001600160a01b0316928101929092526002810180549495509093919284929084019190612c4b90615c9e565b80601f0160208091040260200160405190810160405280929190818152602001828054612c7790615c9e565b8015612cc45780601f10612c9957610100808354040283529160200191612cc4565b820191906000526020600020905b815481529060010190602001808311612ca757829003601f168201915b50505050508152602001600382018054612cdd90615c9e565b80601f0160208091040260200160405190810160405280929190818152602001828054612d0990615c9e565b8015612d565780601f10612d2b57610100808354040283529160200191612d56565b820191906000526020600020905b815481529060010190602001808311612d3957829003601f168201915b50505050508152602001600482018054612d6f90615c9e565b80601f0160208091040260200160405190810160405280929190818152602001828054612d9b90615c9e565b8015612de85780601f10612dbd57610100808354040283529160200191612de8565b820191906000526020600020905b815481529060010190602001808311612dcb57829003601f168201915b50505050508152602001600582018054612e0190615c9e565b80601f0160208091040260200160405190810160405280929190818152602001828054612e2d90615c9e565b8015612e7a5780601f10612e4f57610100808354040283529160200191612e7a565b820191906000526020600020905b815481529060010190602001808311612e5d57829003601f168201915b50505050508152602001600682018054612e9390615c9e565b80601f0160208091040260200160405190810160405280929190818152602001828054612ebf90615c9e565b8015612f0c5780601f10612ee157610100808354040283529160200191612f0c565b820191906000526020600020905b815481529060010190602001808311612eef57829003601f168201915b5050509183525050600782015460ff1615156020820152600882018054604090920191612f3890615c9e565b80601f0160208091040260200160405190810160405280929190818152602001828054612f6490615c9e565b8015612fb15780601f10612f8657610100808354040283529160200191612fb1565b820191906000526020600020905b815481529060010190602001808311612f9457829003601f168201915b50505050508152602001600982018054612fca90615c9e565b80601f0160208091040260200160405190810160405280929190818152602001828054612ff690615c9e565b80156130435780601f1061301857610100808354040283529160200191613043565b820191906000526020600020905b81548152906001019060200180831161302657829003601f168201915b50505050508152602001600a8201805461305c90615c9e565b80601f016020809104026020016040519081016040528092919081815260200182805461308890615c9e565b80156130d55780601f106130aa576101008083540402835291602001916130d5565b820191906000526020600020905b8154815290600101906020018083116130b857829003601f168201915b50505050508152602001600b820180546130ee90615c9e565b80601f016020809104026020016040519081016040528092919081815260200182805461311a90615c9e565b80156131675780601f1061313c57610100808354040283529160200191613167565b820191906000526020600020905b81548152906001019060200180831161314a57829003601f168201915b50505050508152602001600c8201805461318090615c9e565b80601f01602080910402602001604051908101604052809291908181526020018280546131ac90615c9e565b80156131f95780601f106131ce576101008083540402835291602001916131f9565b820191906000526020600020905b8154815290600101906020018083116131dc57829003601f168201915b50505050508152602001600d8201805461321290615c9e565b80601f016020809104026020016040519081016040528092919081815260200182805461323e90615c9e565b801561328b5780601f106132605761010080835404028352916020019161328b565b820191906000526020600020905b81548152906001019060200180831161326e57829003601f168201915b5050505050815250508486815181106132b457634e487b7160e01b600052603260045260246000fd5b60209081029190910101526132ca600186615c4f565b9450505080806132d990615cd9565b915050612be5565b6000811180156132f357506007548111155b61330f5760405162461bcd60e51b81526004016104d1906159c3565b6000818152600160205260409020601d810154610100900460ff161561333457600080fd5b601d81015460ff161561334657600080fd5b601d8101805461ffff1916610101179055601f8101805460ff1916905542601e8201556000828152600160208190526040909120825481558183015491810180546001600160a01b039384166001600160a01b03199182161790915560028085018054918401918255600380870154908501805491909616931692909217909355600480850180548695928501919061254f90615c9e565b336133e857600080fd5b600780549060006133f883615cd9565b9091555050600754600081815260016020818152604080842094855591840180546001600160a01b0319163390811790915583526004905290205460ff166138a657600854613448906001615c4f565b600881905560028201556003810180546001600160a01b0319163317905560408084015101518051613484916004840191602090910190614f13565b5060408301516060015180516134a4916005840191602090910190614f13565b5060408301516080015180516134c4916006840191602090910190614f13565b50604083015160a0015180516134e4916007840191602090910190614f13565b50604083015160c001518051613504916008840191602090910190614f13565b5060098101805460ff1916600117905560408301516101000151805161353491600a840191602090910190614f13565b5060408301516101200151805161355591600b840191602090910190614f13565b5060408301516101400151805161357691600c840191602090910190614f13565b5060408301516101600151805161359791600d840191602090910190614f13565b506040830151610180015180516135b891600e840191602090910190614f13565b5060408301516101a0015180516135d991600f840191602090910190614f13565b50600880546000818152600360209081526040808320938455600190930180546001600160a01b031916331790558683015183015193548252919020825161362b936002909201929190910190614f13565b506040808401516060015160085460009081526003602081815293909120825161365b9491909201920190614f13565b508260400151608001516003600060085481526020019081526020016000206004019080519060200190613690929190614f13565b50826040015160a0015160036000600854815260200190815260200160002060050190805190602001906136c5929190614f13565b50826040015160c0015160036000600854815260200190815260200160002060060190805190602001906136fa929190614f13565b50600880546000908152600360209081526040808320600701805460ff19166001179055868101516101000151845484529220825161374194919091019290910190614f13565b50826040015161012001516003600060085481526020019081526020016000206009019080519060200190613777929190614f13565b5082604001516101400151600360006008548152602001908152602001600020600a0190805190602001906137ad929190614f13565b5082604001516101600151600360006008548152602001908152602001600020600b0190805190602001906137e3929190614f13565b5082604001516101800151600360006008548152602001908152602001600020600c019080519060200190613819929190614f13565b5082604001516101a00151600360006008548152602001908152602001600020600d01908051906020019061384f929190614f13565b5033600090815260046020908152604091829020805460ff1916600190811782558684015190930151805161388a9492909201920190614f13565b5060085433600090815260046020526040902060020155613ac3565b6000828152600360208190526040909120805460028085019190915591830180546001600160a01b031916331790550180546004830191906138e790615c9e565b6138f2929190614d50565b50600082815260036020819052604090912001805460058301919061391690615c9e565b613921929190614d50565b506000828152600360205260409020600401805460068301919061394490615c9e565b61394f929190614d50565b506000828152600360205260409020600501805460078301919061397290615c9e565b61397d929190614d50565b50600082815260036020526040902060060180546008830191906139a090615c9e565b6139ab929190614d50565b5060098101805460ff1916600117905560008281526003602052604090206008018054600a830191906139dd90615c9e565b6139e8929190614d50565b5060008281526003602052604090206009018054600b83019190613a0b90615c9e565b613a16929190614d50565b506000828152600360205260409020600a018054600c83019190613a3990615c9e565b613a44929190614d50565b506000828152600360205260409020600b018054600d83019190613a6790615c9e565b613a72929190614d50565b506000828152600360205260409020600c018054600e83019190613a9590615c9e565b613aa0929190614d50565b5060408301516101a001518051613ac191600f840191602090910190614f13565b505b600060118201819055601082015542601282015560c0830151601382015560e083015160148201556101008301518051613b07916015840191602090910190614f13565b506101208301518051613b24916016840191602090910190614f13565b506101408301518051613b41916017840191602090910190614f13565b506101008301518051613b5e916015840191602090910190614f13565b506101608301518051613b7b916018840191602090910190614f13565b506101808301518051613b98916019840191602090910190614f13565b50601a8101805461ffff19908116909155601d820180549091169055601f8101805460ff191690556000601e8201819055601b8201819055601c909101555050565b600081118015613bec57506007548111155b613c085760405162461bcd60e51b81526004016104d1906159c3565b6000818152600160208190526040909120601a8101805461ff001916905590810180546001600160a01b03198082166001600160a01b0392831617909255600383018054928316929091169190911790556004810180548291829160028301918291819061254f90615c9e565b600081118015613c8757506007548111155b613c9057600080fd5b60008181526001602052604090206014810154601182015410613cbd57601a8101805460ff191660011790555b60018101546001600160a01b03166011600a6000613cdb8383614d31565b905060646000613ceb8284614d31565b90506000613cf93483614d31565b90506001600160a01b0387166108fc613d123484614d44565b6040518115909202916000818181858888f19350505050158015613d3a573d6000803e3d6000fd5b506005546040516001600160a01b0390911690819083156108fc029084906000818181858888f19350505050158015613d77573d6000803e3d6000fd5b5034600954613d869190615c4f565b6009556011890154613d99903490615c4f565b60118a01556010890154613dae906001615c4f565b60108a015560068054906000613dc383615cd9565b91905055508860100154600260008b60000154815260200190815260200160002060008b6010015481526020019081526020016000206000018190555034600260008b60000154815260200190815260200160002060008b6010015481526020019081526020016000206001018190555042600260008b60000154815260200190815260200160002060008b6010015481526020019081526020016000206002018190555033600260008b60000154815260200190815260200160002060008b60100154815260200190815260200160002060030160006101000a8154816001600160a01b0302191690836001600160a01b0316021790555088600160008c8152602001908152602001600020600082015481600001556001820160009054906101000a90046001600160a01b03168160010160006101000a8154816001600160a01b0302191690836001600160a01b031602179055506002820181600201600082015481600001556001820160009054906101000a90046001600160a01b03168160010160006101000a8154816001600160a01b0302191690836001600160a01b031602179055506002820181600201908054613f8090615c9e565b613f8b929190614d50565b506003820181600301908054613fa090615c9e565b613fab929190614d50565b506004820181600401908054613fc090615c9e565b613fcb929190614d50565b506005820181600501908054613fe090615c9e565b613feb929190614d50565b50600682018160060190805461400090615c9e565b61400b929190614d50565b50600782810154908201805460ff191660ff9092161515919091179055600880830180549183019161403c90615c9e565b614047929190614d50565b50600982018160090190805461405c90615c9e565b614067929190614d50565b50600a820181600a0190805461407c90615c9e565b614087929190614d50565b50600b820181600b0190805461409c90615c9e565b6140a7929190614d50565b50600c820181600c019080546140bc90615c9e565b6140c7929190614d50565b50600d820181600d019080546140dc90615c9e565b6140e7929190614d50565b5050506010820154816010015560118201548160110155601282015481601201556013820154816013015560148201548160140155601582018160150190805461413090615c9e565b61413b929190614d50565b50601682018160160190805461415090615c9e565b61415b929190614d50565b50601782018160170190805461417090615c9e565b61417b929190614d50565b50601882018160180190805461419090615c9e565b61419b929190614d50565b5060198201816019019080546141b090615c9e565b6141bb929190614d50565b50601a8281018054918301805460ff938416151560ff198083168217845593546101009081900486161515810261ff001992831661ffff199485161717909355601b8088015490870155601c8088015490870155601d808801805491880180549288161515838816811782559154869004881615159095029216921691909117179055601e8085015490840155601f938401549390920180549390911615159290911691909117905550505050505050505050565b614278614dd7565b600082815260016020526040902054821415614cd65760008281526001602081815260409283902083516101c0808201865282548252938201546001600160a01b039081168285015285519485018652600283018054865260038401549091169385019390935260048201805491959294868401949093909290840191906142ff90615c9e565b80601f016020809104026020016040519081016040528092919081815260200182805461432b90615c9e565b80156143785780601f1061434d57610100808354040283529160200191614378565b820191906000526020600020905b81548152906001019060200180831161435b57829003601f168201915b5050505050815260200160038201805461439190615c9e565b80601f01602080910402602001604051908101604052809291908181526020018280546143bd90615c9e565b801561440a5780601f106143df5761010080835404028352916020019161440a565b820191906000526020600020905b8154815290600101906020018083116143ed57829003601f168201915b5050505050815260200160048201805461442390615c9e565b80601f016020809104026020016040519081016040528092919081815260200182805461444f90615c9e565b801561449c5780601f106144715761010080835404028352916020019161449c565b820191906000526020600020905b81548152906001019060200180831161447f57829003601f168201915b505050505081526020016005820180546144b590615c9e565b80601f01602080910402602001604051908101604052809291908181526020018280546144e190615c9e565b801561452e5780601f106145035761010080835404028352916020019161452e565b820191906000526020600020905b81548152906001019060200180831161451157829003601f168201915b5050505050815260200160068201805461454790615c9e565b80601f016020809104026020016040519081016040528092919081815260200182805461457390615c9e565b80156145c05780601f10614595576101008083540402835291602001916145c0565b820191906000526020600020905b8154815290600101906020018083116145a357829003601f168201915b5050509183525050600782015460ff16151560208201526008820180546040909201916145ec90615c9e565b80601f016020809104026020016040519081016040528092919081815260200182805461461890615c9e565b80156146655780601f1061463a57610100808354040283529160200191614665565b820191906000526020600020905b81548152906001019060200180831161464857829003601f168201915b5050505050815260200160098201805461467e90615c9e565b80601f01602080910402602001604051908101604052809291908181526020018280546146aa90615c9e565b80156146f75780601f106146cc576101008083540402835291602001916146f7565b820191906000526020600020905b8154815290600101906020018083116146da57829003601f168201915b50505050508152602001600a8201805461471090615c9e565b80601f016020809104026020016040519081016040528092919081815260200182805461473c90615c9e565b80156147895780601f1061475e57610100808354040283529160200191614789565b820191906000526020600020905b81548152906001019060200180831161476c57829003601f168201915b50505050508152602001600b820180546147a290615c9e565b80601f01602080910402602001604051908101604052809291908181526020018280546147ce90615c9e565b801561481b5780601f106147f05761010080835404028352916020019161481b565b820191906000526020600020905b8154815290600101906020018083116147fe57829003601f168201915b50505050508152602001600c8201805461483490615c9e565b80601f016020809104026020016040519081016040528092919081815260200182805461486090615c9e565b80156148ad5780601f10614882576101008083540402835291602001916148ad565b820191906000526020600020905b81548152906001019060200180831161489057829003601f168201915b50505050508152602001600d820180546148c690615c9e565b80601f01602080910402602001604051908101604052809291908181526020018280546148f290615c9e565b801561493f5780601f106149145761010080835404028352916020019161493f565b820191906000526020600020905b81548152906001019060200180831161492257829003601f168201915b5050505050815250508152602001601082015481526020016011820154815260200160128201548152602001601382015481526020016014820154815260200160158201805461498e90615c9e565b80601f01602080910402602001604051908101604052809291908181526020018280546149ba90615c9e565b8015614a075780601f106149dc57610100808354040283529160200191614a07565b820191906000526020600020905b8154815290600101906020018083116149ea57829003601f168201915b50505050508152602001601682018054614a2090615c9e565b80601f0160208091040260200160405190810160405280929190818152602001828054614a4c90615c9e565b8015614a995780601f10614a6e57610100808354040283529160200191614a99565b820191906000526020600020905b815481529060010190602001808311614a7c57829003601f168201915b50505050508152602001601782018054614ab290615c9e565b80601f0160208091040260200160405190810160405280929190818152602001828054614ade90615c9e565b8015614b2b5780601f10614b0057610100808354040283529160200191614b2b565b820191906000526020600020905b815481529060010190602001808311614b0e57829003601f168201915b50505050508152602001601882018054614b4490615c9e565b80601f0160208091040260200160405190810160405280929190818152602001828054614b7090615c9e565b8015614bbd5780601f10614b9257610100808354040283529160200191614bbd565b820191906000526020600020905b815481529060010190602001808311614ba057829003601f168201915b50505050508152602001601982018054614bd690615c9e565b80601f0160208091040260200160405190810160405280929190818152602001828054614c0290615c9e565b8015614c4f5780601f10614c2457610100808354040283529160200191614c4f565b820191906000526020600020905b815481529060010190602001808311614c3257829003601f168201915b5050509183525050604080516101008082018352601a85015460ff808216151584529082900481161515602084810191909152601b87015494840194909452601c8601546060840152601d86015480821615156080850152919091048116151560a0830152601e85015460c0830152601f90940154909316151560e0840152015292915050565b919050565b600080821215614d2d5760405162461bcd60e51b815260206004820181905260248201527f53616665436173743a2076616c7565206d75737420626520706f73697469766560448201526064016104d1565b5090565b6000614d3d8284615c67565b9392505050565b6000614d3d8284615c87565b828054614d5c90615c9e565b90600052602060002090601f016020900481019282614d7e5760008555614dcb565b82601f10614d8f5780548555614dcb565b82800160010185558215614dcb57600052602060002091601f016020900482015b82811115614dcb578254825591600101919060010190614db0565b50614d2d929150614f87565b604080516101c08101825260008082526020820152908101614df7614e99565b815260200160008152602001600081526020016000815260200160008152602001600081526020016060815260200160608152602001606081526020016060815260200160608152602001614e946040518061010001604052806000151581526020016000151581526020016000815260200160008152602001600015158152602001600015158152602001600081526020016000151581525090565b905290565b604051806101c001604052806000815260200160006001600160a01b0316815260200160608152602001606081526020016060815260200160608152602001606081526020016000151581526020016060815260200160608152602001606081526020016060815260200160608152602001606081525090565b828054614f1f90615c9e565b90600052602060002090601f016020900481019282614f415760008555614dcb565b82601f10614f5a57805160ff1916838001178555614dcb565b82800160010185558215614dcb579182015b82811115614dcb578251825591602001919060010190614f6c565b5b80821115614d2d5760008155600101614f88565b8035614cd681615d20565b80358015158114614cd657600080fd5b600082601f830112614fc7578081fd5b81356001600160401b0380821115614fe157614fe1615d0a565b604051601f8301601f19908116603f0116810190828211818310171561500957615009615d0a565b81604052838152866020858801011115615021578485fd5b8360208701602083013792830160200193909352509392505050565b6000610100808385031215615050578182fd5b604051908101906001600160401b038211818310171561507257615072615d0a565b8160405280925061508284614fa7565b815261509060208501614fa7565b602082015260408401356040820152606084013560608201526150b560808501614fa7565b60808201526150c660a08501614fa7565b60a082015260c084013560c08201526150e160e08501614fa7565b60e0820152505092915050565b60006101c08284031215615100578081fd5b615108615c26565b90508135815261511a60208301614f9c565b602082015260408201356001600160401b038082111561513957600080fd5b61514585838601614fb7565b6040840152606084013591508082111561515e57600080fd5b61516a85838601614fb7565b6060840152608084013591508082111561518357600080fd5b61518f85838601614fb7565b608084015260a08401359150808211156151a857600080fd5b6151b485838601614fb7565b60a084015260c08401359150808211156151cd57600080fd5b6151d985838601614fb7565b60c08401526151ea60e08501614fa7565b60e08401526101009150818401358181111561520557600080fd5b61521186828701614fb7565b83850152506101209150818401358181111561522c57600080fd5b61523886828701614fb7565b83850152506101409150818401358181111561525357600080fd5b61525f86828701614fb7565b83850152506101609150818401358181111561527a57600080fd5b61528686828701614fb7565b8385015250610180915081840135818111156152a157600080fd5b6152ad86828701614fb7565b83850152506101a0915081840135818111156152c857600080fd5b6152d486828701614fb7565b8385015250505092915050565b80516001600160501b0381168114614cd657600080fd5b600060208284031215615309578081fd5b8135614d3d81615d20565b60008060408385031215615326578081fd5b82356001600160401b038082111561533c578283fd5b908401906102a08287031215615350578283fd5b615358615c26565b8235815261536860208401614f9c565b602082015260408301358281111561537e578485fd5b61538a888286016150ee565b604083015250606083013560608201526080830135608082015260a083013560a082015260c083013560c082015260e083013560e082015261010080840135838111156153d5578586fd5b6153e189828701614fb7565b82840152505061012080840135838111156153fa578586fd5b61540689828701614fb7565b828401525050610140808401358381111561541f578586fd5b61542b89828701614fb7565b8284015250506101608084013583811115615444578586fd5b61545089828701614fb7565b8284015250506101808084013583811115615469578586fd5b61547589828701614fb7565b8284015250506101a0915061548c8783850161503d565b9181019190915295602094909401359450505050565b6000602082840312156154b3578081fd5b5035919050565b600080604083850312156154cc578182fd5b50508035926020909101359150565b6000806000606084860312156154ef578081fd5b505081359360208301359350604090920135919050565b600080600080600060a0868803121561551d578081fd5b615526866152e1565b9450602086015193506040860151925060608601519150615549608087016152e1565b90509295509295909350565b6001600160a01b03169052565b60008151808452815b818110156155875760208185018101518683018201520161556b565b818111156155985782602083870101525b50601f01601f19169290920160200192915050565b60006102a08251845260208301516155c86020860182615555565b5060408301518160408601526155e082860182615716565b915050606083015160608501526080830151608085015260a083015160a085015260c083015160c085015260e083015160e0850152610100808401518583038287015261562d8382615562565b9250505061012080840151858303828701526156498382615562565b9250505061014080840151858303828701526156658382615562565b9250505061016080840151858303828701526156818382615562565b92505050610180808401518583038287015261569d8382615562565b925050506101a0808401516156b4828701826156be565b5090949350505050565b805115158252602081015115156020830152604081015160408301526060810151606083015260808101511515608083015260a0810151151560a083015260c081015160c083015260e0810151151560e08301525050565b60006101c08251845260208301516157316020860182615555565b50604083015181604086015261574982860182615562565b915050606083015184820360608601526157638282615562565b9150506080830151848203608086015261577d8282615562565b91505060a083015184820360a08601526157978282615562565b91505060c083015184820360c08601526157b18282615562565b91505060e08301516157c760e086018215159052565b5061010080840151858303828701526157e08382615562565b9250505061012080840151858303828701526157fc8382615562565b9250505061014080840151858303828701526158188382615562565b9250505061016080840151858303828701526158348382615562565b9250505061018080840151858303828701526158508382615562565b925050506101a0808401518583038287015261586c8382615562565b9695505050505050565b6000602080830181845280855180835260408601915060408160051b8701019250838701855b828110156158ca57603f198886030184526158b88583516155ad565b9450928501929085019060010161589c565b5092979650505050505050565b602080825282518282018190526000919060409081850190868401855b8281101561593757815180518552868101518786015285810151868601526060908101516001600160a01b031690850152608090930192908501906001016158f4565b5091979650505050505050565b6000602080830181845280855180835260408601915060408160051b8701019250838701855b828110156158ca57603f19888603018452615986858351615716565b9450928501929085019060010161596a565b83151581526060602082015260006159b36060830185615562565b9050826040830152949350505050565b602080825260159082015274191bdb985d1a5bdb881a59081b9bdd081d985b1a59605a1b604082015260600190565b602081526000614d3d60208301846155ad565b602081528151151560208201526000602083015160606040840152615a2d6080840182615562565b9050604084015160608401528091505092915050565b8e8152615a53602082018f615555565b6102a060408201526000615a6b6102a083018f615716565b8d60608401528c60808401528b60a08401528a60c08401528960e0840152828103610100840152615a9c818a615562565b9050828103610120840152615ab18189615562565b9050828103610140840152615ac68188615562565b9050828103610160840152615adb8187615562565b9050828103610180840152615af08186615562565b915050615b016101a08301846156be565b9f9e505050505050505050505050505050565b8e8152615b24602082018f615555565b6101c060408201526000615b3c6101c083018f615562565b8281036060840152615b4e818f615562565b90508281036080840152615b62818e615562565b905082810360a0840152615b76818d615562565b905082810360c0840152615b8a818c615562565b8a151560e08501529050828103610100840152615ba7818a615562565b9050828103610120840152615bbc8189615562565b9050828103610140840152615bd18188615562565b9050828103610160840152615be68187615562565b9050828103610180840152615bfb8186615562565b90508281036101a0840152615c108185615562565b9150509f9e505050505050505050505050505050565b6040516101c081016001600160401b0381118282101715615c4957615c49615d0a565b60405290565b60008219821115615c6257615c62615cf4565b500190565b600082615c8257634e487b7160e01b81526012600452602481fd5b500490565b600082821015615c9957615c99615cf4565b500390565b600181811c90821680615cb257607f821691505b60208210811415615cd357634e487b7160e01b600052602260045260246000fd5b50919050565b6000600019821415615ced57615ced615cf4565b5060010190565b634e487b7160e01b600052601160045260246000fd5b634e487b7160e01b600052604160045260246000fd5b6001600160a01b0381168114615d3557600080fd5b5056fea2646970667358221220a56c788872a88541f43e706651a323a0fa646a223dbb3adffc0134c81d11899b64736f6c63430008040033",
  "linkReferences": {},
  "deployedLinkReferences": {}
}